:020000040800F2
:10000000000003205D060008C9230008CB23000878
:10001000CD230008CF230008D123000800000000F2
:1000200000000000000000000000000081790008CE
:10003000D323000800000000117A0008997200081C
:10004000AD060008AD060008AD060008AD060008C4
:10005000AD060008AD060008AD060008AD060008B4
:10006000AD060008AD060008AD060008AD060008A4
:10007000AD060008AD060008AD060008AD06000894
:10008000AD060008AD060008D5230008AD0600083F
:10009000AD060008AD060008AD060008AD06000874
:1000A000AD060008AD060008AD060008AD06000864
:1000B000AD060008AD060008AD060008AD06000854
:1000C000AD060008AD060008AD060008AD06000844
:1000D000AD060008AD060008AD060008AD06000834
:1000E000AD060008AD060008AD060008AD06000824
:1000F000AD060008AD060008AD060008AD06000814
:10010000AD060008AD060008AD060008AD06000803
:10011000AD060008AD060008E1230008AD060008A2
:10012000ED230008AD060008AD060008AD06000886
:10013000AD060008AD060008AD060008AD060008D3
:10014000AD060008AD060008AD060008AD060008C3
:10015000AD060008AD060008AD060008AD060008B3
:10016000AD060008AD060008AD060008AD060008A3
:10017000AD060008AD060008AD060008000000004E
:10018000AD060008AD060008AD060008AD06000883
:10019000AD060008AD060008AD060008AD06000873
:0C01A000F9230008AD0600080524000843
:1001B00010B5054C237833B9044B13B10448AFF3A1
:1001C00000800123237010BD800300200000000088
:1001D000D042020808B5034B1BB103490348AFF3F3
:1001E000008008BD0000000084030020D042020807
:1001F00001F0FF01102A2BDB10F0070F08D010F8D8
:10020000013B013A8B422DD010F0070F42B3F6D1DB
:10021000F0B441EA012141EA014122F007047FF0F4
:1002200000070023F0E80256083C85EA010586EA4B
:10023000010685FA47F5A3FA87F586FA47F6A5FA87
:1002400087F68EB9EED1F0BC01F0FF0102F0070293
:1002500032B110F8013B013A83EA010313B1F8D13E
:100260000020704701387047002D06BF354603381F
:10027000073815F0010F07D1013015F4807F02BF58
:10028000013015F4C03F0130F0BC0138704700BFA9
:100290007BB972B90029BEBF00204FF0004106E0D3
:1002A00008BF00281CBF6FF000414FF0FF3000F086
:1002B000D3B9ADF1080C6DE904CE002909DB002BA0
:1002C0001ADB00F04DF8DDF804E0DDE9022304B0AC
:1002D0007047404261EB4101002B1BDB00F040F80E
:1002E000DDF804E0DDE9022304B0404261EB4101A6
:1002F000524263EB43037047524263EB430300F007
:100300002FF8DDF804E0DDE9022304B0404261EBA0
:1003100041017047524263EB430300F021F8DDF8DE
:1003200004E0DDE9022304B0524263EB430370476B
:1003300053B94AB9002908BF00281CBF4FF0FF314C
:100340004FF0FF3000F088B9ADF1080C6DE904CE34
:1003500000F006F8DDF804E0DDE9022304B07047A0
:100360002DE9F047089D8E4604468846002B4AD169
:100370008A42174662D9B2FA82F64EB1C6F120031C
:1003800001FA06F820FA03F3B74043EA0808B4403C
:100390004FEA174E1FFA87FCB8FBFEF1230C0EFB49
:1003A000118843EA084301FB0CF29A4209D9FB1871
:1003B00001F1FF3080F0EA809A4240F2E780023992
:1003C0003B449A1AA3B2B2FBFEF00EFB102243EAA2
:1003D000024300FB0CFC9C4509D9FB1800F1FF32DD
:1003E00080F0D6809C4540F2D3803B44023840EAFE
:1003F0000140A3EB0C0300211DB1F3400022C5E92D
:100400000032BDE8F0878B4205D90DB1C5E9000186
:1004100000210846F5E7B3FA83F1002946D1734578
:1004200002D3824200F20581841A6EEB030201209E
:100430009046002DE5D0C5E90048E2E7002A00F02B
:100440009080B2FA82F6002E40F0A4808A1A030C43
:100450004FEA174E80B2BCB20121B2FBFEFC0EFB8C
:100460001C2243EA024304FB0CF29A4207D9FB1810
:100470000CF1FF3802D29A4200F2E080C4469B1A87
:10048000B3FBFEF20EFB123340EA034302FB04F41B
:100490009C4207D9FB1802F1FF3002D29C4200F2C5
:1004A000CA8002461B1B42EA0C40A5E7C1F12006A8
:1004B0008B4022FA06F71F430EFA01F420FA06F3E6
:1004C0002EFA06FE4FEA1749234300FA01F81FFAF5
:1004D00087FCBEFBF9F01C0C09FB10EE44EA0E444D
:1004E00000FB0CFEA64502FA01F209D93C1900F105
:1004F000FF3A80F09C80A64540F2998002383C4447
:10050000A4EB0E041FFA83FEB4FBF9F309FB1344BA
:100510004EEA044403FB0CFCA44508D93C1903F142
:10052000FF3E80F08280A4457FD9023B3C4443EAF1
:100530000040A4EB0C04A0FB02EC64457346E146CA
:1005400062D35FD05DB1B8EB030264EB090404FA37
:1005500006F622FA01F31E43CC40C5E900640021EF
:100560004FE7B1FBF2FC010C41EA0E4180B240EAD8
:1005700001423B4638463C46B846BE462026B1FBC3
:10058000F7F1A2EB080241EA0C4166E7014618E7E1
:1005900010462CE7C6F120022EFA02F3B740B14014
:1005A00020FA02F24FEA174E0A43B3FBFEF8BCB240
:1005B0000EFB1833110C41EA034108FB04F9B0406B
:1005C00089454FEA104380B23ED9791808F1FF3CC3
:1005D00001D289451FD8A1EB0901B1FBFEF909FB46
:1005E00004F80EFB191192B242EA0142424529D2A7
:1005F000BA1809F1FF31C4D24245C2D2A9F10201B1
:100600003A44BEE7F0459DD2BEEB02036CEB070C0B
:100610000138E14696E7A7EB09094944A8F1020C25
:10062000B1FBFEF909FB04F8DBE773467FE75046B0
:1006300066E70846FDE63B44023A33E7ACF1020CBC
:100640003B441CE749469CE7A1EB0901C446B1FBCA
:10065000FEF909FB04F8C4E7704700BFDFF834D0A7
:10066000002103E00C4B5B58435004310B480C4B0A
:1006700042189A42F6D30B4A02E0002342F8043BA8
:10068000094B9A42F9D303F03DFF23F0B3F801F090
:100690005BF8704700000320408F06080000002030
:1006A000640100208003002078370120FEE77047B6
:1006B00008B500F0B9FDBDE8084000F03DBD00F010
:1006C000B5BD704710B50421044621F065FE2046F3
:1006D00010BD000038B50C4B0C4C18800C4B822020
:1006E00019806368984740F6110398420AD1094D72
:1006F00023682C60822098472B688220DB6898470B
:10070000002038BD0120FCE7A60300204C0000209B
:10071000A4030020A80300204FF4A071F020FFF7ED
:10072000D9BF0000F7B5394D2B6804461B698220FC
:100730009847208000284ED02B680DF106025B6997
:1007400001A982209847324B1B78002B4BD0BDF873
:10075000062040F674639A423FD9ADF80630BDF8E2
:1007600006209B1A9BB20A2B42D90B22B3FBF2F351
:10077000284A1288934201D9013A93B2BDF8042065
:10078000254840F6B8318A4234D8C2F571620E323B
:10079000016892B20F25B2FBF5F2204D2D88AA42D6
:1007A00084BF05F1FF35AAB28A4215468EB22AD916
:1007B000921B91B21A4E3768BB42BAB28CBF9A1ADA
:1007C000D21A92B211440529C4BF05603360036890
:1007D00063803368A38003B0F0BDB32A9CBFB4220A
:1007E000ADF80620BBE7BDF80630A3F5B473B9E752
:1007F0000023C3E7C2F56D62083292B20E2A016887
:10080000C8D800252A46891A89B2D3E7A803002050
:100810001C190020A4030020A0030020A603002030
:100820009C03002037B568460D461446FFF77AFF53
:10083000BDF8000030B1BDF802302B60BDF80430C7
:100840002360012003B030BD032821D8DFE800F089
:10085000020B12190F4B1A68B2FA82F252090421E4
:100860000D4804F02FBD0B4B5A68B2FA82F25209C0
:100870000821F5E7074B9A68B2FA82F25209102173
:10088000EEE7044BDA68B2FA82F252092021E7E778
:10089000704700BFAC03002000100240032821D89D
:1008A000DFE800F0020B12190F4B1A68003A18BF6C
:1008B000012204210D4804F005BD0B4B5A68003A93
:1008C00018BF01220821F5E7074B9A68003A18BFC4
:1008D00001221021EEE7044BDA68003A18BF01222A
:1008E0002021E7E7704700BFAC0300200010024062
:1008F00003280DD8DFE800F00206080A04210548A5
:1009000004F0E5BC0821FAE71021F8E72021F6E71A
:10091000704700BF0010024008B5032811D8DFE877
:1009200000F0020A0C0E0421074804F0C5FC431E27
:100930005842584108BD0821F6E71021F4E720216C
:10094000F2E70020F3E700BF0010024070B5084D49
:1009500000240126E0B2FFF7DFFF18B12B68012B5E
:1009600018BF2E600134052C05F10405F2D170BDCD
:10097000AC030020012380F8781080F879307047AC
:100980007047002070470000034B4164003918BFD6
:1009900001211970704700BF372A012070470020DD
:1009A0007047836B0BB10846184770474FF6FF70CE
:1009B0007047406803689B691847704770477047E5
:1009C0007047704710B5044600F046FD23680349A0
:1009D000D3F890302046BDE810401847000000D002
:1009E00008B503680446D3F8843098472368204646
:1009F000DB6F984700F0ECF8236820465B6F984760
:100A0000292001F073F900F0E3F8236820465B6FBA
:100A10009847F8E710B5044609F0A8FD236820467A
:100A2000D3F8BC30BDE81040184700F0F9BC00F026
:100A3000FDBC00F02FBD00F0CFBC00F03FBD00F0CA
:100A400047BD00F0D3BC08F0BFBF10B584210446F9
:100A500021F0A2FC204610BD10B590F8341090F89B
:100A600078400C4B8C421A7809D03AB90A4A0B49A3
:100A70001488088810800C8001221A7010BD002A8A
:100A8000FCD0054A05491488088810800C80002293
:100A9000F3E700BF302A01202C2A01202E2A012052
:100AA00070B50D46194635B9094B0A4A0A4840F255
:100AB000FF2122F0EFFBC0E90F52084B003A18BFAC
:100AC00001221A700368BDE87040D3F890301847CF
:100AD0004043020878430208C6430208362A012030
:100AE00008B5094B1B888B4203D8084B1B889342DF
:100AF00005D9074B074A0848A32122F0CBFB074B37
:100B00001980074B1A8008BD2C2A01202E2A0120AB
:100B10000B4402086E440208C6430208322A012030
:100B2000342A0120034690F87A0018B15868036807
:100B30001B68184770470000012108B500220846CD
:100B400006F034FC0A4B186028B90A4B0A4A2821DF
:100B50000A4822F09FFB00220421012006F0C5FC78
:100B6000074B186018B9074B034A2C21F0E708BD62
:100B7000C0030020B1440208FA44020829450208D3
:100B8000BC03002071450208024B4FF0FF3118688A
:100B900006F056BCC0030020014B186806F07CBC70
:100BA000C0030020024B0021186806F049BC00BFBA
:100BB000C0030020FFF7F0BF03480449006800238A
:100BC0001A4606F0CDBC00BFBC0300200400002084
:100BD00013B5084C00231A4601A9206806F0F1FC61
:100BE00020684FF0FF33002201A906F0EAFC02B0B2
:100BF00010BD00BFBC03002003685B6C18470120D8
:100C0000704703689B6A1847FEE740F2EF30704771
:100C1000054B0360054B4FF08062C3F88820BFF39B
:100C20004F8FBFF36F8F70475451020800E100E00F
:100C300010B504464FF45A61FFF7EAFF204621F051
:100C4000ABFB204610BD000082B0002301930E4B89
:100C50001A6B42F400021A631A6B02F4000201924A
:100C6000019A1A6942F400021A611A6922F4000218
:100C70001A61064B064A1A61064A5A61064B4FF042
:100C800080629A6002B0704700380240B01A0020BB
:100C9000E90E0008090C000800E100E008B50A2888
:100CA00009D8DFE800F006100E0808080810101038
:100CB0001000022008BD054B054A0648902122F08D
:100CC000E9FA0020F6E70120F4E700BFB345020887
:100CD000CE4502081946020838B50C46887FFFF752
:100CE000DDFFA58AE28A164B2169586342EA054274
:100CF0005A64628BD963521B1A642568082D0ED181
:100D00009A611A615862207F0E4A42EA0062DA61F3
:100D1000E2681A620C4A5961D9601A6038BD002233
:100D2000D8611A61E1680A0A480902F4784200F4BD
:100D3000FC600243C1F3C4010A439A63034AECE72F
:100D400000B002400900010001230200012303005A
:100D500008B50B280BD8DFE800F00612100A0A0AC3
:100D60000A0808080808022008BD0520FCE7054B12
:100D7000054A06486F2122F08DFA0020F4E7012091
:100D8000F2E700BFB34502085F46020819460208B1
:100D90002DE9F04191F81D800C464046FFF7D8FF41
:100DA000A77F05463846FFF7D3FF06463846FFF7CC
:100DB00075FFA18A628B444B521A1A649A61228B86
:100DC000521A1A61E28A586342EA01425A6421695E
:100DD0006268D963DA602068802828D0227F0FD823
:100DE000202867D0402865D004281AD0364B45EA21
:100DF000026545F40035B845DD6161D0334A44E011
:100E0000B0F5807F04D0B0F5007FEFD1304800E02E
:100E1000304840EA0262DA61E2681A625E62596151
:100E200032E045EA026242F40032DA61F6E7A06895
:100E3000021DDA62227F45EA026545F40035DD6174
:100E40005E625961017841B1012921D0224B234AC8
:100E500023484FF48D7122F01DFADA69418822F49B
:100E60007F42013922F0100242EA0122DA610121B7
:100E7000154BDA6942F02002DA61DA699206FCD495
:100E800010229A600029B9D0164A1A60BDE8F08194
:100E9000B2F1FF01DA69408822F47F4200F1FF30AD
:100EA00022F0100242EA002242F0100218BF012193
:100EB000DA61DDE745EA0262034B42F40032B4E74F
:100EC00042F20132E1E700BF00B00240012301001D
:100ED000090002000A000200A9460208C3460208EF
:100EE0001946020801230200024B1B685868036878
:100EF0005B691847382A012070B5044625460A4B1D
:100F00000C30002660602672667245F8203B602235
:100F1000294609F081FC04F55A63EE6024359D42B0
:100F2000FBD1204670BD00BF54510208034B1A6824
:100F3000D207FCD423229A60704700BF00B0024061
:100F40007047000030B50F4C2568ED07FCD4232511
:100F50000904A56041F001010225FF2B656361646E
:100F6000E0630AD00849656241EA0363E361074B25
:100F700022626061E060236030BDE561039BA36392
:100F8000034BF8E700B00240090001000100020035
:100F90000100030030B50E4C2568ED07FCD4232575
:100FA0001204A56042F001020225FF2B6563626412
:100FB000E063E16008D01B0643F00213E361054BD8
:100FC00065626061236030BD034BE3610123F9E793
:100FD00000B0024001000200020002FF30B50B4CDD
:100FE0002568ED07FCD4232512041B06A56043F4F5
:100FF0000033022542F0010265636264E063E16050
:10100000E361034B65626061236030BD00B0024064
:1010100001000200012070474020704700EB811062
:101020000830704700EB811008307047012070478E
:101030004FF4747070474FF4747303FB0100083071
:1010400070474FF4747303FB0100083070470120B0
:1010500070471020704700EB01100830704700EB1C
:10106000011008307047084601F0AEBD10B5034BC3
:101070000360044608F0FFF9204610BD0C52020838
:1010800010B50446FFF7F2FF2046482121F084F90D
:10109000204610BD10B5034B0360044608F0EBF981
:1010A000204610BDD851020810B50446FFF7F2FFE4
:1010B00020464FF4767121F06FF9204610BD0000F4
:1010C00010B5034B0360044608F0D5F9204610BD67
:1010D000A451020810B50446FFF7F2FF204618217C
:1010E00021F05AF9204610BD10B5084B03600446A4
:1010F00000F20440FFF7BAFF04F12C00FFF7CAFF2B
:1011000004F11400FFF7DCFF204610BD4052020836
:1011100008B50248FFF7E8FF08BD00BF9C12002099
:1011200010B50446FFF7E0FF204640F2AC5121F035
:1011300033F9204610BD00002DE9F34101F0DCF940
:10114000054601F0DDF900240146234628462246E3
:10115000009412F06FF8274B274A1A60204602F0DD
:10116000A9FC264D264B274A27489A6011F0CAFF52
:101170002B68BFF35B8FDB0735D4284621F00EF9CF
:1011800088B3224C224B236004F58A6604F11400D4
:1011900004F12C0804F204476060C4F80880E7609A
:1011A000266108F069F91B4B6361404608F064F959
:1011B000194BE362384608F05FF9184BC4F8043461
:1011C00004F24C4002F0FEFC224604F24C41304650
:1011D00002F0EEFC304601F0F7FC114822F078F8FE
:1011E000284621F0E7F80F4802B0BDE8F041FFF7CC
:1011F000E9BB00BF9C2A012048040020981200206F
:10120000680400204C040020080000209C120020EC
:1012100040520208A4510208D85102080C52020898
:1012200011110008C4030020704700000148FFF7B7
:10123000D7BB00BFC403002070B5264E264C274DF7
:10124000274B23603046FFF757FE284617F0F8F883
:1012500024480FF0E9FE244B2448DC6000224FF4C0
:101260008071C3E9121222491A86C3E91A12214970
:1012700083F85820C3E91E011F49C3F880101F4995
:101280001F480B60F021C3E90422C3E90622C3E929
:101290000822C3E90A22C3E90E22C3E91022C3E9E6
:1012A0001422C3E917225A6683F870205A67C3E9EB
:1012B000016501801348018013484FF4A07101803B
:1012C0001248018012490A70012283F83420114A21
:1012D0001A6070BDF40400209412002068040020FD
:1012E000304302084C040020C40300200000010128
:1012F00001000001000450001A001400382A0120E7
:101300002C2A0120322A01202E2A0120342A0120F1
:10131000302A0120685002080148FFF779BC00BF5D
:10132000F40400200020704781807047C18070471E
:10133000018170474181704770477047704770471F
:10134000704710B4C4880368121B84885B6D091B46
:1013500012B25DF8044B09B218474FF6FF73838150
:101360004FF0FF3303621368C361106070470020C1
:1013700070478B88838001207047704780F8261063
:10138000704790F82600704710B50022B1F9084068
:10139000B1F90A10028042808480C18010BD002211
:1013A000028042808280C28070470177704780ED62
:1013B000080A704780F82410704780F8251070479D
:1013C00001207047983070478C30704784307047E8
:1013D0007047704770470000034B902283F85A23F0
:1013E00083F85823704700BF00E100E0094A0A492A
:1013F000D3680A48C3F30A03013B9BB20B8011690F
:10140000C1F30A01013901801364536B43F00103F6
:1014100053637047006801404A18002048180020B4
:10142000014BD3F8AC00704700680140024B012229
:10143000C3F8AC105A6270470068014010B52C2107
:10144000044620F0A9FF204610BD10B5BC2104467B
:1014500020F0A2FF204610BD70B5044608F009FB3D
:1014600023689D6E0EF078FB01462046A84723684E
:10147000054AD3F88C502046AC460023BDE87040A6
:10148000A2F51631604700BF00B004D008F0D8BA0A
:1014900008F0E2BA08F09EBA08F00DBC90F82520DA
:1014A00012B103685B691847704790F825201AB19C
:1014B00090F8242002B1186070470000034B4FF0F1
:1014C00080629A604FF080729A60704700E100E09D
:1014D000084B4FF08062C3F88820BFF34F8FBFF3F3
:1014E0006F8F4FF08072C3F88820BFF34F8FBFF328
:1014F0006F8F704700E100E070B50023124E8380CB
:10150000124B0360336893F8582005460AB1D86C33
:1015100000B998680368DB6A98473368B0FA80F4CA
:10152000D86C640930B10368DB6A9847002808BFAB
:1015300044F001042CB9064B064A07482C2121F03F
:10154000A9FE284670BD00BF382A01205452020867
:10155000014702085F4702089847020870B5254E08
:101560003568BFF35B8F15F0010540D1304620F0A0
:1015700015FF00283BD0204C204B256104F134009E
:10158000C4E90035C4E90255E584A562A58510F0DB
:1015900030F804F158000AF0F3FD194BA36520461A
:1015A000184B40F8843BFFF7A7FF174BC4F8843073
:1015B0002433C4F88C304FF4C803C4E92835002321
:1015C000C4F8AC30C4F8B030C4F8B430C4F8B830A3
:1015D0000E480F4BC4F89050C4F89C50C4F8A85063
:1015E000C4F8983021F074FE304620F0E3FE024843
:1015F00070BD00BF4C18002050180020A85A0208E7
:1016000074520208EC5202085C5A0208D513000812
:101610003C5A020838B5184C23685BB3174B184A7C
:101620001B6C11888B4216D1164B198804F052FCA2
:10163000236893F86A200025013283F86A2083F832
:101640007C50FFF7B9FA206808F090FF2846BDE803
:101650003840FFF7F9B804F03DFC246823682046C1
:101660001B6A9847012384F87C300020BDE838408D
:10167000FFF714B938BD00BF382A012000680140C7
:101680004A1800204818002007B5064BADF80600A0
:101690001B68054801220DF1060105F0BBF903B0F6
:1016A0005DF804FB0C0000205C19002030B595B0FB
:1016B000102200210AA821F0F4FF1422002103A81F
:1016C00021F0EFFF00241E4B01941A6C42F080526F
:1016D0001A641B6C03F080530193019B194B029415
:1016E0001A6842F440421A601B6803F440430293B4
:1016F0000122029B4FF48033CDE9082302254FF4E9
:1017000080030821CDE90E534FF4B473CDE91013D3
:1017100008A804231393129504F034FC04F0F8FB9A
:101720000F23CDE903354FF4A0504FF48053CDE99A
:101730000603052103A8059404F000FE15B030BD92
:1017400000380240007000402DE980489DB0002420
:10175000C94DDFF85C8302F0E3FEFFF7A7FF142218
:1017600000210FA821F09DFF02942B6BC34843F08A
:1017700010032B632B6B03F010030293029B039463
:101780002B6B43F020032B632B6B03F0200303939D
:10179000039B04942B6B43F080032B632B6B03F0B0
:1017A00080030493049B05942B6B43F004032B6389
:1017B0002B6B03F004030593059B06942B6B43F0FE
:1017C00001032B632B6B03F001030693069B079425
:1017D0002B6B43F002032B632B6B03F00203079385
:1017E000079B08942B6B43F040032B632B6B03F098
:1017F00040030893089B09942B6B43F008032B6369
:101800002B6B03F00803224609933C21099B03F04C
:1018100059FD9B480122022103F054FD22469848BD
:10182000042103F04FFD224696484FF4405103F047
:1018300049FD01263C23CDE90F369048119403233E
:101840000FA90227129303F053FC8D480FA9CDE98D
:101850000F76CDE9114403F04BFC042388480FA90F
:10186000CDE90F36CDE9114703F042FC4FF4405368
:1018700084480FA9CDE90F36CDE9114703F038FCB4
:1018800001942B6B43F480032B632B6B7E4D03F48D
:1018900080032246052101933820019B03F052F971
:1018A000382003F081F97948794B036003F08AF915
:1018B000DFF800E2774B2C62C5E900E328464FF4DD
:1018C0008043C5E90434C5E90244C5E9064403F090
:1018D00007FF1021284604F04BF9214628466E4D9B
:1018E00004F065F94FF48273C5E900834FF4007981
:1018F0001823C5E9069328460A23C5E90244C5E929
:101900000444C5E90844AC62EB6205F027F88F2374
:10191000224639465A488DF82C308DF83C4003F069
:10192000D1FC32464FF47A730BA9284605F072F8C1
:101930004FF47A7332460FA9284605F017FA32465B
:1019400039464F48554D03F0BDFC9DF83C30D32B34
:1019500004BF534B1E70534B0126C5E900364FF0B0
:10196000100A40230024C5E904A34FF4C073C5E95D
:1019700006344FF40063C5E908344FF400534FF0C8
:10198000020904274FF00308AB620FA9072328467A
:10199000CDE90F93CDE911734FF0080BC5E902476C
:1019A000CDE91389CDF8549004F0BCFE4FF6FF72D8
:1019B0000BA92846CDE90CB60A940B960E9404F0B8
:1019C000D1FE304602F0D8FD4FF6FF720BA9284633
:1019D000CDE90B9BCDE90D6404F0C4FE4FF6FF7218
:1019E0000BA92846CDE90B8BCDE90D7404F0BAFEA6
:1019F0004FF40C730A930A9B0E934FF6FF720BA9D8
:101A00002846CDE90B7B0D9604F0ACFE40F26A51FE
:101A1000284604F0C5FE342221460FA821F041FEDD
:101A2000214D224B2C61C5E900340923C5E9053657
:101A30001D23C5E9073840F20D1240F24313C5E9F2
:101A4000092340F2171140F247132846C5E90B134A
:101A5000C5E90244AC8685F8364004F043F9FF211D
:101A6000F022CDE914144FF4806005214FF4A073E7
:101A7000CDE9160120E000BF00380240001002400E
:101A800000080240000C02405C1A0020F01A0020FE
:101A900000300240A08601005C19002028190020B7
:101AA0001C190020400100A0B4190020006801406A
:101AB00000500140005C0040CDE910240FA9CDE9A1
:101AC0001842284622463E4D1A93CDE912390F940A
:101AD000ADF86C408DF86E4004F0CFF9394B2B60B7
:101AE0001B6898472B68384DDB689847374B28466A
:101AF000C5E90034C5E90294C5E90A49C5E90C44C1
:101B000003F0FCF93146284603F0AEFA524621466E
:101B10000FA821F0C6FD2E4DDFF8DCC0AC604FF4FD
:101B20008033C5E900C328462A4BAB622E612E766E
:101B300085F82040EC62EC60EF6185F830606E6102
:101B400002F02EFD0FA92846CDE90F46119602F0AE
:101B500049FF0FA92846CDE90F6902F043FF0D2385
:101B60000FA92846CDE90F3802F03CFF0E230FA93C
:101B70002846CDE90F3702F035FFFEF799FDFEF755
:101B800096FD15493A46284602F0B0FD05F092FB55
:101B900022460C210A2005F0A8FC104B104A1860C0
:101BA0002146104805F0B2FB0F4B104A1860214641
:101BB0000F4805F0ABFB0F4B186005F08DFBFEE7FF
:101BC0000C19002014000020B01A002000B00240C0
:101BD000581B00200100000F1419002010190020CC
:101BE00054530208AD1D0008241900203053020888
:101BF000BF060008201900200020014070477047F0
:101C00007FB5094B8DF817201B6802930DF1170261
:101C10000123009201930A460146044803F008FE9E
:101C200007B05DF804FB00BF100000205C1A002024
:101C30007FB500238DF81730084B1B6802930A46C6
:101C400001230DF11701009101930146044803F0AF
:101C50007FFE9DF8170007B05DF804FB1000002020
:101C60005C1A00201FB5084C24680092CDE90134AD
:101C70000A4601230146054803F06AFE003818BFF2
:101C8000012004B010BD00BF100000205C1A00202D
:101C900002F072BC10B5064C00222046042103F06D
:101CA00011FB20460122BDE81040042103F00ABBCD
:101CB0000008024038B50B4D044601220A484FF493
:101CC000005103F0FFFA00220421284603F0FAFA3B
:101CD0002046FFF7D9FC28460122BDE83840042100
:101CE00003F0F0BA00080240000C024038B50B4D7A
:101CF000044600220A484FF4005103F0E3FA0022A0
:101D00000421284603F0DEFA2046FFF7BDFC2846F2
:101D10000122BDE83840042103F0D4BA0008024093
:101D2000000C0240F7B5144E144F05460C463046E1
:101D30000022042103F0C6FA00224FF40051384675
:101D400003F0C0FA2846FFF79FFC0D4B0D481B68B7
:101D5000224601A905F00AF8384601224FF4005145
:101D6000019C03F0AFFA30460122042103F0AAFAE5
:101D7000204603B0F0BD00BF00080240000C024046
:101D80000C0000205C19002002F0F6BB58B1064B95
:101D90001A8802805A8842809A88DB88C380002390
:101DA0008280038143817047141900201FB5074CBE
:101DB00001A8FFF7EBFF002301461A46206805F053
:101DC000CFFB2A2005F0E6FAF2E700BF1019002049
:101DD0000268034B9A4201D102F0BCBB704700BFBE
:101DE000001000407047000082B00E4B00220092AD
:101DF000596C41F480415964596C01F4804100915F
:101E000000990192196C41F0805119641B6C03F028
:101E100080530193019B0F216FF0010002B002F08B
:101E200091BE00BF0038024070B5064688B014224B
:101E3000002103A821F035FC32682C4B9A4253D183
:101E400003F58C33002500955A6C294842F48072C2
:101E50005A645A6C02F480720092009A01951A6BCF
:101E600042F004021A631A6B02F004020192019A12
:101E700002951A6B42F001021A631B6B03F0010317
:101E800002930324029B03A91823CDE9033403F032
:101E90002FF91848059503A9CDE9034403F028F963
:101EA000154C164B4FF48062C4E900354FF40063C3
:101EB000C4E904234FF400514FF480732046C4E971
:101EC0000255C4E90613C4E9085502F0A1FE08B1A1
:101ED000FFF788FFB463122000220521A66302F0F9
:101EE00031FE122002F060FE08B070BD00200140FB
:101EF0000008024000000240F81A0020106402406E
:101F00000268094B9A4282B00BD100230193074B20
:101F10001A6B42F480521A631B6B03F480530193D3
:101F2000019B02B0704700BF003002400038024001
:101F300007B50F4B02689A4216D10022A3F5F04371
:101F40000192196B41F4000119631B6B03F4000348
:101F5000019305215A20019B02F0F4FD5A2003B0A1
:101F60005DF804EB02F020BE03B05DF804FB00BF97
:101F700000B002402DE9F043044689B0142200214C
:101F800003A821F08EFB2268244B9A4243D1244CB3
:101F9000244800250095236B43F004032363236B3F
:101FA00003F004030093009B0195236B43F00103AE
:101FB0002363236B03F001030193019B4FF012098C
:101FC0004FF400734FF001080327042603A9CDE95D
:101FD0000339CDE90587079603F08AF84FF480733B
:101FE0001148079603A9CDE90339CDE9058703F028
:101FF0007FF80295236C43F400032364236C03F4FD
:1020000000030293029B236A43F400032362236AC2
:1020100023F40003236209B0BDE8F083005C0040B4
:10202000003802400008024000000240F0B599B0BC
:1020300004461422002107A821F033FB30220DEBC7
:102040000200002121F02DFB22685E4B9A4240F0F5
:10205000B78008230C93C0231093042312930CA879
:102060004FF40033159304F031FA08B1FFF7BAFECC
:10207000554B5648002400945A6C42F080625A64D2
:102080005A6C02F080620092009A01941A6B42F03E
:1020900020021A631A6B02F020020192019A029444
:1020A0001A6B42F001021A631A6B02F001020292EB
:1020B000029A03941A6B42F002021A631A6B02F03E
:1020C00002020392039A04941A6B42F040021A63CC
:1020D0001A6B02F040020492049A05941A6B42F0C3
:1020E00004021A631A6B02F004020592059A069420
:1020F0001A6B42F008021A631B6B03F00803069385
:1021000002250E26069B0B964FF4806307A9CDE9A6
:102110000735CDE9094502F0EBFF41F658032C489D
:102120000B9607A9CDE907350927CDE9094502F046
:10213000DFFF032327480B9707A9CDE90735CDE932
:10214000094502F0D5FF4FF4706322480B9607A9AA
:10215000CDE90735CDE9094502F0CAFF4FF40C631C
:102160001D480B9607A9CDE90735CDE9094502F0D1
:10217000BFFFC02319480B9607A9CDE90735CDE964
:10218000094502F0B5FF082315480B9607A9CDE9CC
:102190000735CDE9094502F0ABFF4FF4A0530E48D7
:1021A0000B9707A9CDE90735CDE9094502F0A0FF56
:1021B00058202246052102F0C5FC582002F0F4FC0C
:1021C00019B0F0BD00680140003802400014024020
:1021D00000000240000402400018024000080240D3
:1021E000000C024010B5044688B01422002103A858
:1021F00021F057FA2268144B9A4223D103F5684321
:10220000002101915A6C114842F480125A645A6CB0
:1022100002F480120192019A02911A6B42F020029C
:102220001A631B6B03F020030293029B4FF460724E
:1022300002230321CDE903230523CDE9061303A9D6
:1022400002F056FF08B010BD0050014000140240DB
:102250002DE9F04186B0002303932B4B1C68002C22
:102260004FD14FF00108C3F80080284B00949A6BBF
:10227000274842EA08029A639B6B03EA080300932B
:10228000022703260C25009B01A94FF63F03CDE949
:102290000137CDE9046502F02BFF1E48059501A921
:1022A000CDE90187CDE9034602F022FF48F233135E
:1022B0001948059501A9CDE90137CDE9034602F09A
:1022C00017FF4FF683731548059501A9CDE901372E
:1022D000CDE9034602F00CFF4CF20373104805955C
:1022E00001A9CDE90137CDE9034602F001FF6023E2
:1022F0000C48059501A9CDE90137CDE9034602F067
:10230000F7FE06B0BDE8F081A01B002000380240B7
:102310000014024000080240001802400010024071
:10232000000C02400004024070B588B00023029304
:10233000204B1A6C42F010021A641B6C03F010035D
:102340000293054601A903A8029B04F0A1F8069B8D
:102350004BBB04F08DF8184E184B336040F2E73356
:10236000F360174BB0FBF3F3013B7360304600237F
:102370003361B360B36104F0C9FE044680B93046EE
:1023800004F09AFD044658B9362002F00DFC0F2DDA
:102390000DD822462946362002F0D4FB094B1D6099
:1023A000204608B070BD04F063F84000D3E7012474
:1023B000F6E700BF00380240A41B002000100040D8
:1023C00040420F007C0000207047FEE7FEE7FEE77A
:1023D000FEE77047014802F036BA00BF581B0020E4
:1023E000014804F0A7BD00BFA41B0020014802F073
:1023F000C7BC00BFF81A0020014803F0E1BC00BFD1
:10240000B4190020014802F0A5BD00BFB01A002099
:102410000120704708B521F0E7F9162303604FF05B
:10242000FF3008BD08B521F0DFF916230360FEE791
:1024300070B50D4614460E46731B9C4201DC2046C7
:1024400070BDAFF3008006F8010BF5E770B50D46DF
:1024500014460E46731B9C4201DC204670BD16F8E4
:10246000010BAFF30080F5E74FF0FF3070474FF4FA
:1024700000534B60002070470120704700207047D8
:102480000A4A116808B5034609B90949116010687C
:10249000694603448B4206D921F0A6F90C23036058
:1024A0004FF0FF3008BD1360FCE700BFEC1B0020BD
:1024B00078370120704710B5042104461FF06CFFE7
:1024C000204610BD08B5032913D8DFE801F0020645
:1024D0000A0E01F03BFB006808BD01F037FB4068C5
:1024E000FAE701F033FB8068F6E701F02FFBC068E4
:1024F000F2E70020F0E70000004870478C53020824
:102500000720704713B5002451B1036801948DF87A
:10251000034001AA9C680DF10303A04702B010BD5F
:102520000846FBE7C0897047008A7047C08870473B
:1025300080887047807A00F07F007047807AC009F9
:1025400070470020704700009FED010A704700BFF0
:1025500000000000704710B5082104461FF01CFF62
:10256000204610BD7047704700F5987308684968A9
:1025700003C37047704770474160704770477047AA
:10258000064BC0F84C310023C0F8503100F5A2735F
:10259000C0F84801C0F84031704700BF012A000868
:1025A0000123037270477047704710B4C2684168D6
:1025B0005410034601EB6200D20748BF0A599B68DA
:1025C0005DF8044B48BFD35818470346406830B104
:1025D0009A681AB9D86800F0010070470120704766
:1025E00010B50C2104461FF0D7FE204610BD10B5D3
:1025F000102104461FF0D0FE204610BD10B54FF448
:10260000AE7104461FF0C8FE204610BD10B5402133
:1026100004461FF0C1FE204610BD10B50DF09CFA17
:102620000368BDE81040DB6B18470000054B1B78C2
:1026300001462BB1406818B103680C315B6E184736
:10264000704700BF372A0120037A70B50546BBB931
:1026500040680368DB69984704463CB968680368CA
:1026600005F10C011B6EBDE870401847A1886B8F07
:10267000C91A236820461B6B09B29847A469ECE786
:1026800070BD10B50446D0F8400158B10368DB684E
:10269000984738B1D4F8400103689B6898470023F5
:1026A000C4F8403110BD70B5044690F8390094F874
:1026B00038300130C0B2984284F8390005D901237E
:1026C0002372002384F8393070BDB4F93A20002118
:1026D0000FF01AFCC30706D500284FF6FF73C8BFDA
:1026E0000123184400B2238AC01AA08760680368D7
:1026F000DB69984705462DB960680368BDE87040FE
:102700005B691847A988A38F19442B6828461B6B5F
:1027100009B29847AD69EEE72DE9F14FD0E9556A66
:102720000746B06803681B6A9847B0F5747F05D206
:10273000444B454AA321454820F0ACFD706803682E
:102740001B6A98470F2803D8414B3F4AA421F2E760
:10275000F06803681B6A98470B2803D83D4B3A4A38
:10276000A521E8E70DF0F8F9DFF8F09004300DF05E
:1027700018FAD9F8000010B10368DB689847D9F857
:10278000000010B103681B689847DFF8D480D8F8C0
:10279000000010B103685B699847D7F83C0110B19D
:1027A00003685B689847D8F8000010B103681B689D
:1027B0009847D7F83C0110B103689B689847F068C8
:1027C000036800215B6A98474FF0000B224BC0F86A
:1027D00004B0044680F808B00360B0680368594646
:1027E0005B6A9847054601F05DFA706803685946D0
:1027F0005B6A98472946064601F032FA331DC7F84E
:102800003C61C9F80040C8F80050CAF800302B6895
:10281000C6F808A02846DB68EE6398473368304660
:102820001B689847214628460FF068FB236820461E
:102830001B69984723685B69204601B0BDE8F04FEB
:10284000184700BF0F4802089D4802086F49020858
:10285000B6490208594A02089C540208802A0120FD
:102860007C2A01202DE9F14FD0E9556A0746B0686E
:1028700003681B6A9847FF2805D8564B564AA32180
:10288000564820F007FD706803681B6A98470F28B8
:1028900003D8534B504AA421F2E7F06803681B6A3F
:1028A00098473F2803D84F4B4B4AA521E8E70DF046
:1028B00053F9DFF8449104300DF073F9D9F80000B2
:1028C00010B10368DB689847D9F8000010B10368BD
:1028D0001B689847DFF82481D8F8000010B103681E
:1028E0005B699847D7F83C0110B103685B6898476B
:1028F000D8F8000010B103681B689847D7F83C016E
:1029000010B103689B689847F068036800215B6A10
:10291000984705460023344A4360037245F80C2B60
:10292000044628460AF040FA142222872F4A1278D9
:102930000023A387002A35D101232372B0680368DE
:1029400000215B6A9847054601F070F970680368DA
:1029500000215B6A98472946064601F045F9331D78
:10296000C7F83C61C9F80040C8F80050CAF8003008
:102970002B68C6F808A02846DB68EE6398473368E2
:1029800030461B689847214628460FF0B7FA23685F
:1029900020461B69984723685B69204601B0BDE863
:1029A000F04F18471249134AB1F900B0E1682361AA
:1029B00028468B6BB2F900109847E3685946DB6BE9
:1029C0002846984728460AF06AF90A4A13885B4263
:1029D0006387B3E70F480208FC4A02086F49020800
:1029E000B6490208594A0208C0540208372A012091
:1029F0002E2A01202C2A0120802A01207C2A012055
:102A00002DE9F14FD0E9556A0746B06803681B6AA3
:102A10009847FF2805D8444B444AA321444820F056
:102A200039FC706803681B6A98470F2803D8414B2C
:102A30003E4AA421F2E7F06803681B6A98470B2816
:102A400003D83D4B394AA521E8E70DF085F8DFF8BA
:102A5000F09004300DF0A5F8D9F8000010B103682B
:102A6000DB689847D9F8000010B103681B689847E5
:102A7000DFF8D080D8F8000010B103685B69984790
:102A8000D7F83C0110B103685B689847D8F800009C
:102A900010B103681B689847D7F83C0110B1036870
:102AA0009B689847F068036800215B6A98474FF07D
:102AB000000B224BC0F804B0044680F808B0036055
:102AC000B068036859465B6A9847054601F0AEF85E
:102AD0007068036859465B6A98472946064601F0C4
:102AE00083F8331DC7F83C61C9F80040C8F80050AE
:102AF000CAF800302B68C6F808A02846DB68EE63E9
:102B00009847336830461B689847214628460FF09F
:102B1000F5F9236820461B69984723685B692046BE
:102B200001B0BDE8F04F18470F480208E14B02081A
:102B30006F490208B6490208594A02089C54020823
:102B4000802A01207C2A0120044B1B6893F858201E
:102B50000AB1D86C00B99868704700BF382A0120C4
:102B6000F8B5174604460E460DF0B8F8124B1C6037
:102B7000124B2360124B0025C4E95135114BC4E9B7
:102B800053551868036829469B68C4E94F55C4E942
:102B900055769847284600F08DFFFFF7D5FF17F0D0
:102BA000F8FAFFF7D1FF17F06FFBFFF7CDFF17F033
:102BB00077FB2046F8BD00BF8C2A0120485402084C
:102BC00030540208382A0120064BC0F84C3100234B
:102BD000C0F8503100F5A273C0F84801C0F8403188
:102BE000704700BF012A0008064BC0F84C31002393
:102BF000C0F8503100F5A273C0F84801C0F8403168
:102C0000704700BF65280008064BC0F84C31002310
:102C1000C0F8503100F5A273C0F84801C0F8403147
:102C2000704700BF19270008406A7047806A7047E4
:102C300070478A880B8810B5D20A4C88C1699BB24C
:102C400051F8220043EA0443184410BD10B504466D
:102C5000BAB1107B68B1537BD27A1B0203F4E063F4
:102C60001A43236A03EB82031A888A4202D193F93A
:102C7000020010BD05D8013880B204330028F3D11A
:102C8000F7E70020F5E710B52C2104461FF084FB80
:102C9000204610BD30B58BB00446BDF86050089595
:102CA000BDF85C5007959DF8505006959DF84C5026
:102CB00005959DF8485004959DF8445003959DF85E
:102CC000405002959DF83C500195BDF83850009554
:102CD0000EF04CFD064B2360159BE361169B2362AF
:102CE000199B63621A9BA36220460BB030BD00BFE4
:102CF000E45402087047704770477047704730B51A
:102D0000036885B06D460181D3F8843001460446DE
:102D10002846984795E807003C3484E8070005B04A
:102D200030BD30B5036885B06D464181D3F884303D
:102D3000014604462846984795E807003C3484E855
:102D4000070005B030BD0022028042808280C28030
:102D5000704780F83610704770B5036804461B6BE7
:102D6000154698472368294620465B6EBDE87040AB
:102D70001847806C7047C06C704770477047704749
:102D80007047704730B4C26844685510034604EB7E
:102D90006200D20748BF62599B6830BC48BFD35815
:102DA00018470346406830B19A681AB9D86800F0ED
:102DB000010070470120704710B5502104461FF0F4
:102DC000EBFA204610BD10B5102104461FF0E4FABE
:102DD000204610BD10B54FF4807104461FF0DCFA98
:102DE000204610BD08B5FEF759FB08BD036870B555
:102DF0005E6B124B1B6804468DB22BB9104B114A07
:102E00006C21114820F046FA1049828D09889142C0
:102E100003D80F4B0B4A6D21F3E713F812200D4B2B
:102E20001B6853F8220003681B6B9847291A334626
:102E3000204609B2BDE87040184700BF902A012023
:102E4000B34C0208F54C0208304D0208942A0120C8
:102E5000774D0208982A012000F16C038B4210B5CF
:102E6000044609D10CF078FEFFF7CEFE2368204619
:102E7000DB6ABDE81040184710BD00224FF0FF315B
:102E8000C0E900218260704770B5036804461B6B7F
:102E9000154698472368294620465B6BBDE870407D
:102EA000184700000022C0E90122C0E90322C0E95E
:102EB0000522C0E907224FF480728284014A026031
:102EC000704700BF4C5502082DE9F04F044689B009
:102ED000264600250EF066FE6B4BE56346F8403B48
:102EE00029462622304620F0DCFB3046FFF7DAFF89
:102EF000664B236404F16C08FF23294684F866308E
:102F00002622A566404620F0CCFB4046FFF7CAFFCC
:102F10004FF6FF795E4BE36604F1A0074FF0010B1B
:102F200029462622C4F8945084F89850A4F89A9020
:102F3000A4F89C9084F89E9084F890B0384620F0D5
:102F4000B0FB3846FFF7AEFF4FF47F03C4F8D43030
:102F5000504BC4F8A0304FF0FF33C4E938354E4B26
:102F6000DFF858A1A4F8CC90C4E93C344B4BC4F82A
:102F7000D0502A46C4E93E352946C4E93A55A4F85A
:102F8000D850C4F8DC503046C4F8C8A0FFF77CFF26
:102F90004FF4A0713046FEF7CBF9F0213046FEF732
:102FA000C9F904F104094FF07F43A366314648464E
:102FB00006F074FA404678222821FFF765FF06AA3A
:102FC000404605A9ADF81450ADF818B00AF074F8F1
:102FD00004F1F003C4F894304146484606F05EFA26
:102FE0003F2228213846FFF74FFF2D4BC4F8D03041
:102FF000D4F8A030A4F8D4506D46D3F88430DFF86C
:10300000C08039462846984795E8070004F1DC035C
:1030100083E80700D8F800302BB9224B224A602100
:10302000224820F037F9224E3388072B03D8214B52
:103030001D4A6121F4E7204D0721286800F076FD44
:10304000D8F80030C4F8E800002BE6D03388062B0F
:10305000EDD90621286800F069FDC4F8EC00384677
:1030600009F0ACFF082306A93846ADF81C30CDF8AE
:1030700018A009F0C3FF4846394606F00FFA20466B
:1030800009B0BDE8F08F00BF5C560208F05C020892
:10309000585D0208B455020844560208592E00082B
:1030A0000000FFFFB34C0208B54D0208304D020886
:1030B000942A0120774D02089C2A012020540208FE
:1030C000902A0120806A704700207047806C70470A
:1030D0007047704770477047704730B4C2684468A3
:1030E0005510034604EB6200D20748BF62599B6843
:1030F00030BC48BFD35818470346406830B19A687F
:103100001AB9D86800F0010070470120704790F8A4
:103110002D3080F8603070470146383091F82C30FF
:1031200013B136310AF001B93431FBE710B564212F
:1031300004461FF031F9204610BD10B54C2104465D
:103140001FF02AF9204610BD10B5102104461FF0CB
:1031500023F9204610BD10B54FF4687104461FF0E6
:103160001BF9204610BD10B50446006B50B1036832
:10317000DB68984730B1206B036821469B68BDE847
:103180001040184710BD0B7970B590F82C600446BC
:103190000D460BB916B170BD002EFCD0B3FA83F307
:1031A0005B0984F82C3023682046D3F88C3098478C
:1031B000236820465B699847002EECD02B79012BC1
:1031C000E9D123682046D3F88830BDE8704018471D
:1031D0009830884208B505D10CF0BEFCBDE8084027
:1031E000FFF702BD08BD0B882DE9F04183861388E7
:1031F000B0F90850C38604461046904610F02EF8E9
:10320000B4F90A30074603EBD3734046C3F34F06C5
:1032100010F058F805EBD575C5F34F0500EBD070ED
:1032200007EBD777A6EB6002A5EB670104F1380046
:1032300012B209B2FFF728FE23682046D3F88C307B
:10324000BDE8F041184770B504461D46BDF9106051
:10325000FFF71AFE2368294620469B6B9847236890
:1032600031462046DB6BBDE87040184738B5262252
:1032700004460D46002120F014FA2046FFF712FE06
:10328000064B23602B88E384FF23204684F82830F4
:1032900029460AF04AF8204638BD00BFCC5D020836
:1032A00010B526220446002120F0FBF92046FFF746
:1032B000F9FD0A4BA3624FF6FF73A3854FF47F021B
:1032C0000023C4E90C32064A226023874FF0FF3204
:1032D000C4E91023E363A364204610BD2054020810
:1032E000945602082DE9F04F2DED028B04468FB065
:1032F000A04600250EF056FC714BE56348F8403BB4
:1033000026222946404620F0CCF94046FFF7CAFD68
:103310006C4B236404F16C0BFF234FF6FF7784F8AA
:1033200066300CA95846A566ADF83070FFF79EFFD1
:103330004FF47F43A4F8C43040F20113A4F8BC302A
:10334000614BC4F8983004F1D0064FF0FF3304F11C
:10335000980AC4F8CC300CA93046C4E92755C4E912
:103360002955C4E92B55C4E92D55C4F8C050C4F8FB
:10337000C850ADF8303004F1FC09FFF777FF314653
:10338000504606F08BF84846FFF78AFF04F5A47311
:1033900018460493FFF784FF04F5CA731846059393
:1033A000FFF77EFF04F5F0730CA918460293ADF801
:1033B000307008F0D3FF04F51C7318460CA904F50F
:1033C00040760393ADF8307008F0C8FF0CA9304682
:1033D000ADF8307008F0C2FF3C4BC4E9E4343C4B1C
:1033E000C4E9E635F0232A464046009329464FF4C7
:1033F000A073FFF728FF271D4FF07F43A3664146C8
:10340000384606F04BF82A4658462946FFF73CFD59
:103410004FF0020858460CA9ADF8308009F085FF3E
:103420005946384606F03AF84FF0030350460CAAC6
:103430000BA9ADF82C30ADF83030FFF7D4FE04F511
:103440006473C4F8C83020232A465046C4F8D450C8
:1034500029460093FFF7F7FE5146384606F01EF85E
:10346000102200921B2390214846FFF7ECFE4FF0FC
:10347000FF33C4F82C31D4F8FC30A4F830510DF1EE
:10348000180AD3F88430DFF860B0494650469847B0
:103490009AE8070004F59C7383E80700DBF8003026
:1034A0002BB90C4B0C4A60210C481FF0F3FE0C4B5F
:1034B0001B88022B1AD80B4B074A6121F4E700BF87
:1034C000DC570208F05C020824570208C4570208BF
:1034D000D1310008B34C0208B54D0208304D020846
:1034E000942A0120774D0208902A0120B14B4146D1
:1034F0001868DFF8D88200F019FB4FF00502C4F815
:1035000044010CA94846ADF83420CDF8308009F0CC
:1035100075FD494638464FF0170905F0BFFF2622D2
:103520000498CDF800900F23AB21FFF78CFED4F860
:103530004831A4F87C514FF0FF31D3F88430C4F8FF
:1035400078115046049998479AE8070004F5C27329
:1035500083E80700DBF80030002BA2D0964A1388DE
:10356000002BA8D0934B2946186800F0DFFA4FF0E3
:103570000401C4F890010CA8ADF834100146049879
:10358000CDF8308009F03AFD0499384605F086FF01
:1035900026220598CDF800900F238121FFF753FED6
:1035A000D4F894310599D3F88430A4F8C8514FF079
:1035B000FF30C4F8C401504698479AE8070004F564
:1035C000E87383E80700DBF80030002B3FF469AFB5
:1035D000794A1388012B7FF66EAF764B9FED778A81
:1035E0001868DFF8EC91DFF8ECA1DFF8ECB101210D
:1035F00000F09CFA4FF00303ADF834300CAB1946E1
:10360000C4F8DC010598CDF8308009F0F7FC059985
:10361000DFF8C881384605F041FF02989222372131
:10362000FFF732FC0CAB4FF0050219460298ADF8DB
:10363000302009F035F8624BC4F8E8314FF07F5381
:10364000C4F81032029884ED838A08F0D3FEB7EEF6
:10365000000A029809F035F80298C4F8389208F088
:10366000C9FE0298C4F824B2C4F828A2C4F82C9267
:1036700008F0C0FE0298C4F830B2C4F834A208F0D2
:10368000B9FEB0EE481AF0EE480AB0EE480A0298C9
:1036900009F00FF8029984F80952384605F0FEFE49
:1036A000B92203989721FFF7EFFB4FF0040103982D
:1036B000ADF830100CA908F0F3FF4FF00F13C4F869
:1036C0007832039884EDA78A84EDA88A08F092FEE8
:1036D000B7EE000A039808F0F4FF0398C4F8C89204
:1036E00008F088FE0398C4F8B482C4F8B882C4F81D
:1036F000BC9208F07FFE0398C4F8C082C4F8C4826C
:1037000008F078FEB0EE481AF0EE480AB0EE480A2B
:103710000398DFF8CC8008F0CCFF039984F8995225
:10372000384605F0BBFE92223046EC21FFF7ACFB99
:103730000CA906233046ADF8303008F0B1FF214B1C
:10374000C4F80833204BC4F82C33304684EDCC8ABF
:1037500008F050FEB7EE000A304608F0B2FF3046DF
:10376000C4F8589308F046FE3046C4F84483C4F8C1
:1037700048A3C4F84C9308F03DFE3046C4F850838B
:10378000C4F854A308F036FEB0EE481AF0EE080A6A
:10379000B0EE480A304608F08CFF384684F82953CA
:1037A000314605F07BFE20460FB0BDEC028BBDE834
:1037B000F08F00BF9C2A0120942A01200000000005
:1037C000280036001E0036000000A0C02054020869
:1037D00000007A440000D8410000A0410000F04001
:1037E000000070417047000030B5164D2C6814F091
:1037F00001048FB0BFF35B8F20D128461EF0CEFDB1
:10380000E0B13F230993104B0893104B1049114826
:103810000A940122CDE906430423CDE903320A23A9
:103820000093CDE90B44CDE901440594FFF732FA4A
:1038300009481FF04DFD28461EF0BCFD05480FB09D
:1038400030BD00BFF01B0020E86C0208F86C0208D5
:10385000386C0208F41B0020E537000870470000B0
:1038600030B5164D2C6814F001048FB0BFF35B8F98
:1038700021D128461EF092FDE8B13F230993104B59
:103880000893104B104911480A94CDE906430122D0
:103890000423CDE903320C2300930322CDE90B442A
:1038A000CDE901440594FFF7F5F909481FF010FD33
:1038B00028461EF07FFD05480FB030BD201C0020BB
:1038C000EC6C0208FC6C0208486C0208241C002006
:1038D0005D3800087047000030B5164D2C6814F0B4
:1038E00001048FB0BFF35B8F20D128461EF056FD38
:1038F000E0B13F230993104B0893104B1049114836
:103900000A940122CDE906430423CDE9033228239A
:103910000093CDE90B44CDE901440594FFF7BAF9D2
:1039200009481FF0D5FC28461EF044FD05480FB09D
:1039300030BD00BF501C0020F06C0208006D020872
:10394000746C0208541C0020D53800087047000031
:1039500030B5174D2C6814F001048FB0BFF35B8FA6
:1039600022D128461EF01AFDF0B13F230993114BD6
:103970000893114B07930223CDE905430122042349
:10398000CDE9033216230D4900930722CDE90B44FC
:10399000CDE901440A480A94FFF77CF909481FF071
:1039A00097FC28461EF006FD05480FB030BD00BF4D
:1039B000801C0020F46C0208046D0208846C02086C
:1039C000841C00204D3900080020704700207047FB
:1039D0000EB403B503AB002153F8042B01930DF093
:1039E00043F902B05DF804EB03B070470CB407B5BF
:1039F00004AB53F8042B01930DF036F903B05DF8D6
:103A000004EB02B070470000436C10B5044673B37A
:103A1000038F2BB9184B194AC52119481FF03AFCDE
:103A2000C38E00EB43035B8C0BB30EF0DAFF238FE6
:103A3000012B03D8134B144ACB21EEE7E28E531C23
:103A40009BB2092B194688BFA3F10A0104EB41017F
:103A500040F63F10498C814209D10A2B04EB420207
:103A600028BF002304EB4303508C58845184204624
:103A7000BDE810400EF0B8BE004E0208094E020824
:103A8000B44E0208FE4E02080C4F02080EF073BE40
:103A900010B586B002AC84E806001A460AAB05935E
:103AA0000193099B00932146089B0BF0D7FB06B0BE
:103AB00010BD000038B518BB124B13481C681349E1
:103AC000B4B1226822440260626822440A60A2689B
:103AD00014440F4B00221A8000F038F8054600F01D
:103AE00033F80C4B1C600C4B1D600C4B188007E02E
:103AF0000B4B03600B4B0B600B4B1C68002CE8D18D
:103B000038BD00BFBC1C0020B41C0020B01C00202D
:103B1000B81C0020902A0120982A0120942A012014
:103B20002C6D0208086D0208486D0208044B1B68E2
:103B300053F82100034B1B6803EB4000704700BFA4
:103B4000B01C0020B41C00200920704700487047BA
:103B5000C01C002010B5FFF783FE064C2060FFF765
:103B6000BBFE6060FFF740FEA060FFF7F1FEE06083
:103B700010BD00BFC01C002010B5002404600C6004
:103B800014601C6010BD704710B54FF4AE71044650
:103B90001EF002FC204610BD10B50446D0F85801B6
:103BA00000F013F82046BDE810400CF057B80000B4
:103BB00010B50446FEF7D4FF014B2360204610BD2C
:103BC000105802080022026070477047704704389E
:103BD0007047704710B5102104461EF0DDFB2046EB
:103BE00010BDA0F10400F5E700228260024A0260E5
:103BF00018324260C1607047645802087047000084
:103C000010B5034B03600446FFF7BAF8204610BD19
:103C10008C58020810B50446FFF7F2FF20464FF417
:103C200080711EF0B9FB204610BD000010B504469F
:103C3000FFF74AF9014B2360204610BD8C5802085B
:103C4000FFF79FB8704704387047704710B51021D0
:103C500004461EF0A1FB204610BDA0F10400F5E7CC
:103C600000228260024A026018324260C1607047DE
:103C7000C45802087047000010B5034B03600446A7
:103C8000FFF729FA204610BDEC58020810B504468B
:103C9000FFF7F2FF20464FF474711EF07DFB2046C3
:103CA00010BD000010B50446FFF71CFB014B23605C
:103CB000204610BDEC58020890F8C83343B1054BBC
:103CC000C0F8C033002380F8C833012380F8CA331A
:103CD000704700BF000070C190F8C93343B1054B75
:103CE000C0F8C433002380F8C933012380F8CB33F4
:103CF000704700BF000070C11FB504463048002364
:103D000000681A4601A903F05CFCB8BBBDF804309A
:103D100040F65822934233D9D4F8A0330333B3F595
:103D20008C7FC8BF4FF48C73C4F8A033BDF8062055
:103D300040F20B639A4232D894F8CC335BB3012241
:103D4000BDF8083040F658218B422AD9D4F8A83360
:103D50000333B3F5917FC8BF4FF49173C4F8A83310
:103D6000BDF80A1040F20B63994227D894F8CD337E
:103D700003B3012384F8CC2384F8CD3304B010BD01
:103D8000B3F5B56FD2D2D4F8A033033B58BF184671
:103D9000C4F8A003CAE72046FFF78EFFCFE7002252
:103DA000CEE7B3F5B56FDBD2D4F8A833033B48BFF9
:103DB0000023D3E72046FFF78FFFDAE70023D9E798
:103DC0001019002010B50446FFF786F99223372119
:103DD000EC22C4E9E813C4E9EA23C4E9EC13C4E91A
:103DE000EE230023C4F8C033C4F8C43340F20113F7
:103DF000C4F8C8330023A4F8CC3310BDF0B590F854
:103E0000CA3385B0044613B990F8C833FBB9D4ED72
:103E1000F07A9FED5D7AD4F8A42377EE877AC4ED2B
:103E2000F07AFDEEE77A17EE903A1344912BC4F83E
:103E3000A43340F39D809223C4F8A4330023C4F834
:103E4000C033012384F8C833002384F8CA3394F8BC
:103E5000CB3313B994F8C933F3B9D4EDF17A9FEDAC
:103E60004A7AD4F8AC2377EE877AC4EDF17AFDEE86
:103E7000E77A17EE903A1344912BC4F8AC337BDD0C
:103E80009223C4F8AC330023C4F8C433012384F86C
:103E9000C933002384F8CB33D4F8B033D4F8A0234B
:103EA0009A426DD1D4F8A423D4F8B413521A18BF8F
:103EB0000122D4F8A803D4F8B813884262D1D4F808
:103EC000AC53D4F8BC136D1A18BF01252AB3D4F82B
:103ED000B4232E4F0197261D053B053A694630460F
:103EE000ADF80030ADF802200DF03AF8B4F9A42393
:103EF000B4F9A01304F5F070FEF7C6FFD4F8A033B0
:103F000003975A1FD4F8A433ADF80820053B02A943
:103F10003046ADF80A300DF023F83DB3D4F8B8338D
:103F20001B4E01965A1FD4F8BC33ADF80020251D56
:103F3000053B69462846ADF802300DF011F8B4F99A
:103F4000AC23B4F9A81304F54070FEF79DFFD4F834
:103F5000A83303965A1FD4F8AC33ADF80820053BBC
:103F600002A92846ADF80A300CF0FAFF05B0F0BD02
:103F7000002384F8C8336AE7002384F8C9338BE749
:103F8000012296E70125A1E7CDCC4C3F320040004D
:103F90002800400010B5D0F8A033C0F8B033D0F8F6
:103FA000A433C0F8B433D0F8A833C0F8B833D0F88D
:103FB000AC33C0F8BC330446FFF79EFE2046BDE894
:103FC0001040FFF71BBFF02070474FF4A070704700
:103FD0002920FDF78BBE2820FDF788BE08B5FDF728
:103FE00059FECA20FDF782FEC320FDF763FE0820BC
:103FF000FDF760FE5020FDF75DFECF20FDF776FE59
:104000000020FDF757FEC120FDF754FE3020FDF7DC
:1040100051FEED20FDF76AFE6420FDF74BFE032004
:10402000FDF748FE1220FDF745FE8120FDF742FE18
:10403000E820FDF75BFE8520FDF73CFE0020FDF744
:1040400039FE7820FDF736FECB20FDF74FFE3920F4
:10405000FDF730FE2C20FDF72DFE0020FDF72AFE97
:104060003420FDF727FE0220FDF724FEF720FDF7A0
:104070003DFE2020FDF71EFEEA20FDF737FE002062
:10408000FDF718FE0020FDF715FEB120FDF72EFE0E
:104090000020FDF70FFE1B20FDF70CFEB620FDF7FC
:1040A00025FE0A20FDF706FEA220FDF703FEC02034
:1040B000FDF71CFE1020FDF7FDFDC120FDF716FEEB
:1040C0001020FDF7F7FDC520FDF710FE4520FDF798
:1040D000F1FD1520FDF7EEFDC720FDF707FE90204E
:1040E000FDF7E8FD3620FDF701FEC820FDF7E2FDF3
:1040F000F220FDF7FBFD0020FDF7DCFDB020FDF711
:10410000F5FDC220FDF7D6FDB620FDF7EFFD0A2034
:10411000FDF7D0FDA720FDF7CDFD2720FDF7CAFD57
:104120000420FDF7C7FD2A20FDF7E0FD0020FDF784
:10413000C1FD0020FDF7BEFD0020FDF7BBFDEF2017
:10414000FDF7B8FD2B20FDF7D1FD0020FDF7B2FDF6
:104150000020FDF7AFFD0120FDF7ACFD3F20FDF78E
:10416000A9FDF620FDF7C2FD0120FDF7A3FD00200B
:10417000FDF7A0FD0620FDF79DFD2C20FDF7B6FD07
:10418000C820FDF701FE2620FDF7B0FD0120FDF758
:1041900091FDE020FDF7AAFD0F20FDF78BFD292002
:1041A000FDF788FD2420FDF785FD0C20FDF782FD3D
:1041B0000E20FDF77FFD0920FDF77CFD4E20FDF769
:1041C00079FD7820FDF776FD3C20FDF773FD092091
:1041D000FDF770FD1320FDF76DFD0520FDF76AFD6D
:1041E0001720FDF767FD1120FDF764FD0020FDF7A6
:1041F00061FDE120FDF77AFD0020FDF75BFD162053
:10420000FDF758FD1B20FDF755FD0420FDF752FD7D
:104210001120FDF74FFD0720FDF74CFD3120FDF784
:1042200049FD3320FDF746FD4220FDF743FD052003
:10423000FDF740FD0C20FDF73DFD0A20FDF73AFD9E
:104240002820FDF737FD2F20FDF734FD0F20FDF767
:1042500031FD1120FDF74AFDC820FDF795FD29200D
:10426000FDF744FDBDE808402C20FDF73FBD08B533
:10427000FDF710FD0321D320FDF754FD80B208BDEA
:1042800010B5C4B2022203212046FDF7B9FC0A2072
:10429000FDF7FEFC204600220321FDF7B1FCBDE83E
:1042A00010400220FDF7F4BC38B50446E4B2FDF737
:1042B000A5FC00212046FDF7BBFC01210546204658
:1042C000FDF7B6FC40EA052080B238BD10B5C4B297
:1042D00040212046FDF7ACFC030607D54C212046C3
:1042E000FDF7A6FC003818BF012010BD01224B21AC
:1042F0002046FDF785FC204600224B21FDF780FC7F
:104300000020F2E773B50423C4B20E461546D72148
:104310000DEB03022046FDF7A5FC019B1BBA1A0D0D
:10432000C3F30B23328020462B8001224B21FDF763
:1043300067FC00224B212046FDF762FC02B070BDF5
:1043400010B50A4A1378984204460DD05178884235
:104350000AD00BB141B90123D454FDF74FFC2046DC
:10436000BDE81040FFF78CBF10BD00BFD01C00207F
:1043700010B5C4B209212046FDF75AFC40F00102F5
:10438000D2B220460921BDE81040FDF739BC10B576
:10439000C4B209212046FDF74BFC092100F0FE02C2
:1043A0002046BDE81040FDF72BBC38B5C4B20D4621
:1043B00020460A21FDF73CFC40EA0502D2B2204625
:1043C0000A21BDE83840FDF71BBC10B50446FDF7D7
:1043D00016FC20461F21FFF7E8FF2046BDE81040ED
:1043E000FFF7C6BF38B5C4B20D4620460A21FDF717
:1043F0001FFC20EA0502D2B220460A21BDE838405F
:10440000FDF7FEBB10B50446FFF7C1FF20461F2194
:10441000BDE81040FFF7E6BF10B5C0B20C460B2157
:10442000FDF706FC204010BD1F21FFF7F5BF0A462F
:10443000C0B20B21FDF7E4BB1F21FFF7F8BF38B571
:10444000C4B20D4620461721FDF7F2FB20EA050213
:10445000D2B220461721BDE83840FDF7D1BB70B578
:10446000C4B2064604212046FDF7E2FB042100F019
:10447000FB0205462046FDF7C3FB3046F021FFF75F
:10448000DEFF05F0F80220460421FDF7B9FB4922C2
:1044900020212046FDF7B4FB0220FDF7F9FB204662
:1044A00001222121FDF7ACFB20469A224121FDF794
:1044B000A7FB204601224A21FDF7A2FB204601224C
:1044C0004B21FDF79DFB204600224B21FDF798FB79
:1044D000204601225621FDF793FB20460122582158
:1044E000FDF78EFB204601224021FDF789FB204687
:1044F000FF220B21FDF784FBBDE870400220FDF791
:10450000C7BB0000054BD3F8882042F47002C3F803
:1045100088204FF000629A60704700BF00ED00E015
:1045200008B50B4B1A6842F400721A601A6842F41C
:1045300080621A601A6842F480721A60032000F0E8
:10454000EFFA0020FDF7F0FEFDF74EFC002008BD5D
:10455000003C0240034A044B11681B780B44136073
:10456000704700BFD41C002078000020014B186861
:10457000704700BFD41C002038B50446FFF7F6FF93
:10458000631C1CBF054B1B78054618BFE418FFF7DA
:10459000EDFF431BA342FAD338BD00BF78000020D3
:1045A00038B50446002800F09B80056C25B9FDF75E
:1045B0003BFC656484F83C50236CDB0600F18E8084
:1045C000236C23F4885323F0020343F00203236493
:1045D000444B5A6822F440325A605A6861680A4370
:1045E0005A60236821695A6822F480725A605A68B6
:1045F00042EA01225A605A68A16822F040725A6069
:104600005A680A435A609A68E16822F400629A6024
:104610009A680A439A603449A26A8A4252D09968D9
:1046200021F07061996099680A439A609A68E16A1A
:1046300022F040529A609A680A439A609A6822F07F
:1046400002029A609A68217E42EA41029A6094F8D6
:104650002020002A3ED05A68616A42F400625A6003
:104660005A6822F460425A605A68013942EA41327B
:104670005A60DA6AE16922F47002DA62DA6A0139B0
:1046800042EA0152DA629A6822F400729A609A68E9
:1046900094F8301042EA41229A609A68616922F4E3
:1046A00080629A609A68002042EA81229A6060647F
:1046B000236C23F0030343F001032364002384F8F5
:1046C0003C3038BD9A6822F070629A609A6822F095
:1046D0004052B2E75A6822F40062C9E70120EDE7D0
:1046E0000120EEE7002301400100000F37B513461B
:1046F0000022019290F83C20012A044600F08880B4
:104700000568012280F83C20AA68D00752D5AA6823
:10471000D20562D4AA68D00771D5206C20F4E0607D
:1047200020F0010040F4807020646A68520541BFA7
:10473000206C20F4405040F480502064226CA06B28
:1047400012F480521CBF626C22F0060262640022E6
:1047500084F83C202F4AC2632F4A02642F4AC26465
:104760006FF022022A606A6842F080626A60AA687A
:1047700042F48072AA600A4605F14C0100F0C6FAC4
:10478000274A2849536813F01F0F236834D18B42FE
:1047900007D001F580718B4224D1526812F01F0FAF
:1047A00023D19A6812F0405F1FD19A6842F080428C
:1047B0009A601AE0AA6842F00102AA601A4A1068D8
:1047C0001A4AB0FBF2F000EB40000190019A002A77
:1047D0009DD0019A013A0192F8E7AA6822F480720A
:1047E000AA6097E712498B4202D0002003B030BD87
:1047F000526812F0100FD3E78B42F6D1D1E7236C49
:1048000043F010032364636C43F001036364ECE73B
:104810000220EBE77949000839480008634900089D
:1048200000230140002001407400002040420F009E
:10483000002201407047704708B5806BFFF7FBFF0F
:1048400008BD70477047036870B51E685D68B207A1
:1048500004462BD5A80629D5226CD1065EBF226C52
:1048600042F4007222649A6812F0405F17D1227EEF
:10487000AAB9DA6A12F4700F02D09A6852050ED4FF
:104880005A6822F020025A60236C23F48073236458
:10489000236CD8045EBF236C43F0010323642046DD
:1048A000FFF7C8FF23686FF012021A60710733D553
:1048B0002A0631D5236CDB065EBF236C43F400531C
:1048C000236423689A6812F4401F1ED19A6B12F475
:1048D000401F02D09A68500517D45A68510514D465
:1048E0009A6812F0405F10D1227E72B95A6822F0A5
:1048F00080025A60236C23F480532364236CDA050E
:104900005EBF236C43F001032364204600F006F9E8
:1049100023686FF00C021A60F30710D568060ED5F5
:1049200023681B68D9070AD5236C43F480332364BA
:104930002046FFF786FF23686FF001021A60B20677
:104940000ED56B010CD5636C43F0020363642368DE
:104950006FF020051D602046FFF774FF23681D607F
:1049600070BD806B08B540230364436C43F00403BF
:104970004364FFF767FF08BD836B1A6C12F0500F9A
:1049800010B51A6C23D142F400721A641A68916847
:1049900011F0405F17D1197EA9B9D16A11F4700FD7
:1049A00002D0916848050ED4516821F02001516071
:1049B0001A6C22F480721A641A6CD1045EBF1A6CED
:1049C00042F001021A641846FFF734FF10BDD20608
:1049D00003D51846FFF736FFF8E79B6BBDE810409C
:1049E000DB6C1847F7B50023019390F83C30012B9E
:1049F000054600F08680012380F83C3008682B686B
:104A00008E68092884B233D904EB4402DF681E3A69
:104A10004FF0070C0CFA02FC27EA0C07DF60DF6896
:104A200006FA02F23A43DA604968062901EB81028C
:104A30002DD8596B053A1F26964021EA0601596385
:104A4000596B04FA02F20A435A632F4A93420AD17D
:104A5000122837D12D4B5A6822F400025A605A6846
:104A600042F480025A60002085F83C0003B0F0BD9B
:104A70001A6900EB400C072707FA0CF722EA070235
:104A80001A611A6906FA0CF616431E61CCE70C2966
:104A90004FF01F010BD81E6B233A914026EA01010B
:104AA0001963196B04FA02F20A431A63CDE7DE6A4E
:104AB000413A914026EA0101D962D96A94400C43F7
:104AC000DC62C2E7124B984201D01128CBD10F4BC8
:104AD0005A6822F480025A605A6842F400025A600E
:104AE0000B4B9842BFD10B4B0B4A1B68B3FBF2F345
:104AF0000A2253430193019B002BB4D0019B013B3D
:104B0000F8E70220B2E700BF002001400023014087
:104B1000120000107400002040420F007047000097
:104B20000749CA6822F4E0620302120403F4E06356
:104B3000120C134343F0BF6343F40033CB60704760
:104B400000ED00E0164B30B5DC68C4F30224C4F17C
:104B50000703251D042B28BF0423062D4FF0FF3526
:104B60008CBF033C002405FA03F321EA0303A540AC
:104B700022EA0502A340002843EA0203ACBF00F189
:104B80006040084A4FEA0313B8BF00F00F00DBB2E1
:104B9000AABF00F56140135480F8003330BD00BF58
:104BA00000ED00E014ED00E0002807DB044A4109B5
:104BB000012300F01F00834042F82130704700BFFE
:104BC00000E100E010B5044650B1437903F0FF0264
:104BD00013B90271FDF794F901236371002010BD30
:104BE0000120FCE7036810B5084C0246D9B2103921
:104BF0001820B1FBF0F0205CD06523F47F7020F02A
:104C000003005F2988BF0430906510BD3059020849
:104C100070B50446FFF7AAFC0546002C60D00223BD
:104C200084F835302268002384F83430136823F088
:104C30000103136022681368D8072ED41368324822
:104C4000A1691840D4E901352B43E5682B43256958
:104C50002B4365692B43E5690B432B43256A2B43A3
:104C60000343606A042802BFD4E90B5635432B4343
:104C700013605369042823F0070343EA000335D186
:104C8000A06AE56A03438DB391B9012820D030F0C2
:104C900002012BD1E90129D51DE0FFF767FC401B7C
:104CA0000528C7D920230320636584F8350070BD2B
:104CB000B1F5005F16D1032818D801A151F820F0F2
:104CC000D74C0008954C0008D74C0008D14C000880
:104CD000B5F1C07F0AD140236365012384F83530E4
:104CE0000120E4E70228F6D90328D3D053612046F7
:104CF000FFF778FFE26D3F2393408360002001239C
:104D0000606584F83530D2E73F8010F070B590F8D8
:104D10003440866D012C30D0012480F8344090F866
:104D20003540012C4FF0000425D1022580F8355084
:104D300044650468256825F48025256063608368E0
:104D4000402B0EBFA260A160E260C26D08BFE160AF
:104D50003F239340B360236843F016032360036C42
:104D60001BB1236843F008032360236843F0010369
:104D70002360002070BD80F834400220FAE7000074
:104D8000F7B5002301935C4B856D1F68C36D2E68DA
:104D900008229A40324204460CD001680868400755
:104DA00008D5086820F004000860AA60626D42F02F
:104DB0000102626501229A40324208D021684969A5
:104DC000090641BFAA60626D42F0020262650422D8
:104DD0009A40324208D021680968880741BFAA601A
:104DE000626D42F00402626510229A40324210D095
:104DF0002368196809070CD5AA601A68500337D5CB
:104E00001B68190301D4236C00E0A36C0BB120468E
:104E10009847E16D20228A4032423AD023681868D0
:104E2000C60636D5AA6094F83520052A1A6827D117
:104E300022F016021A605A6922F080025A61226C2E
:104E40000AB9A26C1AB11A6822F008021A603F234C
:104E50008B40AB60012384F83530002384F8343074
:104E6000236D002B45D0204603B0BDE8F040184725
:104E70001A68D2055EBF1A6822F008021A60C2E7FB
:104E8000500327D51B68190331D4636C0BB120463E
:104E90009847636D6BB3636DDA0719D522684FF4D9
:104EA0001653B7FBF3F7052384F83530136823F066
:104EB00001031360019B0133BB42019302D81368C5
:104EC000DB07F7D4012384F83530002384F834302D
:104ED000E36CC6E71A6812F4807208D1196821F0F1
:104EE00010011960012384F8353084F83420E36B15
:104EF000CCE703B0F0BD00BF7400002010B504463D
:104F000020B390F8393003F0FF021BB980F8382045
:104F1000FDF70EF8022384F83930236861681A68B7
:104F200022F440320A431A605A6BA16822F0070249
:104F30000A435A631A6CE1686FF30D020A431A645C
:104F400000200123E06384F8393010BD0120FCE724
:104F500070477047036870B55E681D68F2070446C5
:104F600014D5E90512D51A6822F480721A60C26B52
:104F700042F00102C26301229A60042380F83930B2
:104F8000002380F83830436903B19847B20616D53C
:104F9000AB0414D523681A6822F400521A60202248
:104FA0009A60E36B43F00203E363042384F839302F
:104FB000002384F8383063690BB1204698473007E6
:104FC00016D5290514D523681A6822F400621A60E0
:104FD00008229A60E36B43F00403E363042384F83C
:104FE0003930002384F8383063690BB12046984784
:104FF00072070BD56B0509D523681A6822F4806205
:105000001A6004229A602046FFF7A2FFB00714D569
:10501000A90512D523681A6822F400721A600222C8
:105020009A60E36BE363012384F83930002384F84A
:10503000383023690BB120469847F20613D5EB04AC
:1050400011D523681A6822F480521A6010229A60DF
:10505000E36BE363012384F83930002384F83830AC
:105060002046FFF776FF70BDF0B590F83820012A92
:1050700003464FF002002BD0012283F8382083F83A
:10508000390003EB0112D2E90740556A174F44EA91
:105090000040093C012C9CBF05F07F4210434FEAC1
:1050A00001161A6888BF40EA056091B9516A394013
:1050B00001435162012C9969916103D8596A21F029
:1050C0007F4191620122002083F8392083F8380063
:1050D000F0BDD16939400143D1619919012C896929
:1050E00011619CBF25F07F451562EBE7F0FFFC00E6
:1050F0002DE9F74FDFF8BC916C4A00230D680124BD
:105100009C4004EA0506AC4340F0B7804D68032795
:1051100005F003044FEA430807FA08FC671E012F55
:105120006FEA0C0C34D8876807EA0C0ECF6807FAD0
:1051300008F747EA0E078760476827EA060EC5F3B7
:1051400000179F4047EA0E074760C76807EA0C0E42
:105150008F6807FA08F747EA0E07022CC76019D1D3
:105160004FEAD30A00EB8A0A03F0070BDAF8207043
:105170004FEA8B0B4FF00F0E0EFA0BFE27EA0E0EC6
:105180000F6907FA0BF747EA0E07CAF8207001E02B
:10519000032CDAD1076804FA08F407EA0C073C4349
:1051A00015F4403F046068D000240194D9F84440CD
:1051B00044F48044C9F84440D9F8444023F003073C
:1051C00007F1804704F4804407F59C37019403F00D
:1051D000030C019CD7F808E04FEA8C0C0F2404FA6A
:1051E0000CF42EEA040E324CA0424DD004F580643B
:1051F000A0424BD004F58064A04249D004F58064FD
:10520000A04247D004F58064A04245D004F58064F4
:10521000A04243D004F58064A04241D004F58064EC
:10522000A0423FD004F58064A0423DD004F58064E4
:10523000A04214BF0A24092404FA0CF444EA0E0420
:10524000BC609468F74315F4801F0CBF3C403443A6
:105250009460D46815F4001F0CBF3C403443D46004
:10526000546815F4003F0CBF3C403443546014684C
:10527000ED0354BF3C40344314600133102B7FF4E2
:105280003DAF03B0BDE8F08F0024D5E70124D3E79C
:105290000224D1E70324CFE70424CDE70524CBE79C
:1052A0000624C9E70724C7E70824C5E7003C0140F6
:1052B00000000240003802400369194214BF012077
:1052C000002070470AB1816170470904FBE7436918
:1052D00001EA030221EA030141EA024181617047C8
:1052E00001684B6913F480634FF0000210D06FF433
:1052F00080634B612023026380F83D3080F83E20BC
:10530000036C80F83C2043F00403036401207047E1
:10531000184670472DE9F84606460F4691461D4649
:105320004FEA114A3368BAF1010F0CBF5C699C69FE
:1053300027EA0404A4B2B4FA84F46409A14501D0B4
:10534000002025E06A1CEED0FFF710F9089BC01A78
:10535000A84201D8002DE5D13368BAF1010F0CBF86
:105360005B699B6927EA03039BB2B3FA83F35B098A
:105370009945D7D100232022336386F83D2086F853
:105380003E30326C86F83C3042F02002326401201C
:10539000BDE8F8862DE9F04104460F4616469846CA
:1053A0002568686927EA000080B2C0B16B695A05B8
:1053B00017D52B6843F400732B606FF480636B6127
:1053C00020220023236384F83D2084F83E30236CA0
:1053D00043F004032364002384F83C300120BDE83B
:1053E000F081731CDDD0FFF7C1F8A0EB0800B042DC
:1053F00001D8002ED4D123685A6927EA020292B25A
:10540000002ACDD000232022236384F83D2084F895
:105410003E30236C1343DDE770B504460D46164657
:1054200023685B691B0601D500201EE02046FFF7BC
:1054300057FFC8B96A1CF3D0FFF798F8801BA84241
:1054400001D8002DECD123685B6913F08003E7D10C
:105450002022236384F83D2084F83E30226C84F8B7
:105460003C3042F020022264012070BD2DE9F0435F
:105470001546026885B0DDE90C789946136843F457
:10548000807313600E463B46CDF8008000224FF03B
:1054900001110446FFF73EFF236838B11B68DB05A6
:1054A00002D54FF400732364032620E006F0FE06C5
:1054B0001E611A4943463A462046FFF76BFFA8B9DA
:1054C000236803905A6903929B69039342463946C5
:1054D0002046039BFFF7A0FF064660B1236C042B18
:1054E00001BF2268136843F400731360012630463D
:1054F00005B0BDE8F083B9F1010F236802D1EDB228
:105500001D61F4E72A0A1A61394642462046FFF730
:1055100083FF0028E2D12368F1E700BF0200010009
:105520002DE9FF479A46036815461A6842F48062DF
:105530001A601A68DDE90C7842F480721A600E462F
:105540003B46CDF8008000224FF001110446FFF7E2
:10555000E1FE236838B11B68DB0544BF4FF40073DC
:105560002364032021E05FFA86F906F0FE061E613F
:105570002B4943463A462046FFF70CFFA0B9236863
:1055800003905A6903929B69039342463946204629
:10559000039BFFF741FF58B1236C042B01BF226826
:1055A000136843F400731360012004B0BDE8F08772
:1055B000BAF1010F23681AD1EDB242461D61394696
:1055C0002046FFF729FF02460028E5D121680B6835
:1055D00043F480730B602046CDF800803B464FF0CB
:1055E0000111FFF797FE226860B11368B4E72A0A39
:1055F0001A61394642462046FFF70EFF0028CBD1FC
:105600002368D9E749F001031361054943463A4647
:105610002046FFF7BFFE003818BF0120C5E700BFD6
:105620000200010070B504460D46164623685B690A
:105630005B0701D500201EE02046FFF751FEC8B9E8
:105640006A1CF3D0FEF792FF801BA84201D8002D00
:10565000ECD123685B6913F00403E7D120222363B4
:1056600084F83D2084F83E30226C84F83C3042F0CF
:1056700020022264012070BD70B504460D46164616
:1056800021684B6913F0400301D0002011E04A6902
:10569000D2060FD56FF010024A612022236384F8EE
:1056A0003D2084F83E30236C2364002384F83C3092
:1056B000012070BDFEF75AFF801BA84201D8002DC3
:1056C000DED123685B6913F04003D9D12022236324
:1056D00084F83D2084F83E30236C1343E4E7000057
:1056E00070B5044608B9012070BD90F83D3003F054
:1056F000FF021BB980F83C20FCF73CFC242384F813
:105700003D3023681A6822F001021A601A6842F4D8
:1057100000421A601A6822F400421A6000F0A8FEE3
:105720003F4B65689D4294BF3E4B3F4B98428CBFB8
:1057300000230123002BD6D12268394E51683B4B00
:10574000B0FBF3F321F03F011943B542516088BF2C
:105750004FF49676116A88BF734321F03F0184BFEE
:105760004FF47A76B3FBF6F301330B431362D1693E
:10577000431E2B4821F44F41854221F0FF0132D8CE
:105780006D0040F6FC70B3FBF5F30133034242D0E9
:10579000C3F30B031943D161D4E907301168034304
:1057A00021F0C0010B4313609168D4E9030321F495
:1057B0000341034321F0FF010B439360D4E905301B
:1057C000D168034321F0FF010B43D360136843F01A
:1057D0000103136000202023206484F83D302063FF
:1057E00084F83E0080E7A06850B905EB4505B3FB9F
:1057F000F5F30133C3F30B037BB143F40043C9E773
:1058000019206843B3FBF0F30133C3F30B0323B157
:1058100043F44043BEE70423BCE70123BAE700BFDB
:10582000A08601007F841E00FF083D0040420F005B
:105830002DE9F743044699460C9E0F469046FEF725
:1058400095FE94F83D30202B054603D0022003B08E
:10585000BDE8F08300903C49192301222046FFF760
:1058600059FD0028F2D194F83C30012BEED020688D
:10587000012384F83C300368D9075EBF036843F016
:1058800001030360036823F400630360212384F8A9
:105890003D30402384F83E30002323640A9B63623A
:1058A000BDF82C306385638D2385284BE362424627
:1058B000CDE900654B4639462046FFF7D7FD002865
:1058C0002AD00120C3E7FFF7A7FD40B1236C042BCA
:1058D00001BF2268136843F400731360F1E7636A41
:1058E00027681A4612F8011B39616262628D218DA8
:1058F000013A92B262857A69481E80B252072085C9
:105900000AD548B15A783A6102336362638D013B2C
:1059100002399BB221856385238D2A463146204674
:10592000002BD0D1FFF77EFE0028CFD1226813686C
:1059300043F400731360202384F83D3084F83C0066
:1059400084F83E0083E700BF020010000000FFFF64
:105950002DE9F043044687B09946109F0D469046C6
:10596000FEF704FE94F83D30202B064604D00225B5
:10597000284607B0BDE8F08300907A491923012238
:105980002046FFF7C7FC0028F1D194F83C30012BEA
:10599000EDD02068012384F83C300368DB075EBF4C
:1059A000036843F001030360036823F400630360AA
:1059B000222384F83D30402384F83E3000232364C2
:1059C0000E9B6362BDF83C306385638D2385664B17
:1059D000E3622946CDE900764B4642462046FFF772
:1059E0009FFD054608B10125C2E7228D2368B2B9A3
:1059F00002905A6902929A690292029A1A6842F4D3
:105A000000721A60DFF86481238D002B2CD12022D4
:105A100084F83D2084F83C3084F83E30A8E7012A21
:105A20000AD11A6822F480621A6003905A690392BC
:105A30009A690392039AE1E7022A0ED11A6822F4C6
:105A400080621A601A6842F400621A6004905A690F
:105A500004929B690493049BD4E705905A690592CC
:105A60009B690593059BCDE7032B56D8012B15D1D8
:105A7000324639462046FFF7FFFD0028B3D12368A0
:105A80001A69636A1A70636A01336362238D013B8A
:105A90002385638D013B9BB26385B5E7022B00969E
:105AA0003B464FF000024146204619D1FFF732FC39
:105AB000002898D123681A6842F400721A601A69A3
:105AC000636A1A70626A531C6362238D013B2385EB
:105AD000638D013B9BB2638523681B695370D2E7DA
