:020000040800F2
:10000000000003205D0600087D2300087F23000810
:1000100081230008832300088523000800000000D6
:100020000000000000000000000000005166000811
:100030008723000800000000E1660008715F0008E7
:10004000AD060008AD060008AD060008AD060008C4
:10005000AD060008AD060008AD060008AD060008B4
:10006000AD060008AD060008AD060008AD060008A4
:10007000AD060008AD060008AD060008AD06000894
:10008000AD060008AD06000889230008AD0600088B
:10009000AD060008AD060008AD060008AD06000874
:1000A000AD060008AD060008AD060008AD06000864
:1000B000AD060008AD060008AD060008AD06000854
:1000C000AD060008AD060008AD060008AD06000844
:1000D000AD060008AD060008AD060008AD06000834
:1000E000AD060008AD060008AD060008AD06000824
:1000F000AD060008AD060008AD060008AD06000814
:10010000AD060008AD060008AD060008AD06000803
:10011000AD060008AD06000895230008AD060008EE
:10012000A1230008AD060008AD060008AD060008D2
:10013000AD060008AD060008AD060008AD060008D3
:10014000AD060008AD060008AD060008AD060008C3
:10015000AD060008AD060008AD060008AD060008B3
:10016000AD060008AD060008AD060008AD060008A3
:10017000AD060008AD060008AD060008000000004E
:10018000AD060008AD060008AD060008AD06000883
:10019000AD060008AD060008AD060008AD06000873
:0C01A000AD230008AD060008B9230008DC
:1001B00010B5054C237833B9044B13B10448AFF3A1
:1001C00000800123237010BD800300200000000088
:1001D000940F020808B5034B1BB103490348AFF362
:1001E000008008BD0000000084030020940F020876
:1001F00001F0FF01102A2BDB10F0070F08D010F8D8
:10020000013B013A8B422DD010F0070F42B3F6D1DB
:10021000F0B441EA012141EA014122F007047FF0F4
:1002200000070023F0E80256083C85EA010586EA4B
:10023000010685FA47F5A3FA87F586FA47F6A5FA87
:1002400087F68EB9EED1F0BC01F0FF0102F0070293
:1002500032B110F8013B013A83EA010313B1F8D13E
:100260000020704701387047002D06BF354603381F
:10027000073815F0010F07D1013015F4807F02BF58
:10028000013015F4C03F0130F0BC0138704700BFA9
:100290007BB972B90029BEBF00204FF0004106E0D3
:1002A00008BF00281CBF6FF000414FF0FF3000F086
:1002B000D3B9ADF1080C6DE904CE002909DB002BA0
:1002C0001ADB00F04DF8DDF804E0DDE9022304B0AC
:1002D0007047404261EB4101002B1BDB00F040F80E
:1002E000DDF804E0DDE9022304B0404261EB4101A6
:1002F000524263EB43037047524263EB430300F007
:100300002FF8DDF804E0DDE9022304B0404261EBA0
:1003100041017047524263EB430300F021F8DDF8DE
:1003200004E0DDE9022304B0524263EB430370476B
:1003300053B94AB9002908BF00281CBF4FF0FF314C
:100340004FF0FF3000F088B9ADF1080C6DE904CE34
:1003500000F006F8DDF804E0DDE9022304B07047A0
:100360002DE9F047089D8E4604468846002B4AD169
:100370008A42174662D9B2FA82F64EB1C6F120031C
:1003800001FA06F820FA03F3B74043EA0808B4403C
:100390004FEA174E1FFA87FCB8FBFEF1230C0EFB49
:1003A000118843EA084301FB0CF29A4209D9FB1871
:1003B00001F1FF3080F0EA809A4240F2E780023992
:1003C0003B449A1AA3B2B2FBFEF00EFB102243EAA2
:1003D000024300FB0CFC9C4509D9FB1800F1FF32DD
:1003E00080F0D6809C4540F2D3803B44023840EAFE
:1003F0000140A3EB0C0300211DB1F3400022C5E92D
:100400000032BDE8F0878B4205D90DB1C5E9000186
:1004100000210846F5E7B3FA83F1002946D1734578
:1004200002D3824200F20581841A6EEB030201209E
:100430009046002DE5D0C5E90048E2E7002A00F02B
:100440009080B2FA82F6002E40F0A4808A1A030C43
:100450004FEA174E80B2BCB20121B2FBFEFC0EFB8C
:100460001C2243EA024304FB0CF29A4207D9FB1810
:100470000CF1FF3802D29A4200F2E080C4469B1A87
:10048000B3FBFEF20EFB123340EA034302FB04F41B
:100490009C4207D9FB1802F1FF3002D29C4200F2C5
:1004A000CA8002461B1B42EA0C40A5E7C1F12006A8
:1004B0008B4022FA06F71F430EFA01F420FA06F3E6
:1004C0002EFA06FE4FEA1749234300FA01F81FFAF5
:1004D00087FCBEFBF9F01C0C09FB10EE44EA0E444D
:1004E00000FB0CFEA64502FA01F209D93C1900F105
:1004F000FF3A80F09C80A64540F2998002383C4447
:10050000A4EB0E041FFA83FEB4FBF9F309FB1344BA
:100510004EEA044403FB0CFCA44508D93C1903F142
:10052000FF3E80F08280A4457FD9023B3C4443EAF1
:100530000040A4EB0C04A0FB02EC64457346E146CA
:1005400062D35FD05DB1B8EB030264EB090404FA37
:1005500006F622FA01F31E43CC40C5E900640021EF
:100560004FE7B1FBF2FC010C41EA0E4180B240EAD8
:1005700001423B4638463C46B846BE462026B1FBC3
:10058000F7F1A2EB080241EA0C4166E7014618E7E1
:1005900010462CE7C6F120022EFA02F3B740B14014
:1005A00020FA02F24FEA174E0A43B3FBFEF8BCB240
:1005B0000EFB1833110C41EA034108FB04F9B0406B
:1005C00089454FEA104380B23ED9791808F1FF3CC3
:1005D00001D289451FD8A1EB0901B1FBFEF909FB46
:1005E00004F80EFB191192B242EA0142424529D2A7
:1005F000BA1809F1FF31C4D24245C2D2A9F10201B1
:100600003A44BEE7F0459DD2BEEB02036CEB070C0B
:100610000138E14696E7A7EB09094944A8F1020C25
:10062000B1FBFEF909FB04F8DBE773467FE75046B0
:1006300066E70846FDE63B44023A33E7ACF1020CBC
:100640003B441CE749469CE7A1EB0901C446B1FBCA
:10065000FEF909FB04F8C4E7704700BFDFF834D0A7
:10066000002103E00C4B5B58435004310B480C4B0A
:1006700042189A42F6D30B4A02E0002342F8043BA8
:10068000094B9A42F9D302F0A9FD1FF015FF01F0C2
:100690005FF8704700000320482C0208000000208B
:1006A0006401002080030020A8330120FEE770478A
:1006B00008B500F0B7FDBDE8084000F03BBD00F014
:1006C000B3BD704710B5042104461EF008FD204656
:1006D00010BD000038B50C4B0C4C18800C4B822020
:1006E00019806368984740F6110398420AD1094D72
:1006F00023682C60822098472B688220DB6898470B
:10070000002038BD0120FCE7A60300204C0000209B
:10071000A4030020A80300204FF4A071F020FFF7ED
:10072000D9BF0000F7B5394D2B6804461B698220FC
:100730009847208000284ED02B680DF106025B6997
:1007400001A982209847324B1B78002B4BD0BDF873
:10075000062040F674639A423FD9ADF80630BDF8E2
:1007600006209B1A9BB20A2B42D90B22B3FBF2F351
:10077000284A1288934201D9013A93B2BDF8042065
:10078000254840F6B8318A4234D8C2F571620E323B
:10079000016892B20F25B2FBF5F2204D2D88AA42D6
:1007A00084BF05F1FF35AAB28A4215468EB22AD916
:1007B000921B91B21A4E3768BB42BAB28CBF9A1ADA
:1007C000D21A92B211440529C4BF05603360036890
:1007D00063803368A38003B0F0BDB32A9CBFB4220A
:1007E000ADF80620BBE7BDF80630A3F5B473B9E752
:1007F0000023C3E7C2F56D62083292B20E2A016887
:10080000C8D800252A46891A89B2D3E7A803002050
:1008100080150020A4030020A0030020A6030020D0
:100820009C03002037B568460D461446FFF77AFF53
:10083000BDF8000030B1BDF802302B60BDF80430C7
:100840002360012003B030BD032821D8DFE800F089
:10085000020B12190F4B1A68B2FA82F252090421E4
:100860000D4803F09BBB0B4B5A68B2FA82F2520957
:100870000821F5E7074B9A68B2FA82F25209102173
:10088000EEE7044BDA68B2FA82F252092021E7E778
:10089000704700BFAC03002000100240032821D89D
:1008A000DFE800F0020B12190F4B1A68003A18BF6C
:1008B000012204210D4803F071BB0B4B5A68003A2A
:1008C00018BF01220821F5E7074B9A68003A18BFC4
:1008D00001221021EEE7044BDA68003A18BF01222A
:1008E0002021E7E7704700BFAC0300200010024062
:1008F00003280DD8DFE800F00206080A04210548A5
:1009000003F051BB0821FAE71021F8E72021F6E7B0
:10091000704700BF0010024008B5032811D8DFE877
:1009200000F0020A0C0E0421074803F031FB431EBD
:100930005842584108BD0821F6E71021F4E720216C
:10094000F2E70020F3E700BF0010024070B5084D49
:1009500000240126E0B2FFF7DFFF18B12B68012B5E
:1009600018BF2E600134052C05F10405F2D170BDCD
:10097000AC030020012380F8781080F879307047AC
:100980007047002070470000034B4164003918BFD6
:1009900001211970704700BF6726012070470020B1
:1009A0007047836B0BB10846184770474FF6FF70CE
:1009B0007047406803689B691847704770477047E5
:1009C0007047704710B5044600F044FD23680349A2
:1009D000D3F890302046BDE810401847000000D002
:1009E00008B503680446D3F8843098472368204646
:1009F000DB6F984700F0ECF8236820465B6F984760
:100A0000292001F06FF900F0E3F8236820465B6FBE
:100A10009847F8E710B5044608F020FC2368204604
:100A2000D3F8BC30BDE81040184700F0F7BC00F028
:100A3000FBBC00F02DBD00F0CDBC00F03DBD00F0D2
:100A400045BD00F0D1BC07F029BE10B58421044695
:100A50001EF045FB204610BD10B590F8341090F8FC
:100A600078400C4B8C421A7809D03AB90A4A0B49A3
:100A70001488088810800C8001221A7010BD002A8A
:100A8000FCD0054A05491488088810800C80002293
:100A9000F3E700BF602601205C2601205E260120CE
:100AA00070B50D46194635B9094B0A4A0A4840F255
:100AB000FF211FF051FAC0E90F52084B003A18BF4E
:100AC00001221A700368BDE87040D3F890301847CF
:100AD000041002083C1002088A1002086626012051
:100AE00008B5094B1B888B4203D8084B1B889342DF
:100AF00005D9074B074A0848A3211FF02DFA074BD9
:100B00001980074B1A8008BD5C2601205E26012053
:100B1000CF100208321102088A1002086226012052
:100B200064260120034690F87A0018B158680368DB
:100B30001B68184770470000012108B500220846CD
:100B400005F0A0FA0A4B186028B90A4B0A4A282176
:100B50000A481FF001FA00220421012005F031FBB0
:100B6000074B186018B9074B034A2C21F0E708BD62
:100B7000C003002075110208BE110208ED11020821
:100B8000BC03002035120208024B4FF0FF311868F9
:100B900005F0C2BAC0030020014B186805F0E8BA9E
:100BA000C0030020024B0021186805F0B5BA00BF51
:100BB000C0030020FFF7F0BF03480449006800238A
:100BC0001A4605F039BB00BFBC030020040000201A
:100BD00013B5084C00231A4601A9206805F05DFBF7
:100BE00020684FF0FF33002201A905F056FB02B048
:100BF00010BD00BFBC03002003685B6C18470120D8
:100C0000704703689B6A1847FEE740F2EF30704771
:100C1000054B0360054B4FF08062C3F88820BFF39B
:100C20004F8FBFF36F8F7047141B020800E100E085
:100C300010B504464FF45A61FFF7EAFF20461EF054
:100C40004EFA204610BD000082B0002301930E4BE7
:100C50001A6B42F400021A631A6B02F4000201924A
:100C6000019A1A6942F400021A611A6922F4000218
:100C70001A61064B064A1A61064A5A61064B4FF042
:100C800080629A6002B0704700380240141700205A
:100C9000E90E0008090C000800E100E008B50A2888
:100CA00009D8DFE800F006100E0808080810101038
:100CB0001000022008BD054B054A064890211FF090
:100CC0004BF90020F6E70120F4E700BF7712020895
:100CD00092120208DD12020838B50C46887FFFF731
:100CE000DDFFA58AE28A164B2169586342EA054274
:100CF0005A64628BD963521B1A642568082D0ED181
:100D00009A611A615862207F0E4A42EA0062DA61F3
:100D1000E2681A620C4A5961D9601A6038BD002233
:100D2000D8611A61E1680A0A480902F4784200F4BD
:100D3000FC600243C1F3C4010A439A63034AECE72F
:100D400000B002400900010001230200012303005A
:100D500008B50B280BD8DFE800F00612100A0A0AC3
:100D60000A0808080808022008BD0520FCE7054B12
:100D7000054A06486F211FF0EFF80020F4E7012034
:100D8000F2E700BF7712020823130208DD120208FF
:100D90002DE9F04191F81D800C464046FFF7D8FF41
:100DA000A77F05463846FFF7D3FF06463846FFF7CC
:100DB00075FFA18A628B444B521A1A649A61228B86
:100DC000521A1A61E28A586342EA01425A6421695E
:100DD0006268D963DA602068802828D0227F0FD823
:100DE000202867D0402865D004281AD0364B45EA21
:100DF000026545F40035B845DD6161D0334A44E011
:100E0000B0F5807F04D0B0F5007FEFD1304800E02E
:100E1000304840EA0262DA61E2681A625E62596151
:100E200032E045EA026242F40032DA61F6E7A06895
:100E3000021DDA62227F45EA026545F40035DD6174
:100E40005E625961017841B1012921D0224B234AC8
:100E500023484FF48D711FF07FF8DA69418822F43E
:100E60007F42013922F0100242EA0122DA610121B7
:100E7000154BDA6942F02002DA61DA699206FCD495
:100E800010229A600029B9D0164A1A60BDE8F08194
:100E9000B2F1FF01DA69408822F47F4200F1FF30AD
:100EA00022F0100242EA002242F0100218BF012193
:100EB000DA61DDE745EA0262034B42F40032B4E74F
:100EC00042F20132E1E700BF00B00240012301001D
:100ED000090002000A0002006D13020887130208CD
:100EE000DD12020801230200024B1B6858680368E8
:100EF0005B6918476826012070B5044625460A4BF1
:100F00000C30002660602672667245F8203B602235
:100F1000294608F0F9FA04F55A63EE6024359D423B
:100F2000FBD1204670BD00BF141B0208034B1A689A
:100F3000D207FCD423229A60704700BF00B0024061
:100F40007047000030B50F4C2568ED07FCD4232511
:100F50000904A56041F001010225FF2B656361646E
:100F6000E0630AD00849656241EA0363E361074B25
:100F700022626061E060236030BDE561039BA36392
:100F8000034BF8E700B00240090001000100020035
:100F90000100030030B50E4C2568ED07FCD4232575
:100FA0001204A56042F001020225FF2B6563626412
:100FB000E063E16008D01B0643F00213E361054BD8
:100FC00065626061236030BD034BE3610123F9E793
:100FD00000B0024001000200020002FF30B50B4CDD
:100FE0002568ED07FCD4232512041B06A56043F4F5
:100FF0000033022542F0010265636264E063E16050
:10100000E361034B65626061236030BD00B0024064
:1010100001000200012070470C2070470C2303FBE5
:101020000100083070470C2303FB010008307047B3
:10103000012070476C2070476C2303FB01000830CF
:1010400070476C2303FB0100083070470120704794
:101050001020704700EB01100830704700EB0110C2
:1010600008307047084601F097BB000010B5034BED
:101070000360044607F067F8204610BDCC1B020849
:1010800010B50446FFF7F2FF204614211EF027F8A2
:10109000204610BD10B5034B0360044607F053F81B
:1010A000204610BD981B020810B50446FFF7F2FF5A
:1010B000204674211EF013F8204610BD10B5034BD6
:1010C0000360044607F03FF8204610BD641B020889
:1010D00010B50446FFF7F2FF204618211DF0FFFF70
:1010E000204610BD10B5084B044640F8A03BFFF762
:1010F000BDFF04F12C00FFF7CDFF04F11400FFF752
:10110000DDFF204610BD00BF001C020808B50248E4
:10111000FFF7E8FF08BD00BF9C12002010B5044691
:10112000FFF7E0FF20464FF405711DF0D8FF204681
:1011300010BD00002DE9F34101F0B2F9054601F0C0
:10114000B3F90024014623462846224600940EF0B7
:1011500033FF274B274A1A60204601F0EBFC264D4F
:10116000264B274A27489A600EF08EFE2B68BFF365
:101170005B8FDB0735D428461DF0B3FF88B3224CC4
:10118000224B236004F1B80604F1140004F12C088A
:1011900004F1A0076060C4F80880E760266106F0EB
:1011A000D3FF1B4B6361404606F0CEFF194BE36251
:1011B000384606F0C9FF184BC4F8A03004F1B4005B
:1011C00001F02EFD224604F1B401304601F01EFD6F
:1011D000304601F0E1FA11481EF0DCFE28461DF011
:1011E0008CFF0F4802B0BDE8F041FFF7EBBB00BF3A
:1011F000CC2601204804002098120020680400201A
:101200004C040020080000209C120020001C020852
:10121000641B0208981B0208CC1B02080D11000871
:10122000C4030020704700000148FFF7D9BB00BF8E
:10123000C403002070B5264E264C274D274B236053
:101240003046FFF759FE284613F0BCFF24480CF047
:10125000A5FF244B2448DC6000224FF48071C3E9D1
:10126000121222491A86C3E91A12214983F858201A
:10127000C3E91E011F49C3F880101F491F480B60B6
:10128000F021C3E90422C3E90622C3E90822C3E925
:101290000A22C3E90E22C3E91022C3E91422C3E9DA
:1012A00017225A6683F870205A67C3E901650180E6
:1012B0001348018013484FF4A07101801248018047
:1012C00012490A70012283F83420114A1A6070BD55
:1012D000F40400209412002068040020F40F020897
:1012E0004C040020C40300200000010101000001A3
:1012F000000450001A001400682601205C2601201A
:10130000622601205E26012064260120602601203D
:10131000281A02080148FFF77BBC00BFF404002034
:101320000020704781807047C180704701817047FD
:10133000418170477047704770477047704710B4DD
:10134000C4880368121B84885B6D091B12B25DF8A8
:10135000044B09B218474FF6FF7383814FF0FF33F8
:1013600003621368C36110607047002070478B8868
:10137000838001207047704780F82610704790F8EE
:101380002600704710B50022B1F90840B1F90A10E3
:10139000028042808480C18010BD00220280428091
:1013A0008280C28070470177704780ED080A7047DD
:1013B00080F82410704780F825107047012070478E
:1013C000983070478C307047843070477047704752
:1013D00070470000034B902283F85A2383F8582368
:1013E000704700BF00E100E0094A0A49D3680A4893
:1013F000C3F30A03013B9BB20B801169C1F30A01DD
:10140000013901801364536B43F001035363704748
:1014100000680140B2140020B0140020014BD3F842
:10142000AC00704700680140024B0122C3F8AC10C9
:101430005A6270470068014010B52C2104461DF027
:101440004EFE204610BD10B5BC2104461DF047FEDF
:10145000204610BD70B5044607F075F923689D6EEF
:101460000BF034FC01462046A8472368054AD3F810
:101470008C502046AC460023BDE87040A2F51631E2
:10148000604700BF00B004D007F044B907F04EB980
:1014900007F00AB907F079BA90F8252012B103686D
:1014A0005B691847704790F825201AB190F82420FE
:1014B00002B1186070470000034B4FF080629A60E1
:1014C0004FF080729A60704700E100E0084B4FF0E7
:1014D0008062C3F88820BFF34F8FBFF36F8F4FF048
:1014E0008072C3F88820BFF34F8FBFF36F8F7047B0
:1014F00000E100E070B50023124E8380124B0360C0
:10150000336893F8582005460AB1D86C00B998683A
:101510000368DB6A98473368B0FA80F4D86C6409D2
:1015200030B10368DB6A9847002808BF44F0010423
:101530002CB9064B064A07482C211EF00DFD284603
:1015400070BD00BF68260120141C0208C5130208E4
:10155000231402085C14020870B5254E3568BFF3E9
:101560005B8F15F0010540D130461DF0BAFD002813
:101570003BD0204C204B256104F13400C4E90035F8
:10158000C4E90255E584A562A5850DF0ECF804F1E7
:10159000580009F06DFC194BA3652046184B40F824
:1015A000843BFFF7A7FF174BC4F884302433C4F8FB
:1015B0008C304FF4C803C4E928350023C4F8AC309C
:1015C000C4F8B030C4F8B430C4F8B8300E480F4B8B
:1015D000C4F89050C4F89C50C4F8A850C4F898308F
:1015E0001EF0D8FC30461DF088FD024870BD00BFDB
:1015F000B4140020B8140020CC200208341C0208C7
:10160000AC1C020880200208D113000860200208E8
:1016100038B5184C23685BB3174B184A1B6C1188FC
:101620008B4216D1164B198803F0C0FA236893F841
:101630006A200025013283F86A2083F87C50FFF786
:10164000BBFA206807F00AFE2846BDE83840FFF7DD
:10165000FBB803F0ABFA2468236820461B6A98475E
:10166000012384F87C300020BDE83840FFF716B92C
:1016700038BD00BF6826012000680140B214002078
:10168000B014002007B5064BADF806001B680548EE
:1016900001220DF1060104F029F803B05DF804FB06
:1016A0000C000020C015002008B5642004F0DEFC0A
:1016B000FBE7000030B595B0102200210AA81EF00B
:1016C00052FE1422002103A81EF04DFE00241E4BE2
:1016D00001941A6C42F080521A641B6C03F0805320
:1016E0000193019B194B02941A6842F440421A601C
:1016F0001B6803F4404302930122029B4FF48033A2
:10170000CDE9082302254FF480030821CDE90E53CB
:101710004FF4B473CDE9101308A804231393129562
:1017200003F09CFA03F060FA0F23CDE903354FF480
:10173000A0504FF48053CDE90603052103A805947A
:1017400003F068FC15B030BD003802400070004066
:101750002DE980489DB00024C94DDFF85C8301F07D
:101760004BFDFFF7A7FF142200210FA81EF0FBFD81
:1017700002942B6BC34843F010032B632B6B03F0D5
:1017800010030293029B03942B6B43F020032B6303
:101790002B6B03F020030393039B04942B6B43F008
:1017A00080032B632B6B03F080030493049B05944D
:1017B0002B6B43F004032B632B6B03F004030593A3
:1017C000059B06942B6B43F001032B632B6B03F0FB
:1017D00001030693069B07942B6B43F002032B63D4
:1017E0002B6B03F002030793079B08942B6B43F0CA
:1017F00040032B632B6B03F040030893089B099471
:101800002B6B43F008032B632B6B03F0080322467A
:1018100009933C21099B02F0C1FB9B480122022154
:1018200002F0BCFB22469848042102F0B7FB224696
:1018300096484FF4405102F0B1FB01263C23CDE91C
:101840000F369048119403230FA90227129302F038
:10185000BBFA8D480FA9CDE90F76CDE9114402F00E
:10186000B3FA042388480FA9CDE90F36CDE9114713
:1018700002F0AAFA4FF4405384480FA9CDE90F367D
:10188000CDE9114702F0A0FA01942B6B43F48003D9
:101890002B632B6B7E4D03F48003224605210193BD
:1018A0003820019B01F0BAFF382001F0E9FF7948A8
:1018B000794B036001F0F2FFDFF800E2774B2C6216
:1018C000C5E900E328464FF48043C5E90434C5E97F
:1018D0000244C5E9064402F06FFD1021284602F0DB
:1018E000B3FF214628466E4D02F0CDFF4FF48273C0
:1018F000C5E900834FF400791823C5E9069328460B
:101900000A23C5E90244C5E90444C5E90844AC62B8
:10191000EB6203F08FFE8F23224639465A488DF83A
:101920002C308DF83C4002F039FB32464FF47A738C
:101930000BA9284603F0DAFE4FF47A7332460FA95A
:10194000284604F07FF8324639464F48554D02F09C
:1019500025FB9DF83C30D32B04BF534B1E70534BDB
:101960000126C5E900364FF0100A40230024C5E9DE
:1019700004A34FF4C073C5E906344FF40063C5E90E
:1019800008344FF400534FF0020904274FF00308C6
:10199000AB620FA907232846CDE90F93CDE9117358
:1019A0004FF0080BC5E90247CDE91389CDF85490F3
:1019B00003F024FD4FF6FF720BA92846CDE90CB6C3
:1019C0000A940B960E9403F039FD304601F040FC6A
:1019D0004FF6FF720BA92846CDE90B9BCDE90D64AC
:1019E00003F02CFD4FF6FF720BA92846CDE90B8BB7
:1019F000CDE90D7403F022FD4FF40C730A930A9B9A
:101A00000E934FF6FF720BA92846CDE90B7B0D967E
:101A100003F014FD40F26A51284603F02DFD3422F4
:101A200021460FA81EF09FFC214D224B2C61C5E9D9
:101A300000340923C5E905361D23C5E9073840F2FE
:101A40000D1240F24313C5E9092340F2171140F289
:101A500047132846C5E90B13C5E90244AC8685F84F
:101A6000364002F0ABFFFF21F022CDE914144FF411
:101A7000806005214FF4A073CDE9160120E000BF7E
:101A8000003802400010024000080240000C0240F2
:101A9000C01600205417002000300240A08601002C
:101AA000C01500208C15002080150020400100A0EA
:101AB000181600200068014000500140005C004002
:101AC000CDE910240FA9CDE91842284622463B4D06
:101AD0001A93CDE912390F94ADF86C408DF86E4031
:101AE00003F037F8364B2B601B6898472B68354D51
:101AF000DB689847344B2846C5E90034C5E90294B1
:101B0000C5E90A49C5E90C4402F064F831462846A3
:101B100002F016F9524621460FA81EF024FC2B4D68
:101B2000DFF8CCC0AC604FF48033C5E900C3284671
:101B3000274BAB622E612E7685F82040EC62EC607C
:101B4000EF6185F830606E6101F096FB0FA92846C1
:101B5000CDE90F46119601F0B1FD0FA92846CDE958
:101B60000F6901F0ABFD0D230FA92846CDE90F3811
:101B700001F0A4FD0E230FA92846CDE90F3701F08F
:101B80009DFDFEF795FDFEF792FD12493A46284667
:101B900001F018FC04F0FAF90F4A1048214604F04D
:101BA00021FA0F4B0F4A186021460F4804F01AFA29
:101BB0000E4B186004F0FCF9FEE700BF741500201E
:101BC000140000201417002000B00240BC170020B1
:101BD0000100000F78150020141D0208A916000846
:101BE00088150020F01C0208BF060008841500209C
:101BF00000200140704770477FB5094B8DF81720D2
:101C00001B6802930DF117020123009201930A460B
:101C10000146044802F078FC07B05DF804FB00BF01
:101C200010000020C01600207FB500238DF817306B
:101C3000084B1B6802930A4601230DF1170100911E
:101C400001930146044802F0EFFC9DF8170007B02D
:101C50005DF804FB10000020C01600201FB5084CE2
:101C600024680092CDE901340A4601230146054863
:101C700002F0DAFC003818BF012004B010BD00BF2C
:101C800010000020C016002001F0E2BA10B5064C8A
:101C900000222046042102F081F920460122BDE8FD
:101CA0001040042102F07AB90008024038B50B4D0B
:101CB000044601220A484FF4005102F06FF9002255
:101CC0000421284602F06AF92046FFF7DBFC28468B
:101CD0000122BDE83840042102F060B9000802404A
:101CE000000C024038B50B4D044600220A484FF460
:101CF000005102F053F900220421284602F04EF967
:101D00002046FFF7BFFC28460122BDE838400421E9
:101D100002F044B900080240000C0240F7B5144E2E
:101D2000144F05460C4630460022042102F036F9D5
:101D300000224FF40051384602F030F92846FFF7F0
:101D4000A1FC0D4B0D481B68224601A903F07AFE49
:101D5000384601224FF40051019C02F01FF9304631
:101D60000122042102F01AF9204603B0F0BD00BFA1
:101D700000080240000C02400C000020C0150020AA
:101D800001F066BA0268034B9A4201D101F04EBAE3
:101D9000704700BF001000407047000082B00E4B3B
:101DA00000220092596C41F480415964596C01F44D
:101DB0008041009100990192196C41F080511964A1
:101DC0001B6C03F080530193019B0F216FF0010006
:101DD00002B001F023BD00BF0038024070B50646D6
:101DE00088B01422002103A81EF0BDFA32682C4BE3
:101DF0009A4253D103F58C33002500955A6C29483B
:101E000042F480725A645A6C02F480720092009A12
:101E100001951A6B42F004021A631A6B02F0040275
:101E20000192019A02951A6B42F001021A631B6B30
:101E300003F0010302930324029B03A91823CDE9B5
:101E4000033401F0C1FF1848059503A9CDE9034407
:101E500001F0BAFF154C164B4FF48062C4E900350F
:101E60004FF40063C4E904234FF400514FF480732E
:101E70002046C4E90255C4E90613C4E9085501F037
:101E800033FD08B1FFF788FFB4631220002205215B
:101E9000A66301F0C3FC122001F0F2FC08B070BD93
:101EA0000020014000080240000002405C170020B2
:101EB000106402400268094B9A4282B00BD10023A1
:101EC0000193074B1A6B42F480521A631B6B03F4A5
:101ED00080530193019B02B0704700BF0030024065
:101EE0000038024007B50F4B02689A4216D1002213
:101EF000A3F5F0430192196B41F4000119631B6BC8
:101F000003F40003019305215A20019B01F086FC94
:101F10005A2003B05DF804EB01F0B2BC03B05DF8E9
:101F200004FB00BF00B002402DE9F043044689B035
:101F30001422002103A81EF016FA2268244B9A42AC
:101F400043D1244C244800250095236B43F004031F
:101F50002363236B03F004030093009B0195236B21
:101F600043F001032363236B03F001030193019BFF
:101F70004FF012094FF400734FF0010803270426B5
:101F800003A9CDE90339CDE90587079601F01CFFC8
:101F90004FF480731148079603A9CDE90339CDE9C1
:101FA000058701F011FF0295236C43F400032364BD
:101FB000236C03F400030293029B236A43F400039F
:101FC0002362236A23F40003236209B0BDE8F0838F
:101FD000005C00400038024000080240000002405F
:101FE000F0B599B004461422002107A81EF0BBF9F1
:101FF00030220DEB020000211EF0B5F922685E4B85
:102000009A4240F0B78008230C93C0231093042316
:1020100012930CA84FF40033159303F0C3F808B1E2
:10202000FFF7BAFE554B5648002400945A6C42F014
:1020300080625A645A6C02F080620092009A0194A5
:102040001A6B42F020021A631A6B02F0200201920E
:10205000019A02941A6B42F001021A631A6B02F0A1
:1020600001020292029A03941A6B42F002021A636E
:102070001A6B02F002020392039A04941A6B42F064
:1020800040021A631A6B02F040020492049A05940B
:102090001A6B42F004021A631A6B02F004020592F2
:1020A000059A06941A6B42F008021A631B6B03F040
:1020B0000803069302250E26069B0B964FF48063B9
:1020C00007A9CDE90735CDE9094501F07DFE41F6C7
:1020D00058032C480B9607A9CDE907350927CDE908
:1020E000094501F071FE032327480B9707A9CDE9A5
:1020F0000735CDE9094501F067FE4FF470632248CA
:102100000B9607A9CDE90735CDE9094501F05CFE3D
:102110004FF40C631D480B9607A9CDE90735CDE9AF
:10212000094501F051FEC02319480B9607A9CDE9D6
:102130000735CDE9094501F047FE082315480B9600
:1021400007A9CDE90735CDE9094501F03DFE4FF47A
:10215000A0530E480B9707A9CDE90735CDE90945EE
:1021600001F032FE58202246052101F057FB58208D
:1021700001F086FB19B0F0BD006801400038024054
:102180000014024000000240000402400018024017
:1021900000080240000C024010B5044688B014222A
:1021A000002103A81EF0DFF82268144B9A4223D1C5
:1021B00003F56843002101915A6C114842F48012E2
:1021C0005A645A6C02F480120192019A02911A6BBD
:1021D00042F020021A631B6B03F020030293029B60
:1021E0004FF4607202230321CDE903230523CDE9D7
:1021F000061303A901F0E8FD08B010BD005001402E
:10220000001402402DE9F04186B0002303932B4BCC
:102210001C68002C4FD14FF00108C3F80080284BF8
:1022200000949A6B274842EA08029A639B6B03EA80
:1022300008030093022703260C25009B01A94FF6F3
:102240003F03CDE90137CDE9046501F0BDFD1E482E
:10225000059501A9CDE90187CDE9034601F0B4FD5B
:1022600048F233131948059501A9CDE90137CDE9A5
:10227000034601F0A9FD4FF683731548059501A9A2
:10228000CDE90137CDE9034601F09EFD4CF2037321
:102290001048059501A9CDE90137CDE9034601F0C4
:1022A00093FD60230C48059501A9CDE90137CDE9DF
:1022B000034601F089FD06B0BDE8F0810418002056
:1022C000003802400014024000080240001802409A
:1022D00000100240000C02400004024070B588B0BB
:1022E00000230293204B1A6C42F010021A641B6CFC
:1022F00003F010030293054601A903A8029B02F014
:1023000033FF069B4BBB02F01FFF184E184B336088
:1023100040F2E733F360174BB0FBF3F3013B73601C
:10232000304600233361B360B36103F05BFD0446C4
:1023300080B9304603F02CFC044658B9362001F031
:102340009FFA0F2D0DD822462946362001F066FA55
:10235000094B1D60204608B070BD02F0F5FE40003C
:10236000D3E70124F6E700BF003802400818002038
:102370000010004040420F007C0000207047FEE744
:10238000FEE7FEE7FEE77047014801F0C8B800BF6E
:10239000BC170020014803F039BC00BF081800201A
:1023A000014801F059BB00BF5C170020014802F052
:1023B00073BB00BF18160020014801F037BC00BFF6
:1023C000141700200120704708B51EF06FF816237F
:1023D00003604FF0FF3008BD08B51EF067F8162304
:1023E0000360FEE770B50D4614460E46731B9C4213
:1023F00001DC204670BDAFF3008006F8010BF5E765
:1024000070B50D4614460E46731B9C4201DC2046F7
:1024100070BD16F8010BAFF30080F5E74FF0FF3009
:1024200070474FF400534B60002070470120704705
:10243000002070470A4A116808B5034609B90949DE
:1024400011601068694603448B4206D91EF02EF8CD
:102450000C2303604FF0FF3008BD1360FCE700BFA2
:1024600050180020A8330120704710B504210446FD
:102470001CF035FE204610BD012908B506D0022902
:1024800008D059B900F094FB006808BD00F090FB3B
:102490004068FAE700F08CFB8068F6E70020F4E77C
:1024A000004870474C1D02080120704713B50024F6
:1024B00051B1036801948DF8034001AA9C680DF1A5
:1024C0000303A04702B010BD0846FBE7C089704770
:1024D000008A7047C088704780887047807A00F013
:1024E0007F007047807AC009704700207047000065
:1024F0009FED010A704700BF000000007047704761
:1025000000F598730868496803C3704770477047BF
:102510004160704770477047064BC0F84C3100234C
:10252000C0F8503100F5A273C0F84801C0F840313E
:10253000704700BFD9250008012303727047704718
:1025400010B4C26841685410034601EB6200D20720
:1025500048BF0A599B685DF8044B48BFD3581847D9
:102560000346406830B19A681AB9D86800F0010093
:1025700070470120704710B50C2104461CF0AFFDD8
:10258000204610BD10B5102104461CF0A8FD2046C1
:1025900010BD10B54FF4AE7104461CF0A0FD2046EE
:1025A00010BD10B50AF092FB0368BDE81040DB6B6C
:1025B000184710B50446D0F8400158B10368DB68ED
:1025C000984738B1D4F8400103689B6898470023C6
:1025D000C4F8403110BD00002DE9F14FD0E9556A33
:1025E0000746B06803681B6A98476B2805D8444BB8
:1025F000444AA32144481DF0AFFC706803681B6A7D
:1026000098470F2803D8414B3E4AA421F2E7F068CF
:1026100003681B6A98470B2803D83D4B394AA5210C
:10262000E8E70AF053FBDFF8F09004300AF073FBA0
:10263000D9F8000010B10368DB689847D9F80000AA
:1026400010B103681B689847DFF8D080D8F8000005
:1026500010B103685B699847D7F83C0110B1036873
:102660005B689847D8F8000010B103681B6898476A
:10267000D7F83C0110B103689B689847F06803687D
:1026800000215B6A98474FF0000B224BC0F804B062
:10269000044680F808B00360B068036859465B6A76
:1026A0009847054600F0EEFA7068036859465B6A81
:1026B00098472946064600F0C5FA331DC7F83C6125
:1026C000C9F80040C8F80050CAF800302B68C6F8B6
:1026D00008A02846DB68EE639847336830461B68DD
:1026E0009847214628460CF0A1FC236820461B6928
:1026F000984723685B69204601B0BDE8F04F184752
:10270000D314020861150208331602087A1602086B
:102710001D170208D41D0208B0260120AC26012096
:10272000044B1B6893F858200AB1D86C00B998681C
:10273000704700BF6826012070B5164604460D4656
:102740000AF086FB104B1C60104B2360104B0021DD
:10275000C4E951310F4BC4E9531118680368C4E947
:102760004F119B68C4E955659847FFF7D9FF14F0EE
:10277000D2FBFFF7D5FF14F049FCFFF7D1FF14F0AF
:1027800051FC204670BD00BFBC260120801D020800
:10279000681D020868260120064BC0F84C31002352
:1027A000C0F8503100F5A273C0F84801C0F84031BC
:1027B000704700BFD9250008406A7047806A70479B
:1027C00070478A880B8810B5D20A4C88C1699BB2C1
:1027D00051F8220043EA0443184410BD10B50446E2
:1027E000BAB1107B68B1537BD27A1B0203F4E06369
:1027F0001A43236A03EB82031A888A4202D193F9AF
:10280000020010BD05D8013880B204330028F3D18E
:10281000F7E70020F5E710B52C2104461CF05FFC1B
:10282000204610BD30B58BB00446BDF86050089509
:10283000BDF85C5007959DF8505006959DF84C509A
:1028400005959DF8485004959DF8445003959DF8D2
:10285000405002959DF83C500195BDF838500095C8
:102860000CF03EF8064B2360159BE361169B236238
:10287000199B63621A9BA36220460BB030BD00BF58
:10288000F81D0208704770477047704770477047DF
:10289000704710B56C2104461CF021FC204610BD89
:1028A00038B504460CF016FA0023C4E91133C4E924
:1028B0001333C4E91533C4E91733E363A3660F4A3E
:1028C00022604FF480730E4AA4F8643004F140058E
:1028D000FF23226484F8663028464FF4A071FEF787
:1028E00025FD2846F021FEF723FD4FF07F43201DF4
:1028F000A366294605F03CFC204638BD601E020850
:10290000902102087047000030B5164D2C6814F075
:1029100001048FB0BFF35B8F20D128461CF0E1FB90
:10292000E0B13F230993104B0893104B1049114815
:102930000A940122CDE906430423CDE903320A2398
:102940000093CDE90B44CDE901440594FFF76AFFFC
:1029500009481DF01FFB28461CF0CFFB05480FB0AF
:1029600030BD00BF54180020FC2B0208082C0208C0
:10297000CC2B0208581800200529000870470000D9
:1029800030B5164D2C6814F001048FB0BFF35B8F87
:1029900020D128461CF0A5FBE0B13F230993104B42
:1029A0000893104B104911480A940122CDE90643BF
:1029B0000423CDE9033214230093CDE90B44CDE980
:1029C00001440594FFF72EFF09481DF0E3FA28465D
:1029D0001CF093FB05480FB030BD00BF84180020E9
:1029E000002C02080C2C0208DC2B0208881800209E
:1029F0007D2900087047000030B5164D2C6814F092
:102A000001048FB0BFF35B8F20D128461CF069FB17
:102A1000E0B13F230993104B0893104B1049114824
:102A20000A940122CDE906430423CDE90332282389
:102A30000093CDE90B44CDE901440594FFF7F2FE84
:102A400009481DF0A7FA28461CF057FB05480FB0AF
:102A500030BD00BFB4180020042C0208102C02085E
:102A6000EC2B0208B8180020F52900080020704758
:102A7000002070470EB403B503AB002153F8042BBC
:102A800001930BF0ABF902B05DF804EB03B07047B3
:102A90000CB407B504AB53F8042B01930BF09EF96B
:102AA00003B05DF804EB02B070470000436C10B552
:102AB000044673B3038F2BB9184B194AC521194823
:102AC0001DF04AFAC38E00EB43035B8C0BB30CF092
:102AD000A0FF238F012B03D8134B144ACB21EEE721
:102AE000E28E531C9BB2092B194688BFA3F10A0141
:102AF00004EB410140F63F10498C814209D10A2B79
:102B000004EB420228BF002304EB4303508C58849B
:102B100051842046BDE810400CF07EBEC01702086C
:102B2000C917020874180208BE180208CC18020857
:102B30000CF039BE38B518BB124B13481C6813494A
:102B4000B4B1226822440260626822440A60A2682A
:102B500014440F4B00221A8000F02AF8054600F0BA
:102B600025F80C4B1C600C4B1D600C4B188007E0CB
:102B70000B4B03600B4B0B600B4B1C68002CE8D11C
:102B800038BD00BFF0180020E8180020E41800202D
:102B9000EC180020C0260120C8260120C4260120F0
:102BA000182C0208142C02081C2C02080020704764
:102BB00000487047F418002010B5FFF7E1FE044C00
:102BC0002060FFF719FF6060FFF79EFEA06010BD58
:102BD000F418002010B5002404600C6014601C6020
:102BE00010BD704710B54FF4AE7104461CF077FA73
:102BF000204610BD10B50446D0F8580100F013F877
:102C00002046BDE810400AF0E3B8000010B50446C5
:102C1000FFF792FD014B2360204610BD941E020871
:102C20000022026070477047704704387047704751
:102C300010B5102104461CF052FA204610BDA0F138
:102C40000400F5E700228260024A02601832426006
:102C5000C1607047E81E02087047000010B5034BC2
:102C600003600446FFF713FE204610BD101F020844
:102C700010B50446FFF7F2FF20466C211CF02FFA36
:102C8000204610BD10B50446FFF70AFE014B236035
:102C9000204610BD101F0208FFF7FABDF020704754
:102CA0004FF4A07070472920FFF71CB82820FFF7C9
:102CB00019B808B5FEF7EAFFCA20FFF713F8C320DA
:102CC000FEF7F4FF0820FEF7F1FF5020FEF7EEFFBD
:102CD000CF20FFF707F80020FEF7E8FFC120FEF73E
:102CE000E5FF3020FEF7E2FFED20FEF7FBFF64205A
:102CF000FEF7DCFF0320FEF7D9FF1220FEF7D6FF18
:102D00008120FEF7D3FFE820FEF7ECFF8520FEF7D9
:102D1000CDFF0020FEF7CAFF7820FEF7C7FFCB20CB
:102D2000FEF7E0FF3920FEF7C1FF2C20FEF7BEFFC3
:102D30000020FEF7BBFF3420FEF7B8FF0220FEF7AD
:102D4000B5FFF720FEF7CEFF2020FEF7AFFFEA2009
:102D5000FEF7C8FF0020FEF7A9FF0020FEF7A6FF40
:102D6000B120FEF7BFFF0020FEF7A0FF1B20FEF7FB
:102D70009DFFB620FEF7B6FF0A20FEF797FFA220C0
:102D8000FEF794FFC020FEF7ADFF1020FEF78EFF88
:102D9000C120FEF7A7FF1020FEF788FFC520FEF731
:102DA000A1FF4520FEF782FF1520FEF77FFFC72019
:102DB000FEF798FF9020FEF779FF3620FEF792FF8E
:102DC000C820FEF773FFF220FEF78CFF0020FEF70D
:102DD0006DFFB020FEF786FFC220FEF767FFB6202A
:102DE000FEF780FF0A20FEF761FFA720FEF75EFFD7
:102DF0002720FEF75BFF0420FEF758FF2A20FEF78E
:102E000071FF0020FEF752FF0020FEF74FFF002069
:102E1000FEF74CFFEF20FEF749FF2B20FEF762FF85
:102E20000020FEF743FF0020FEF740FF0120FEF7E1
:102E30003DFF3F20FEF73AFFF620FEF753FF01204B
:102E4000FEF734FF0020FEF731FF0620FEF72EFFCD
:102E50002C20FEF747FFC820FEF792FF2620FEF742
:102E600041FF0120FEF722FFE020FEF73BFF0F208D
:102E7000FEF71CFF2920FEF719FF2420FEF716FF9E
:102E80000C20FEF713FF0E20FEF710FF0920FEF7BF
:102E90000DFF4E20FEF70AFF7820FEF707FF3C20CB
:102EA000FEF704FF0920FEF701FF1320FEF7FEFEE8
:102EB0000520FEF7FBFE1720FEF7F8FE1120FEF7B7
:102EC000F5FE0020FEF7F2FEE120FEF70BFF0020EA
:102ED000FEF7ECFE1620FEF7E9FE1B20FEF7E6FEED
:102EE0000420FEF7E3FE1120FEF7E0FE0720FEF7C8
:102EF000DDFE3120FEF7DAFE3320FEF7D7FE42205A
:102F0000FEF7D4FE0520FEF7D1FE0C20FEF7CEFE24
:102F10000A20FEF7CBFE2820FEF7C8FE2F20FEF782
:102F2000C5FE0F20FEF7C2FE1120FEF7DBFEC82013
:102F3000FEF726FF2920FEF7D5FEBDE808402C202D
:102F4000FEF7D0BE08B5FEF7A1FE0321D320FEF7A1
:102F5000E5FE80B208BD10B5C4B2022203212046AE
:102F6000FEF74AFE0A20FEF78FFE204600220321CC
:102F7000FEF742FEBDE810400220FEF785BE38B5E0
:102F80000446E4B2FEF736FE00212046FEF74CFE72
:102F9000012105462046FEF747FE40EA052080B2A3
:102FA00038BD10B5C4B240212046FEF73DFE0306F1
:102FB00007D54C212046FEF737FE003818BF012008
:102FC00010BD01224B212046FEF716FE20460022AE
:102FD0004B21FEF711FE0020F2E773B50423C4B2C3
:102FE0000E461546D7210DEB03022046FEF736FEAE
:102FF000019B1BBA1A0DC3F30B23328020462B8092
:1030000001224B21FEF7F8FD00224B212046FEF75E
:10301000F3FD02B070BD000010B50A4A1378984263
:1030200004460DD0517888420AD00BB141B9012332
:10303000D454FEF7DFFD2046BDE81040FFF78BBFFC
:1030400010BD00BF0019002010B5C4B209212046F0
:10305000FEF7EAFD40F00102D2B220460921BDE8A8
:103060001040FEF7C9BD10B5C4B209212046FEF7D5
:10307000DBFD092100F0FE022046BDE81040FEF70E
:10308000BBBD38B5C4B20D4620460A21FEF7CCFDC3
:1030900040EA0502D2B220460A21BDE83840FEF7D8
:1030A000ABBD10B50446FEF7A6FD20461F21FFF775
:1030B000E8FF2046BDE81040FFF7C6BF38B5C4B2F0
:1030C0000D4620460A21FEF7AFFD20EA0502D2B2E6
:1030D00020460A21BDE83840FEF78EBD10B50446F3
:1030E000FFF7C1FF20461F21BDE81040FFF7E6BFF4
:1030F00010B5C0B20C460B21FEF796FD204010BD66
:103100001F21FFF7F5BF0A46C0B20B21FEF774BDC1
:103110001F21FFF7F8BF38B5C4B20D46204617216E
:10312000FEF782FD20EA0502D2B220461721BDE853
:103130003840FEF761BD70B5C4B206460421204692
:10314000FEF772FD042100F0FB0205462046FEF763
:1031500053FD3046F021FFF7DEFF05F0F802204670
:103160000421FEF749FD492220212046FEF744FDB7
:103170000220FEF789FD204601222121FEF73CFDB9
:1031800020469A224121FEF737FD204601224A219E
:10319000FEF732FD204601224B21FEF72DFD204691
:1031A00000224B21FEF728FD204601225621FEF782
:1031B00023FD204601225821FEF71EFD2046012254
:1031C0004021FEF719FD2046FF220B21FEF714FDDA
:1031D000BDE870400220FEF757BD0000054BD3F854
:1031E000882042F47002C3F888204FF000629A6091
:1031F000704700BF00ED00E008B50B4B1A6842F4C1
:1032000000721A601A6842F480621A601A6842F406
:1032100080721A60032000F0EFFA0020FFF75EF8DA
:10322000FEF7BCFD002008BD003C0240034A044BF1
:1032300011681B780B441360704700BF041900200D
:1032400078000020014B1868704700BF0419002067
:1032500038B50446FFF7F6FF631C1CBF054B1B780F
:10326000054618BFE418FFF7EDFF431BA342FAD34E
:1032700038BD00BF7800002038B50446002800F0B3
:103280009B80056C25B9FEF7A9FD656484F83C5068
:10329000236CDB0600F18E80236C23F4885323F02B
:1032A000020343F002032364444B5A6822F4403281
:1032B0005A605A6861680A435A60236821695A68EB
:1032C00022F480725A605A6842EA01225A605A68AF
:1032D000A16822F040725A605A680A435A609A689C
:1032E000E16822F400629A609A680A439A6034495D
:1032F000A26A8A4252D0996821F0706199609968F7
:103300000A439A609A68E16A22F040529A609A6889
:103310000A439A609A6822F002029A609A68217EB3
:1033200042EA41029A6094F82020002A3ED05A686E
:10333000616A42F400625A605A6822F460425A603C
:103340005A68013942EA41325A60DA6AE16922F484
:103350007002DA62DA6A013942EA0152DA629A6884
:1033600022F400729A609A6894F8301042EA41227E
:103370009A609A68616922F480629A609A68002073
:1033800042EA81229A606064236C23F0030343F0D5
:1033900001032364002384F83C3038BD9A6822F08E
:1033A00070629A609A6822F04052B2E75A6822F43A
:1033B0000062C9E70120EDE70120EEE700230140AC
:1033C0000100000F37B513460022019290F83C200F
:1033D000012A044600F088800568012280F83C201C
:1033E000AA68D00752D5AA68D20562D4AA68D007C5
:1033F00071D5206C20F4E06020F0010040F4807072
:1034000020646A68520541BF206C20F4405040F4AB
:1034100080502064226CA06B12F480521CBF626C3E
:1034200022F006026264002284F83C202F4AC26324
:103430002F4A02642F4AC2646FF022022A606A682F
:1034400042F080626A60AA6842F48072AA600A460A
:1034500005F14C0100F0C6FA274A2849536813F0D9
:103460001F0F236834D18B4207D001F580718B4246
:1034700024D1526812F01F0F23D19A6812F0405FD6
:103480001FD19A6842F080429A601AE0AA6842F01E
:103490000102AA601A4A10681A4AB0FBF2F000EB67
:1034A00040000190019A002A9DD0019A013A0192B0
:1034B000F8E7AA6822F48072AA6097E712498B4263
:1034C00002D0002003B030BD526812F0100FD3E7D5
:1034D0008B42F6D1D1E7236C43F010032364636C75
:1034E00043F001036364ECE70220EBE75136000888
:1034F000113500083B360008002301400020014040
:103500007400002040420F000022014070477047C5
:1035100008B5806BFFF7FBFF08BD70477047036875
:1035200070B51E685D68B20704462BD5A80629D57C
:10353000226CD1065EBF226C42F4007222649A684B
:1035400012F0405F17D1227EAAB9DA6A12F4700F26
:1035500002D09A6852050ED45A6822F020025A60AE
:10356000236C23F480732364236CD8045EBF236C24
:1035700043F0010323642046FFF7C8FF23686FF080
:1035800012021A60710733D52A0631D5236CDB0687
:103590005EBF236C43F40053236423689A6812F4DB
:1035A000401F1ED19A6B12F4401F02D09A6850053A
:1035B00017D45A68510514D49A6812F0405F10D19C
:1035C000227E72B95A6822F080025A60236C23F47A
:1035D00080532364236CDA055EBF236C43F0010340
:1035E0002364204600F006F923686FF00C021A608D
:1035F000F30710D568060ED523681B68D9070AD5CE
:10360000236C43F4803323642046FFF786FF23684E
:103610006FF001021A60B2060ED56B010CD5636C17
:1036200043F00203636423686FF020051D602046A9
:10363000FFF774FF23681D6070BD806B08B54023E1
:103640000364436C43F004034364FFF767FF08BD62
:10365000836B1A6C12F0500F10B51A6C23D142F420
:1036600000721A641A68916811F0405F17D1197ED0
:10367000A9B9D16A11F4700F02D0916848050ED42F
:10368000516821F0200151601A6C22F480721A6492
:103690001A6CD1045EBF1A6C42F001021A6418461B
:1036A000FFF734FF10BDD20603D51846FFF736FFEB
:1036B000F8E79B6BBDE81040DB6C1847F7B50023BB
:1036C000019390F83C30012B054600F086800123E1
:1036D00080F83C3008682B688E68092884B233D99A
:1036E00004EB4402DF681E3A4FF0070C0CFA02FCB0
:1036F00027EA0C07DF60DF6806FA02F23A43DA6075
:103700004968062901EB81022DD8596B053A1F261D
:10371000964021EA06015963596B04FA02F20A4302
:103720005A632F4A93420AD1122837D12D4B5A6837
:1037300022F400025A605A6842F480025A60002063
:1037400085F83C0003B0F0BD1A6900EB400C072778
:1037500007FA0CF722EA07021A611A6906FA0CF650
:1037600016431E61CCE70C294FF01F010BD81E6BCE
:10377000233A914026EA01011963196B04FA02F217
:103780000A431A63CDE7DE6A413A914026EA010115
:10379000D962D96A94400C43DC62C2E7124B98426A
:1037A00001D01128CBD10F4B5A6822F480025A6005
:1037B0005A6842F400025A600B4B9842BFD10B4B3F
:1037C0000B4A1B68B3FBF2F30A2253430193019B9C
:1037D000002BB4D0019B013BF8E70220B2E700BF09
:1037E000002001400023014012000010740000205E
:1037F00040420F00704700000749CA6822F4E062A7
:103800000302120403F4E063120C134343F0BF639A
:1038100043F40033CB60704700ED00E0164B30B549
:10382000DC68C4F30224C4F10703251D042B28BF60
:103830000423062D4FF0FF358CBF033C002405FA0E
:1038400003F321EA0303A54022EA0502A34000286E
:1038500043EA0203ACBF00F16040084A4FEA031399
:10386000B8BF00F00F00DBB2AABF00F561401354EF
:1038700080F8003330BD00BF00ED00E014ED00E043
:10388000002807DB044A4109012300F01F008340A0
:1038900042F82130704700BF00E100E010B5044657
:1038A00050B1437903F0FF0213B90271FEF702FB36
:1038B00001236371002010BD0120FCE7036810B5EF
:1038C000084C0246D9B210391820B1FBF0F0205C48
:1038D000D06523F47F7020F003005F2988BF043097
:1038E000906510BD541F020870B50446FFF7AAFC8E
:1038F0000546002C60D0022384F83530226800236E
:1039000084F83430136823F00103136022681368CD
:10391000D8072ED413683248A1691840D4E901357C
:103920002B43E5682B4325692B4365692B43E569E8
:103930000B432B43256A2B430343606A042802BFD1
:10394000D4E90B5635432B4313605369042823F005
:10395000070343EA000335D1A06AE56A03438DB348
:1039600091B9012820D030F002012BD1E90129D5ED
:103970001DE0FFF767FC401B0528C7D92023032063
:10398000636584F8350070BDB1F5005F16D103287A
:1039900018D801A151F820F0AF3900086D3900089E
:1039A000AF390008A9390008B5F1C07F0AD140231A
:1039B0006365012384F835300120E4E70228F6D955
:1039C0000328D3D053612046FFF778FFE26D3F23F1
:1039D0009340836000200123606584F83530D2E78E
:1039E0003F8010F070B590F83440866D012C30D0D7
:1039F000012480F8344090F83540012C4FF0000449
:103A000025D1022580F8355044650468256825F4E1
:103A10008025256063608368402B0EBFA260A16093
:103A2000E260C26D08BFE1603F239340B36023684A
:103A300043F016032360036C1BB1236843F00803B3
:103A40002360236843F001032360002070BD80F8E9
:103A500034400220FAE70000F7B5002301935C4BE5
:103A6000856D1F68C36D2E6808229A403242044655
:103A70000CD001680868400708D5086820F00400E9
:103A80000860AA60626D42F00102626501229A40FC
:103A9000324208D021684969090641BFAA60626DB7
:103AA00042F00202626504229A40324208D0216844
:103AB0000968880741BFAA60626D42F0040262652E
:103AC00010229A40324210D02368196809070CD599
:103AD000AA601A68500337D51B68190301D4236CF8
:103AE00000E0A36C0BB120469847E16D20228A408C
:103AF00032423AD023681868C60636D5AA6094F8D0
:103B00003520052A1A6827D122F016021A605A6950
:103B100022F080025A61226C0AB9A26C1AB11A68AA
:103B200022F008021A603F238B40AB60012384F827
:103B30003530002384F83430236D002B45D02046E7
:103B400003B0BDE8F04018471A68D2055EBF1A6896
:103B500022F008021A60C2E7500327D51B68190338
:103B600031D4636C0BB120469847636D6BB3636DC2
:103B7000DA0719D522684FF41653B7FBF3F705237C
:103B800084F83530136823F001031360019B01337F
:103B9000BB42019302D81368DB07F7D4012384F8F2
:103BA0003530002384F83430E36CC6E71A6812F429
:103BB000807208D1196821F010011960012384F87E
:103BC000353084F83420E36BCCE703B0F0BD00BFA0
:103BD0007400002010B5044620B390F8393003F08B
:103BE000FF021BB980F83820FEF77CF9022384F825
:103BF0003930236861681A6822F440320A431A6037
:103C00005A6BA16822F007020A435A631A6CE168F2
:103C10006FF30D020A431A6400200123E06384F865
:103C2000393010BD0120FCE770477047036870B55C
:103C30005E681D68F207044614D5E90512D51A68B6
:103C400022F480721A60C26B42F00102C263012248
:103C50009A60042380F83930002380F838304369B3
:103C600003B19847B20616D5AB0414D523681A6879
:103C700022F400521A6020229A60E36B43F00203A0
:103C8000E363042384F83930002384F8383063690F
:103C90000BB120469847300716D5290514D523685F
:103CA0001A6822F400621A6008229A60E36B43F0FB
:103CB0000403E363042384F83930002384F83830A4
:103CC00063690BB12046984772070BD56B0509D580
:103CD00023681A6822F480621A6004229A602046DF
:103CE000FFF7A2FFB00714D5A90512D523681A68FB
:103CF00022F400721A6002229A60E36BE3630123EC
:103D000084F83930002384F8383023690BB1204619
:103D10009847F20613D5EB0411D523681A6822F4EC
:103D200080521A6010229A60E36BE363012384F8E7
:103D30003930002384F838302046FFF776FF70BD15
:103D4000F0B590F83820012A03464FF002002BD03E
:103D5000012283F8382083F8390003EB0112D2E9FD
:103D60000740556A174F44EA0040093C012C9CBFAC
:103D700005F07F4210434FEA01161A6888BF40EAF7
:103D8000056091B9516A394001435162012C99692A
:103D9000916103D8596A21F07F419162012200208C
:103DA00083F8392083F83800F0BDD16939400143E8
:103DB000D1619919012C896911619CBF25F07F455A
:103DC0001562EBE7F0FFFC002DE9F74FDFF8BC913F
:103DD0006C4A00230D6801249C4004EA0506AC43AC
:103DE00040F0B7804D68032705F003044FEA43080D
:103DF00007FA08FC671E012F6FEA0C0C34D887689D
:103E000007EA0C0ECF6807FA08F747EA0E07876043
:103E1000476827EA060EC5F300179F4047EA0E07DA
:103E20004760C76807EA0C0E8F6807FA08F747EA89
:103E30000E07022CC76019D14FEAD30A00EB8A0A99
:103E400003F0070BDAF820704FEA8B0B4FF00F0EE0
:103E50000EFA0BFE27EA0E0E0F6907FA0BF747EA78
:103E60000E07CAF8207001E0032CDAD1076804FAC3
:103E700008F407EA0C073C4315F4403F046068D09F
:103E800000240194D9F8444044F48044C9F84440E3
:103E9000D9F8444023F0030707F1804704F4804435
:103EA00007F59C37019403F0030C019CD7F808E058
:103EB0004FEA8C0C0F2404FA0CF42EEA040E324C58
:103EC000A0424DD004F58064A0424BD004F580643C
:103ED000A04249D004F58064A04247D004F5806434
:103EE000A04245D004F58064A04243D004F580642C
:103EF000A04241D004F58064A0423FD004F5806424
:103F0000A0423DD004F58064A04214BF0A240924D5
:103F100004FA0CF444EA0E04BC609468F74315F408
:103F2000801F0CBF3C4034439460D46815F4001FDC
:103F30000CBF3C403443D460546815F4003F0CBFC0
:103F40003C40344354601468ED0354BF3C40344358
:103F500014600133102B7FF43DAF03B0BDE8F08F48
:103F60000024D5E70124D3E70224D1E70324CFE7D7
:103F70000424CDE70524CBE70624C9E70724C7E7D7
:103F80000824C5E7003C0140000002400038024020
:103F90000369194214BF0120002070470AB18161F2
:103FA00070470904FBE7436901EA030221EA0301C0
:103FB00041EA02418161704701684B6913F48063F3
:103FC0004FF0000210D06FF480634B612023026336
:103FD00080F83D3080F83E20036C80F83C2043F0B0
:103FE0000403036401207047184670472DE9F84622
:103FF00006460F4691461D464FEA114A3368BAF10C
:10400000010F0CBF5C699C6927EA0404A4B2B4FAEE
:1040100084F46409A14501D0002025E06A1CEED09B
:10402000FFF710F9089BC01AA84201D8002DE5D16E
:104030003368BAF1010F0CBF5B699B6927EA030380
:104040009BB2B3FA83F35B099945D7D100232022B1
:10405000336386F83D2086F83E30326C86F83C307B
:1040600042F0200232640120BDE8F8862DE9F041DB
:1040700004460F46164698462568686927EA0000F8
:1040800080B2C0B16B695A0517D52B6843F4007331
:104090002B606FF480636B6120220023236384F81C
:1040A0003D2084F83E30236C43F004032364002356
:1040B00084F83C300120BDE8F081731CDDD0FFF7AF
:1040C000C1F8A0EB0800B04201D8002ED4D123687B
:1040D0005A6927EA020292B2002ACDD00023202298
:1040E000236384F83D2084F83E30236C1343DDE7DE
:1040F00070B504460D46164623685B691B0601D55C
:1041000000201EE02046FFF757FFC8B96A1CF3D015
:10411000FFF798F8801BA84201D8002DECD1236846
:104120005B6913F08003E7D12022236384F83D20EC
:1041300084F83E30226C84F83C3042F02002226445
:10414000012070BD2DE9F0431546026885B0DDE918
:104150000C789946136843F4807313600E463B460F
:10416000CDF8008000224FF001110446FFF73EFF1A
:10417000236838B11B68DB0502D54FF40073236454
:10418000032620E006F0FE061E611A4943463A4621
:104190002046FFF76BFFA8B9236803905A69039282
:1041A0009B690393424639462046039BFFF7A0FFD5
:1041B000064660B1236C042B01BF2268136843F4E8
:1041C000007313600126304605B0BDE8F083B9F1F5
:1041D000010F236802D1EDB21D61F4E72A0A1A61CA
:1041E000394642462046FFF783FF0028E2D1236884
:1041F000F1E700BF020001002DE9FF479A4603687E
:1042000015461A6842F480621A601A68DDE90C7873
:1042100042F480721A600E463B46CDF800800022C0
:104220004FF001110446FFF7E1FE236838B11B6827
:10423000DB0544BF4FF400732364032021E05FFAE1
:1042400086F906F0FE061E612B4943463A46204693
:10425000FFF70CFFA0B9236803905A6903929B698A
:104260000393424639462046039BFFF741FF58B16E
:10427000236C042B01BF2268136843F4007313609E
:10428000012004B0BDE8F087BAF1010F23681AD10C
:10429000EDB242461D6139462046FFF729FF02462E
:1042A0000028E5D121680B6843F480730B60204639
:1042B000CDF800803B464FF00111FFF797FE2268D2
:1042C00060B11368B4E72A0A1A61394642462046AB
:1042D000FFF70EFF0028CBD12368D9E749F001038F
:1042E0001361054943463A462046FFF7BFFE0038B2
:1042F00018BF0120C5E700BF0200010070B50446E9
:104300000D46164623685B695B0701D500201EE059
:104310002046FFF751FEC8B96A1CF3D0FEF792FFA2
:10432000801BA84201D8002DECD123685B6913F0F3
:104330000403E7D12022236384F83D2084F83E3033
:10434000226C84F83C3042F020022264012070BDCF
:1043500070B504460D46164621684B6913F04003BC
:1043600001D0002011E04A69D2060FD56FF010028B
:104370004A612022236384F83D2084F83E30236C78
:104380002364002384F83C30012070BDFEF75AFFFF
:10439000801BA84201D8002DDED123685B6913F091
:1043A0004003D9D12022236384F83D2084F83E3095
:1043B000236C1343E4E7000070B5044608B90120FC
:1043C00070BD90F83D3003F0FF021BB980F83C202F
:1043D000FDF7AAFD242384F83D3023681A6822F0F3
:1043E00001021A601A6842F400421A601A6822F444
:1043F00000421A6000F0A8FE3F4B65689D4294BFE2
:104400003E4B3F4B98428CBF00230123002BD6D15B
:104410002268394E51683B4BB0FBF3F321F03F016A
:104420001943B542516088BF4FF49676116A88BF30
:10443000734321F03F0184BF4FF47A76B3FBF6F368
:1044400001330B431362D169431E2B4821F44F41C2
:10445000854221F0FF0132D86D0040F6FC70B3FBBD
:10446000F5F30133034242D0C3F30B031943D16187
:10447000D4E907301168034321F0C0010B431360F6
:104480009168D4E9030321F40341034321F0FF01C0
:104490000B439360D4E90530D168034321F0FF0159
:1044A0000B43D360136843F0010313600020202303
:1044B000206484F83D30206384F83E0080E7A068E3
:1044C00050B905EB4505B3FBF5F30133C3F30B031B
:1044D0007BB143F40043C9E719206843B3FBF0F311
:1044E0000133C3F30B0323B143F44043BEE704237A
:1044F000BCE70123BAE700BFA08601007F841E004D
:10450000FF083D0040420F002DE9F743044699465D
:104510000C9E0F469046FEF795FE94F83D30202BFA
:10452000054603D0022003B0BDE8F08300903C496B
:10453000192301222046FFF759FD0028F2D194F8F3
:104540003C30012BEED02068012384F83C30036816
:10455000D9075EBF036843F001030360036823F4D7
:1045600000630360212384F83D30402384F83E300B
:10457000002323640A9B6362BDF82C306385638D3E
:104580002385284BE3624246CDE900654B46394618
:104590002046FFF7D7FD00282AD00120C3E7FFF708
:1045A000A7FD40B1236C042B01BF2268136843F4BC
:1045B00000731360F1E7636A27681A4612F8011B5B
:1045C00039616262628D218D013A92B262857A69A7
:1045D000481E80B2520720850AD548B15A783A6100
:1045E00002336362638D013B02399BB2218563858F
:1045F000238D2A4631462046002BD0D1FFF77EFE80
:104600000028CFD12268136843F40073136020237D
:1046100084F83D3084F83C0084F83E0083E700BF16
:10462000020010000000FFFF2DE9F043044687B0B0
:104630009946109F0D469046FEF704FE94F83D30D3
:10464000202B064604D00225284607B0BDE8F0839B
:1046500000907A49192301222046FFF7C7FC002861
:10466000F1D194F83C30012BEDD02068012384F87F
:104670003C300368DB075EBF036843F0010303605F
:10468000036823F400630360222384F83D30402351
:1046900084F83E30002323640E9B6362BDF83C30F7
:1046A0006385638D2385664BE3622946CDE90076F9
:1046B0004B4642462046FFF79FFD054608B10125BF
:1046C000C2E7228D2368B2B902905A6902929A69B0
:1046D0000292029A1A6842F400721A60DFF864814A
:1046E000238D002B2CD1202284F83D2084F83C30EF
:1046F00084F83E30A8E7012A0AD11A6822F48062C1
:104700001A6003905A6903929A690392039AE1E747
:10471000022A0ED11A6822F480621A601A6842F4E2
:1047200000621A6004905A6904929B690493049B86
:10473000D4E705905A6905929B690593059BCDE7DF
:10474000032B56D8012B15D1324639462046FFF7A8
:10475000FFFD0028B3D123681A69636A1A70636A7F
:1047600001336362238D013B2385638D013B9BB243
:104770006385B5E7022B00963B464FF000024146A9
:10478000204619D1FFF732FC002898D123681A6817
:1047900042F400721A601A69636A1A70626A531CE2
:1047A0006362238D013B2385638D013B9BB263854F
:1047B00023681B695370D2E7FFF718FC02460028F4
:1047C0007FF47DAF2368196821F48061196019694D
:1047D000636A1970636A01336362238D013B238529
:1047E000638D013B9BB26385414600963B46204664
:1047F000C8E7324639462046FFF7AAFD00287FF475
:104800005EAF23681A69636A1A70628D616A013A41
:1048100092B24B1C628522686362238D5069013B12
:104820009BB2400723857FF55BAF032B02BF136864
:1048300023F48063136013694B7090E7020010004B
:104840000000FFFF0400010010B590F83D30202B60
:10485000DCB216D1242380F83D3003681A6822F0B8
:1048600001021A605A6A22F010025A625A6A11430F
:1048700059621A6842F001021A6080F83D40002037
:1048800010BD0220FCE730B590F83D30202BDCB2A3
:1048900016D10268242380F83D30136823F0010309
:1048A0001360556A4FF6F0732B400B439BB2536273
:1048B000136843F00103136080F83D40002030BDD1
:1048C0000220FCE70068D1F800C0D20184328318CE
:1048D0002DE9F043C6685D684C68D1F8189005F47E
:1048E00070455D60C5680CF10107C5F30B45C6F363
:1048F0000B4626443D4445EA06455D60C668CD68E2
:10490000C6F30A062E449D6805F470459D60C7688D
:104910008D68C7F30A0701353D4445EA06459D60A9
:104920001D690E6925F007051D614FF0000E1E611F
:1049300091F832709D6991F83180C3F818E091F8D0
:10494000305045EA096545EA082545EA07459D6175
:104950005D6925F0FF055D614D695D61DD6925F4E7
:10496000E06525F00705DD61D1E907573D43DD61CD
:104970009D6A4D6AC3F828E0072E9D629CBF0E4DCC
:10498000AE5DDD6A05F0E025DD6288BF01268D6A37
:10499000C96AA4EB0C0474437543033444EA054428
:1049A000DC621C6B6FF30A041C631963835843F0C9
:1049B00001038350BDE8F0835C1F020838B504464C
:1049C000002863D090F8A13003F0FF021BB980F8F3
:1049D000A020FDF705FB022384F8A13023689A6923
:1049E00022F070429A61D4E901200243E06899699B
:1049F0000243206902430A439A619A682449606924
:104A00000A409A609A6842EA0042A06902439A60AA
:104A1000DA68E0690A40DA60DA6842EA0042206A4D
:104A20000243DA601A69606A0A401A611A6942EA46
:104A30000042A06A02431A615A690A405A615A69DF
:104A4000E16A42EA0142216B0A435A61DA6A94F848
:104A5000350094F8361002F07F42DA62DD6A94F88D
:104A600034202A4342EA002242EA0142DA625A6BC7
:104A700042F006025A639A6942F001029A610020EC
:104A80000123C4F8A40084F8A13038BD0120FCE75C
:104A900000F800F070477047036870B59E6B5D6B5F
:104AA0007207044614D5690712D55A6B22F0040226
:104AB0005A630422DA63D0F8A43043F00103C0F84B
:104AC000A430002380F8A12080F8A030FFF7E2FF97
:104AD000B20716D5AB0714D523685A6B22F0020231
:104AE0005A630222DA63D4F8A4301343C4F8A43022
:104AF000042384F8A130002384F8A0302046FFF777
:104B0000C9FFF00710D5E9070ED523685A6B22F0CC
:104B100001025A630122DA63002384F8A12084F899
:104B2000A0302046FCF774FD320711D52B070FD5B6
:104B300023685A6B22F008025A630822DA630123C1
:104B400084F8A130002384F8A0302046FFF7A3FFAB
:104B500070BD2DE9F04190F8A030012B06460F46BC
:104B600094464FF002001FD04FF0010886F8A08055
:104B700086F8A10034240D4604FB02640FCD3834BE
:104B80000FC40FCD0FC40FCD0FC42B682360304668
:104B900062463946FFF796FE33680020C3F824804A
:104BA00086F8A18086F8A000BDE8F08190F8A020EA
:104BB000012A03464FF0020012D01A6883F8A100C0
:104BC000506B20F00100506306480164516B41F0C6
:104BD000010151630020012283F8A12083F8A00085
:104BE000704700BF0068014037B500230193184BA0
:104BF000184D1A6C42F080521A641B6C03F08053FB
:104C00000193019B144B01221A64FEF71BFB04461F
:104C10006B68DA030BD5104B0E4D01225A64FEF778
:104C200011FB04466B689B030AD5002006E0FEF7E3
:104C300009FB001BB0F57A7FEAD9032003B030BD31
:104C4000FEF700FB001BB0F57A7FEBD9F5E700BF5C
:104C5000003802400070004000000E422DE9F34190
:104C6000044640B30368DE0710D423689D075BD475
:104C70002368190700F19D8023685A0700F1BD8061
:104C8000A369002B40F0248100202CE08D4B9A6812
:104C900002F00C02042A07D09A6802F00C02082ADB
:104CA0000BD15B68590208D5864B1B689A03DCD58B
:104CB0006368002BD9D1012015E06368814DB3F5FD
:104CC000803F13D12B6843F480332B60FEF7BAFA90
:104CD0007C4E054633689B03C7D4FEF7B3FA401BEE
:104CE0006428F7D9032002B0BDE8F081B3F5A02F06
:104CF00004D12B6843F480232B60E3E72A6822F475
:104D000080322A602A6822F480222A60002BDDD1BA
:104D1000FEF798FA06462B689F03A6D5FEF792FA8F
:104D2000801B6428F7D9DDE7664B9A6812F00C0FF8
:104D300007D09A6802F00C02082A11D15B685D0264
:104D40000ED4604A1368990702D5E368012BB2D1EB
:104D50001368216923F0F80343EAC103136087E76E
:104D6000E268594BB2B101221A60FEF76BFA554D59
:104D700006462B689B0707D52B68226923F0F803AA
:104D800043EAC2032B6073E7FEF75CFA801B02283C
:104D9000EFD9A7E71A60FEF755FA4A4E0546336881
:104DA0009F077FF565AFFEF74DFA401B0228F6D945
:104DB00098E76269444B82B10122C3F8802EFEF766
:104DC00041FA404E0546736F9B073FF555AFFEF71E
:104DD00039FA401B0228F6D984E7C3F8802EFEF783
:104DE00031FA384E0546736F9F077FF545AFFEF7E2
:104DF00029FA401B0228F6D974E7324B1A6C12F0DC
:104E0000805228D101921A6C42F080521A641B6CB5
:104E100003F080530193019B01272C4D2B68D8058B
:104E20001BD5A368274D012B27D12B6F43F001031E
:104E30002B67FEF707FA234E054641F28838336F99
:104E40009A0739D5002F3FF41BAF1E4A136C23F08D
:104E50008053136414E70027DFE72B6843F4807363
:104E60002B60FEF7EFF906462B68D905D9D4FEF77B
:104E7000E9F9801B0228F7D934E7052B04D12B6F01
:104E800043F004032B67D0E72A6F22F001022A6760
:104E90002A6F22F004022A67002BCAD1FEF7D2F94A
:104EA00041F2883806462B6F9B07CBD5FEF7CAF92F
:104EB000801B4045F7D915E7FEF7C4F9401B404574
:104EC000BDD90FE7003802400000474200700040A3
:104ED000374DAA6802F00C02082A3ED0022B354B4F
:104EE0004FF000021A662BD1FEF7ACF906462B688C
:104EF00099011FD4D4E907321343626A43EA82134B
:104F0000E26A43EA0263A26A5208013A43EA0243B0
:104F10006B60284B264D01221A66FEF793F9044672
:104F20002B689A013FF5B0AEFEF78CF9001B022802
:104F3000F6D9D7E6FEF786F9801B0228D7D9D1E645
:104F4000FEF780F904462B689B017FF59DAEFEF7C6
:104F500079F9001B0228F6D9C4E6012B3FF4ABAE69
:104F60006B68E26903F4800191427FF4A4AE216A88
:104F700003F03F028A427FF49EAE616A47F6C07238
:104F80001A40B2EB811F7FF496AEA26A520803F476
:104F90004031013AB1EB024F7FF48DAEE26A03F08B
:104FA0007063B3EB026F14BF012000209BE600BFCB
:104FB0000038024000004742134908B58B6803F0EF
:104FC0000C03042B1CD0082B1CD14A684B68496881
:104FD00013F4800314BF0D480D48C1F3881118BFA6
:104FE000002302F03F02A1FB0001FBF7A1F9064BF1
:104FF0005B68C3F3014301335B00B0FBF3F008BD12
:105000000248FCE70248FAE70038024000127A0042
:105010000024F4002DE9F0410D46044610B90120AA
:10502000BDE8F081434B1A6802F00F028A4228D390
:1050300021688F072DD4C80740D43E4B1A6802F070
:105040000F02AA4265D8226851076BD4130707D50F
:10505000394A2169936823F4604343EAC1039360AA
:10506000FFF7AAFF344B354A9B68C3F30313D35CA5
:10507000D840334B1860334B1868FDF72FF90020E8
:10508000CEE7CAB21A701B6803F00F038B42C6D179
:10509000CEE7294B11F0040F1EBF9A6842F4E0528C
:1050A0009A600E0742BF9A6842F460429A609A681A
:1050B000A06822F0F00202439A60BCE762681E4BCF
:1050C000012A1CD11B6813F4003FA8D01A4EB36804
:1050D00023F003031343B360FEF7B4F841F28838BA
:1050E0000746B368626803F00C03B3EB820FA4D0E9
:1050F000FEF7A8F8C01B4045F3D9032090E7911EA6
:1051000001291B6802D813F0007FDEE713F0020FBD
:10511000DBE7EAB21A701B6803F00F03AB427FF4BF
:105120007EAF90E70449E0688B6823F4E0530343C3
:105130008B608BE7003C024000380240441F0208AD
:10514000740000207C000020044B054A9B68C3F3D8
:105150008223D35C034A1068D8407047003802406D
:105160003C1F0208740000200F2303600B4B9A6859
:1051700002F0030242609A6802F0F00282609A68CC
:1051800002F4E052C2609B68DB0803F4E053036161
:10519000034B1B6803F00F030B607047003802409D
:1051A000003C0240036813F0430FF7B5044640F09B
:1051B0008880236813F00C0F45D08C4B8C4D002257
:1051C0001A67FEF73FF806462B68990000F1CB807E
:1051D00021684A0715D5D4E90403D5F888201B06B1
:1051E00002F0E04243EA80131343C5F88830D5F853
:1051F0008C30226A23F4F853013A43EA0223C5F8BB
:105200008C300B0714D57A4AA369D2F8881020692C
:105210001B0701F0706143EA80130B43C2F888302A
:10522000D2F88C30616A23F440330B43C2F88C30DF
:105230006E4B6F4E01221A67FEF704F8054633687D
:105240009F0040F197802368980634D5002301938E
:10525000674B684D1A6C42F080521A641B6C03F065
:1052600080530193019B2B6843F480732B60FDF7FF
:10527000E9FF06462B68D80540F183805C4DA26AA1
:105280002B6F13F4407340F08380A36A03F44072E1
:10529000B2F5407F564A40F09E80916823F07040FE
:1052A00021F4F81120F4407001439160116FC3F3B1
:1052B0000B030B4313672368DB0600F1908000208B
:1052C0004FE04A4B4A4E00229A66FDF7BBFF054667
:1052D00033681F013FD42168C80741BFD4E90123C7
:1052E0001B0743EA8213C6F884308A0715D5404A63
:1052F000E368D2F8840065681B0600F0E04043EAEA
:1053000085130343C2F88430D2F88C00E36920F09F
:105310001F00013B0343C2F88C304B060AD5E368FB
:1053200062681B0643EA8213A26843EA0273304AAA
:10533000C2F884302D4B2E4E01229A66FDF782FF73
:10534000054633681F013FF534AFFDF77BFF401B77
:105350000228F6D904E0FDF775FF401B0228B7D9F3
:10536000032003B0F0BDFDF76DFF801B02287FF620
:105370002BAFF5E7FDF766FF401B02287FF65FAF16
:10538000EEE7FDF75FFF801B02287FF673AFE7E7CC
:1053900002F4407293423FF478AF2B6F134A01211D
:1053A000C2F8401E23F440730021C2F8401E2B6750
:1053B0002B6FD9077FF569AFFDF744FF41F28837BE
:1053C00006462B6F9A073FF560AFFDF73BFF801B4A
:1053D000B842F6D9C4E7916821F4F81165E7064BA5
:1053E00094F82C20C3F8E02169E700BF0000474291
:1053F00000380240007000400010474238B50D46AA
:105400000446C8B190F82C3003F0FF021BB980F8B5
:105410002D20FCF7F7FE022384F82C30211D206894
:1054200000F00EFD62682068294600F03FFD012370
:1054300084F82C30002038BD0120FCE770B590F8CE
:105440002C30022B05460E46D8B212D000F0FB04D9
:10545000012C0FD1022385F82C30286800F05CFD68
:105460003368022B06BF052385F82C3085F82C40C5
:10547000002070BD0120FCE738B590F82C30022BDD
:105480000446D8B20DD094F82C30012BDDB209D1EE
:105490000223206884F82C3000F062FD84F82C5040
:1054A000002038BD0120FCE72DE9F3471F4689465F
:1054B00090460446FDF7C6FE0A9D3D442D1AFDF7B1
:1054C000C1FE264B1E68C6F3CB366E43824601965C
:1054D0002268936839EA03030CBF01230023434584
:1054E00001D100202EE07B1CF3D0FDF7ABFEA0EB3A
:1054F0000A00A84229D323685A6822F0E0025A60C1
:105500006268B2F5827F0AD1A268B2F5004F02D07C
:10551000B2F5806F03D11A6822F040021A60A26AC5
:10552000B2F5005F07D11A6822F400521A601A68B7
:1055300042F400521A60012384F85130002384F8A9
:105540005030032002B0BDE8F087019A019B002A89
:1055500003F1FF33019308BF1546B9E7740000203B
:10556000F0B585B00B4600920E4617460221012287
:105570000446FFF799FF054628B1636D43F0200309
:105580006365032515E0124B1868124BB0FBF3F06E
:105590004FF47A73584363680390B3F5827F0BD15D
:1055A000009733462A4680212046FFF77DFF0028DA
:1055B000E3D1284605B0F0BD039B002BF9D0039B37
:1055C000013B039323689B681B06F5D4F1E700BFFA
:1055D0007400002000366E0137B50B464168B1F506
:1055E000827F044608D0009201210022FFF75CFF71
:1055F000D0B9002003B030BD8168B1F5004F02D0B2
:10560000B1F5806F07D125682868B1F5806F20F06B
:105610004000286004D00092802100222046E5E767
:10562000009201210022F9E7636D43F020036365D6
:105630000320DFE710B50446002855D0436A002B4D
:105640004ED14268B2F5827F00D0C3610023A362CD
:1056500094F8513003F0FF0223B984F8502020461B
:10566000FCF79AFD2168A068A269022384F85130F2
:105670000B6823F040030B60636800F4044003F4FC
:1056800082730343E06800F400600343206900F084
:1056900002000343606900F00100034302F400705C
:1056A0000343E06900F038000343206A00F0800003
:1056B0000343A06A00F4005003430B60636A120CBA
:1056C00003F0100302F004021A434A60CB6923F48A
:1056D0000063CB6100200123606584F8513010BD68
:1056E0000023C0E90433B1E70120F8E72DE9F743CF
:1056F00004461F460D469046FDF7A4FD94F8513030
:10570000012B8146D8B240F09F80002D74D0B8F1B3
:10571000000F71D094F85030012B00F095800323D6
:1057200084F8513000236365C4E91033A4F836804F
:10573000A363A387E387A368266884F85000B3F5C2
:10574000004F2563A4F8348007D1336823F0400369
:105750003360336843F4804333603368E2685B0648
:105760005EBF336843F040033360B2F5006F636897
:1057700045D113B1B8F1010F07D135F8023BF36001
:105780002563E38E013B9BB2E386E38E9BB2D3B9E4
:105790004A4639462046FFF7E3FE002851D1A36868
:1057A00033B901932368DA6801929B680193019BE6
:1057B000012384F85130606D0023C01A84F8503002
:1057C00018BF012018E022689368980705D5236B5D
:1057D00033F8021BD1602363D3E7FDF733FDA0EB61
:1057E0000900B842D1D3791CCFD0012384F85130BD
:1057F000002384F85030032003B0BDE8F08313B1D8
:10580000B8F1010F08D12B783373236B0133236375
:10581000E38E013B9BB2E386E38E9BB2002BB7D0B5
:1058200023689A68920703D5226B12781A73ECE703
:10583000FDF708FDA0EB0900B842EDD37B1CEBD0CF
:10584000D3E720236365AAE70220D5E72DE9F743D4
:1058500004460D4691461E46DDF82880FDF7F2FC11
:1058600094F851306268012B0746D9B20AD0B2F5DC
:10587000827F40F0E580A368002B40F0E18004299E
:1058800040F0DE80002D4BD0B9F1000F48D0002E43
:1058900046D094F85030012B00F0D280012384F8D8
:1058A000503094F85130C4F83890042B1CBF0523B5
:1058B00084F8513000236365C4E910332368E68718
:1058C000E6861968A687490658BF1968256358BF38
:1058D00041F04001A68658BF1960E168B1F5006F3C
:1058E00055D10AB1012E07D135F8022BDA60E38ECB
:1058F0002563013B9BB2E3860125E38E9BB28BB906
:10590000E38F9BB273B93A4641462046FFF728FE23
:10591000002800F0818020236365002384F8503044
:10592000012031E021688B689A070DD5E38E9BB288
:1059300053B145B1236B33F8022BCA602363E38E66
:10594000013B9BB2E38600258A6812F001020CD06D
:10595000E38F9BB24BB1A36BC96823F8021BA3630F
:10596000E38F013B9BB2E3871546FDF76BFCC01B41
:105970004045C2D3B8F1FF3FBFD0012384F8513076
:10598000002384F85030032003B0BDE8F0830AB14F
:10599000012E08D12A781A73236B01332363E38E17
:1059A000013B9BB2E38601252DE0226893689B07AB
:1059B0000ED5E38E9BB25BB14DB1236B1B78137395
:1059C000236B01332363E38E013B9BB2E386002507
:1059D0002268916811F001010DD0E38F9BB253B1A1
:1059E000A36BD2681A70A36B0133A363E38F013BEF
:1059F0009BB2E3870D46FDF725FCC01B404502D353
:105A0000B8F1FF3FB9D1E38E9BB2002BCDD1E38F2C
:105A10009BB2002BC9D176E7A36833B90193236801
:105A2000DA6801929B680193019B012384F851304D
:105A3000606D0023C01A84F8503018BF0120A3E71E
:105A40000220A1E72DE9F7431E4690F85130012BC3
:105A5000044689461746DDB204D00225284603B025
:105A6000BDE8F0834368B3F5827F0BD183684BB9FF
:105A7000042380F85130134600960A46FFF7E6FEED
:105A80000546EBE7FDF7DEFB8046B9F1000FE5D0F8
:105A9000002FE3D094F85030012BDED0A268C4F878
:105AA00038900123002584F85030B2F5004F4FF0B4
:105AB000040384F85130C4E9105565652368E7870D
:105AC000A7872563A586E58607D11A6822F04002DC
:105AD0001A601A6822F480421A601A6855065EBF7E
