:020000040800F2
:10000000000003205D060008C9230008CB23000878
:10001000CD230008CF230008D123000800000000F2
:10002000000000000000000000000000617F0008E8
:10003000D323000800000000F17F00088178000849
:10004000AD060008AD060008AD060008AD060008C4
:10005000AD060008AD060008AD060008AD060008B4
:10006000AD060008AD060008AD060008AD060008A4
:10007000AD060008AD060008AD060008AD06000894
:10008000AD060008AD060008D5230008AD0600083F
:10009000AD060008AD060008AD060008AD06000874
:1000A000AD060008AD060008AD060008AD06000864
:1000B000AD060008AD060008AD060008AD06000854
:1000C000AD060008AD060008AD060008AD06000844
:1000D000AD060008AD060008AD060008AD06000834
:1000E000AD060008AD060008AD060008AD06000824
:1000F000AD060008AD060008AD060008AD06000814
:10010000AD060008AD060008AD060008AD06000803
:10011000AD060008AD060008E1230008AD060008A2
:10012000ED230008AD060008AD060008AD06000886
:10013000AD060008AD060008AD060008AD060008D3
:10014000AD060008AD060008AD060008AD060008C3
:10015000AD060008AD060008AD060008AD060008B3
:10016000AD060008AD060008AD060008AD060008A3
:10017000AD060008AD060008AD060008000000004E
:10018000AD060008AD060008AD060008AD06000883
:10019000AD060008AD060008AD060008AD06000873
:0C01A000F9230008AD0600080524000843
:1001B00010B5054C237833B9044B13B10448AFF3A1
:1001C00000800123237010BD800300200000000088
:1001D000A84F020808B5034B1BB103490348AFF30E
:1001E000008008BD0000000084030020A84F020822
:1001F00001F0FF01102A2BDB10F0070F08D010F8D8
:10020000013B013A8B422DD010F0070F42B3F6D1DB
:10021000F0B441EA012141EA014122F007047FF0F4
:1002200000070023F0E80256083C85EA010586EA4B
:10023000010685FA47F5A3FA87F586FA47F6A5FA87
:1002400087F68EB9EED1F0BC01F0FF0102F0070293
:1002500032B110F8013B013A83EA010313B1F8D13E
:100260000020704701387047002D06BF354603381F
:10027000073815F0010F07D1013015F4807F02BF58
:10028000013015F4C03F0130F0BC0138704700BFA9
:100290007BB972B90029BEBF00204FF0004106E0D3
:1002A00008BF00281CBF6FF000414FF0FF3000F086
:1002B000D3B9ADF1080C6DE904CE002909DB002BA0
:1002C0001ADB00F04DF8DDF804E0DDE9022304B0AC
:1002D0007047404261EB4101002B1BDB00F040F80E
:1002E000DDF804E0DDE9022304B0404261EB4101A6
:1002F000524263EB43037047524263EB430300F007
:100300002FF8DDF804E0DDE9022304B0404261EBA0
:1003100041017047524263EB430300F021F8DDF8DE
:1003200004E0DDE9022304B0524263EB430370476B
:1003300053B94AB9002908BF00281CBF4FF0FF314C
:100340004FF0FF3000F088B9ADF1080C6DE904CE34
:1003500000F006F8DDF804E0DDE9022304B07047A0
:100360002DE9F047089D8E4604468846002B4AD169
:100370008A42174662D9B2FA82F64EB1C6F120031C
:1003800001FA06F820FA03F3B74043EA0808B4403C
:100390004FEA174E1FFA87FCB8FBFEF1230C0EFB49
:1003A000118843EA084301FB0CF29A4209D9FB1871
:1003B00001F1FF3080F0EA809A4240F2E780023992
:1003C0003B449A1AA3B2B2FBFEF00EFB102243EAA2
:1003D000024300FB0CFC9C4509D9FB1800F1FF32DD
:1003E00080F0D6809C4540F2D3803B44023840EAFE
:1003F0000140A3EB0C0300211DB1F3400022C5E92D
:100400000032BDE8F0878B4205D90DB1C5E9000186
:1004100000210846F5E7B3FA83F1002946D1734578
:1004200002D3824200F20581841A6EEB030201209E
:100430009046002DE5D0C5E90048E2E7002A00F02B
:100440009080B2FA82F6002E40F0A4808A1A030C43
:100450004FEA174E80B2BCB20121B2FBFEFC0EFB8C
:100460001C2243EA024304FB0CF29A4207D9FB1810
:100470000CF1FF3802D29A4200F2E080C4469B1A87
:10048000B3FBFEF20EFB123340EA034302FB04F41B
:100490009C4207D9FB1802F1FF3002D29C4200F2C5
:1004A000CA8002461B1B42EA0C40A5E7C1F12006A8
:1004B0008B4022FA06F71F430EFA01F420FA06F3E6
:1004C0002EFA06FE4FEA1749234300FA01F81FFAF5
:1004D00087FCBEFBF9F01C0C09FB10EE44EA0E444D
:1004E00000FB0CFEA64502FA01F209D93C1900F105
:1004F000FF3A80F09C80A64540F2998002383C4447
:10050000A4EB0E041FFA83FEB4FBF9F309FB1344BA
:100510004EEA044403FB0CFCA44508D93C1903F142
:10052000FF3E80F08280A4457FD9023B3C4443EAF1
:100530000040A4EB0C04A0FB02EC64457346E146CA
:1005400062D35FD05DB1B8EB030264EB090404FA37
:1005500006F622FA01F31E43CC40C5E900640021EF
:100560004FE7B1FBF2FC010C41EA0E4180B240EAD8
:1005700001423B4638463C46B846BE462026B1FBC3
:10058000F7F1A2EB080241EA0C4166E7014618E7E1
:1005900010462CE7C6F120022EFA02F3B740B14014
:1005A00020FA02F24FEA174E0A43B3FBFEF8BCB240
:1005B0000EFB1833110C41EA034108FB04F9B0406B
:1005C00089454FEA104380B23ED9791808F1FF3CC3
:1005D00001D289451FD8A1EB0901B1FBFEF909FB46
:1005E00004F80EFB191192B242EA0142424529D2A7
:1005F000BA1809F1FF31C4D24245C2D2A9F10201B1
:100600003A44BEE7F0459DD2BEEB02036CEB070C0B
:100610000138E14696E7A7EB09094944A8F1020C25
:10062000B1FBFEF909FB04F8DBE773467FE75046B0
:1006300066E70846FDE63B44023A33E7ACF1020CBC
:100640003B441CE749469CE7A1EB0901C446B1FBCA
:10065000FEF909FB04F8C4E7704700BFDFF834D0A7
:10066000002103E00C4B5B58435004310B480C4B0A
:1006700042189A42F6D30B4A02E0002342F8043BA8
:10068000094B9A42F9D304F031FA23F01FFF01F02D
:100690005BF870470000032008DA0608000000201D
:1006A0006401002080030020B8370120FEE7704776
:1006B00008B500F0B9FDBDE8084000F03DBD00F010
:1006C000B5BD704710B50421044622F0D1FC204688
:1006D00010BD000038B50C4B0C4C18800C4B822020
:1006E00019806368984740F6110398420AD1094D72
:1006F00023682C60822098472B688220DB6898470B
:10070000002038BD0120FCE7A60300204C0000209B
:10071000A4030020A80300204FF4A071F020FFF7ED
:10072000D9BF0000F7B5394D2B6804461B698220FC
:100730009847208000284ED02B680DF106025B6997
:1007400001A982209847324B1B78002B4BD0BDF873
:10075000062040F674639A423FD9ADF80630BDF8E2
:1007600006209B1A9BB20A2B42D90B22B3FBF2F351
:10077000284A1288934201D9013A93B2BDF8042065
:10078000254840F6B8318A4234D8C2F571620E323B
:10079000016892B20F25B2FBF5F2204D2D88AA42D6
:1007A00084BF05F1FF35AAB28A4215468EB22AD916
:1007B000921B91B21A4E3768BB42BAB28CBF9A1ADA
:1007C000D21A92B211440529C4BF05603360036890
:1007D00063803368A38003B0F0BDB32A9CBFB4220A
:1007E000ADF80620BBE7BDF80630A3F5B473B9E752
:1007F0000023C3E7C2F56D62083292B20E2A016887
:10080000C8D800252A46891A89B2D3E7A803002050
:100810005C190020A4030020A0030020A6030020F0
:100820009C03002037B568460D461446FFF77AFF53
:10083000BDF8000030B1BDF802302B60BDF80430C7
:100840002360012003B030BD032821D8DFE800F089
:10085000020B12190F4B1A68B2FA82F252090421E4
:100860000D4805F023B80B4B5A68B2FA82F25209D0
:100870000821F5E7074B9A68B2FA82F25209102173
:10088000EEE7044BDA68B2FA82F252092021E7E778
:10089000704700BFAC03002000100240032821D89D
:1008A000DFE800F0020B12190F4B1A68003A18BF6C
:1008B000012204210D4804F0F9BF0B4B5A68003A9D
:1008C00018BF01220821F5E7074B9A68003A18BFC4
:1008D00001221021EEE7044BDA68003A18BF01222A
:1008E0002021E7E7704700BFAC0300200010024062
:1008F00003280DD8DFE800F00206080A04210548A5
:1009000004F0D9BF0821FAE71021F8E72021F6E723
:10091000704700BF0010024008B5032811D8DFE877
:1009200000F0020A0C0E0421074804F0B9FF431E30
:100930005842584108BD0821F6E71021F4E720216C
:10094000F2E70020F3E700BF0010024070B5084D49
:1009500000240126E0B2FFF7DFFF18B12B68012B5E
:1009600018BF2E600134052C05F10405F2D170BDCD
:10097000AC030020012380F8781080F879307047AC
:100980007047002070470000034B4164003918BFD6
:1009900001211970704700BF772A0120704700209D
:1009A0007047836B0BB10846184770474FF6FF70CE
:1009B0007047406803689B691847704770477047E5
:1009C0007047704710B5044600F046FD23680349A0
:1009D000D3F890302046BDE810401847000000D002
:1009E00008B503680446D3F8843098472368204646
:1009F000DB6F984700F0ECF8236820465B6F984760
:100A0000292001F073F900F0E3F8236820465B6FBA
:100A10009847F8E710B504460AF098F8236820468E
:100A2000D3F8BC30BDE81040184700F0F9BC00F026
:100A3000FDBC00F02FBD00F0CFBC00F03FBD00F0CA
:100A400047BD00F0D3BC09F0AFBA10B5842104460D
:100A500022F00EFB204610BD10B590F8341090F82F
:100A600078400C4B8C421A7809D03AB90A4A0B49A3
:100A70001488088810800C8001221A7010BD002A8A
:100A8000FCD0054A05491488088810800C80002293
:100A9000F3E700BF702A01206C2A01206E2A012092
:100AA00070B50D46194635B9094B0A4A0A4840F255
:100AB000FF2123F05BFAC0E90F52084B003A18BF40
:100AC00001221A700368BDE87040D3F890301847CF
:100AD00018500208505002089E500208762A012041
:100AE00008B5094B1B888B4203D8084B1B889342DF
:100AF00005D9074B074A0848A32123F037FA074BCB
:100B00001980074B1A8008BD6C2A01206E2A01202B
:100B1000E3500208465102089E500208722A012042
:100B2000742A0120034690F87A0018B158680368C7
:100B30001B68184770470000012108B500220846CD
:100B400006F028FF0A4B186028B90A4B0A4A2821E8
:100B50000A4823F00BFA00220421012006F0B9FF15
:100B6000074B186018B9074B034A2C21F0E708BD62
:100B7000C003002089510208D25102080152020824
:100B8000BC03002049520208024B4FF0FF311868A5
:100B900006F04ABFC0030020014B186806F070BF82
:100BA000C0030020024B0021186806F03DBF00BFC3
:100BB000C0030020FFF7F0BF03480449006800238A
:100BC0001A4606F0C1BF00BFBC030020040000208D
:100BD00013B5084C00231A4601A9206806F0E5FF6A
:100BE00020684FF0FF33002201A906F0DEFF02B0BB
:100BF00010BD00BFBC03002003685B6C18470120D8
:100C0000704703689B6A1847FEE740F2EF30704771
:100C1000054B0360054B4FF08062C3F88820BFF39B
:100C20004F8FBFF36F8F7047385E020800E100E01E
:100C300010B504464FF45A61FFF7EAFF204622F050
:100C400017FA204610BD000082B0002301930E4B1E
:100C50001A6B42F400021A631A6B02F4000201924A
:100C6000019A1A6942F400021A611A6922F4000218
:100C70001A61064B064A1A61064A5A61064B4FF042
:100C800080629A6002B0704700380240F01A00207B
:100C9000E90E0008090C000800E100E008B50A2888
:100CA00009D8DFE800F006100E0808080810101038
:100CB0001000022008BD054B054A0648902123F08C
:100CC00055F90020F6E70120F4E700BF8B52020837
:100CD000A6520208F152020838B50C46887FFFF789
:100CE000DDFFA58AE28A164B2169586342EA054274
:100CF0005A64628BD963521B1A642568082D0ED181
:100D00009A611A615862207F0E4A42EA0062DA61F3
:100D1000E2681A620C4A5961D9601A6038BD002233
:100D2000D8611A61E1680A0A480902F4784200F4BD
:100D3000FC600243C1F3C4010A439A63034AECE72F
:100D400000B002400900010001230200012303005A
:100D500008B50B280BD8DFE800F00612100A0A0AC3
:100D60000A0808080808022008BD0520FCE7054B12
:100D7000054A06486F2123F0F9F80020F4E7012026
:100D8000F2E700BF8B52020837530208F152020803
:100D90002DE9F04191F81D800C464046FFF7D8FF41
:100DA000A77F05463846FFF7D3FF06463846FFF7CC
:100DB00075FFA18A628B444B521A1A649A61228B86
:100DC000521A1A61E28A586342EA01425A6421695E
:100DD0006268D963DA602068802828D0227F0FD823
:100DE000202867D0402865D004281AD0364B45EA21
:100DF000026545F40035B845DD6161D0334A44E011
:100E0000B0F5807F04D0B0F5007FEFD1304800E02E
:100E1000304840EA0262DA61E2681A625E62596151
:100E200032E045EA026242F40032DA61F6E7A06895
:100E3000021DDA62227F45EA026545F40035DD6174
:100E40005E625961017841B1012921D0224B234AC8
:100E500023484FF48D7123F089F8DA69418822F430
:100E60007F42013922F0100242EA0122DA610121B7
:100E7000154BDA6942F02002DA61DA699206FCD495
:100E800010229A600029B9D0164A1A60BDE8F08194
:100E9000B2F1FF01DA69408822F47F4200F1FF30AD
:100EA00022F0100242EA002242F0100218BF012193
:100EB000DA61DDE745EA0262034B42F40032B4E74F
:100EC00042F20132E1E700BF00B00240012301001D
:100ED000090002000A000200815302089B53020825
:100EE000F152020801230200024B1B685868036894
:100EF0005B691847782A012070B5044625460A4BDD
:100F00000C30002660602672667245F8203B602235
:100F1000294609F071FF04F55A63EE6024359D42BD
:100F2000FBD1204670BD00BF385E0208034B1A6833
:100F3000D207FCD423229A60704700BF00B0024061
:100F40007047000030B50F4C2568ED07FCD4232511
:100F50000904A56041F001010225FF2B656361646E
:100F6000E0630AD00849656241EA0363E361074B25
:100F700022626061E060236030BDE561039BA36392
:100F8000034BF8E700B00240090001000100020035
:100F90000100030030B50E4C2568ED07FCD4232575
:100FA0001204A56042F001020225FF2B6563626412
:100FB000E063E16008D01B0643F00213E361054BD8
:100FC00065626061236030BD034BE3610123F9E793
:100FD00000B0024001000200020002FF30B50B4CDD
:100FE0002568ED07FCD4232512041B06A56043F4F5
:100FF0000033022542F0010265636264E063E16050
:10100000E361034B65626061236030BD00B0024064
:1010100001000200012070474020704700EB811062
:101020000830704700EB811008307047012070478E
:101030004FF47E7070474FF47E7303FB010008305D
:1010400070474FF47E7303FB0100083070470120A6
:1010500070471020704700EB01100830704700EB1C
:10106000011008307047084601F0B2BD10B5034BBF
:101070000360044608F0EFFC204610BDF05E020855
:1010800010B50446FFF7F2FF2046482121F0F0FF9B
:10109000204610BD10B5034B0360044608F0DBFC8E
:1010A000204610BDBC5E020810B50446FFF7F2FFF3
:1010B00020464FF4806121F0DBFF204610BD000088
:1010C00010B5034B0360044608F0C5FC204610BD74
:1010D000885E020810B50446FFF7F2FF204618218B
:1010E00021F0C6FF204610BD10B5084B0360044632
:1010F00000F22C40FFF7BAFF04F12C00FFF7CAFF03
:1011000004F11400FFF7DCFF204610BD245F020845
:1011100008B50248FFF7E8FF08BD00BF9C12002099
:1011200010B50446FFF7E0FF204640F2EC5121F0F5
:101130009FFF204610BD00002DE9F34101F0DCF9CE
:10114000054601F0DDF900240146234628462246E3
:10115000009412F0DBFE274B274A1A60204602F06B
:10116000AFFC264D264B274A27489A6012F036FEE0
:101170002B68BFF35B8FDB0735D4284621F07AFF5D
:1011800088B3224C224B236004F5926604F11400CC
:1011900004F12C0804F22C476060C4F80880E76072
:1011A000266108F059FC1B4B6361404608F054FC73
:1011B000194BE362384608F04FFC184BC4F82C3446
:1011C00004F2744002F004FD224604F274413046F9
:1011D00002F0F4FC304601F0FBFC114822F0E4FE82
:1011E000284621F053FF0F4802B0BDE8F041FFF759
:1011F000E9BB00BFDC2A012048040020981200202F
:10120000680400204C040020080000209C120020EC
:10121000245F0208885E0208BC5E0208F05E0208D5
:1012200011110008C4030020704700000148FFF7B7
:10123000D7BB00BFC403002070B5264E264C274DF7
:10124000274B23603046FFF757FE284617F064FF10
:10125000244810F0D9F9244B2448DC6000224FF4D4
:101260008071C3E9121222491A86C3E91A12214970
:1012700083F85820C3E91E011F49C3F880101F4995
:101280001F480B60F021C3E90422C3E90622C3E929
:101290000822C3E90A22C3E90E22C3E91022C3E9E6
:1012A0001422C3E917225A6683F870205A67C3E9EB
:1012B000016501801348018013484FF4A07101803B
:1012C0001248018012490A70012283F83420114A21
:1012D0001A6070BDF40400209412002068040020FD
:1012E000085002084C040020C40300200000010143
:1012F00001000001000450001A001400782A0120A7
:101300006C2A0120722A01206E2A0120742A0120F1
:10131000702A01204C5D02080148FFF779BC00BF2C
:10132000F40400200020704781807047C18070471E
:10133000018170474181704770477047704770471F
:10134000704710B4C4880368121B84885B6D091B46
:1013500012B25DF8044B09B218474FF6FF73838150
:101360004FF0FF3303621368C361106070470020C1
:1013700070478B88838001207047704780F8261063
:10138000704790F82600704710B50022B1F9084068
:10139000B1F90A10028042808480C18010BD002211
:1013A000028042808280C28070470177704780ED62
:1013B000080A704780F82410704780F8251070479D
:1013C00001207047983070478C30704784307047E8
:1013D0007047704770470000034B902283F85A23F0
:1013E00083F85823704700BF00E100E0094A0A492A
:1013F000D3680A48C3F30A03013B9BB20B8011690F
:10140000C1F30A01013901801364536B43F00103F6
:1014100053637047006801408A1800208818002034
:10142000014BD3F8AC00704700680140024B012229
:10143000C3F8AC105A6270470068014010B52C2107
:10144000044621F015FE204610BD10B5BC2104460F
:1014500021F00EFE204610BD70B5044608F0F9FDDF
:1014600023689D6E0EF068FE01462046A84723685B
:10147000054AD3F88C502046AC460023BDE87040A6
:10148000A2F51631604700BF00B004D008F0C8BD17
:1014900008F0D2BD08F08EBD08F0FDBE90F8252002
:1014A00012B103685B691847704790F825201AB19C
:1014B00090F8242002B1186070470000034B4FF0F1
:1014C00080629A604FF080729A60704700E100E09D
:1014D000084B4FF08062C3F88820BFF34F8FBFF3F3
:1014E0006F8F4FF08072C3F88820BFF34F8FBFF328
:1014F0006F8F704700E100E070B50023124E8380CB
:10150000124B0360336893F8582005460AB1D86C33
:1015100000B998680368DB6A98473368B0FA80F4CA
:10152000D86C640930B10368DB6A9847002808BFAB
:1015300044F001042CB9064B064A07482C2122F03E
:1015400015FD284670BD00BF782A0120385F0208CB
:10155000D9530208375402087054020870B5254E5A
:101560003568BFF35B8F15F0010540D1304621F09F
:1015700081FD00283BD0204C204B256104F1340034
:10158000C4E90035C4E90255E584A562A58510F0DB
:1015900020FB04F158000BF0E3F8194BA36520463B
:1015A000184B40F8843BFFF7A7FF174BC4F8843073
:1015B0002433C4F88C304FF4C803C4E92835002321
:1015C000C4F8AC30C4F8B030C4F8B430C4F8B830A3
:1015D0000E480F4BC4F89050C4F89C50C4F8A85063
:1015E000C4F8983022F0E0FC304621F04FFD02486C
:1015F00070BD00BF8C18002090180020A46702085E
:10160000585F0208D05F020858670208D513000827
:101610003867020838B5184C23685BB3174B184A73
:101620001B6C11888B4216D1164B198804F046FFAB
:10163000236893F86A200025013283F86A2083F832
:101640007C50FFF7B9FA206809F080FA2846BDE817
:101650003840FFF7F9B804F031FF246823682046CA
:101660001B6A9847012384F87C300020BDE838408D
:10167000FFF714B938BD00BF782A01200068014087
:101680008A1800208818002007B5064BADF8060020
:101690001B68054801220DF1060105F0AFFC03B0FF
:1016A0005DF804FB0C0000209C19002030B595B0BB
:1016B000102200210AA822F060FE1422002103A8B3
:1016C00022F05BFE00241E4B01941A6C42F0805203
:1016D0001A641B6C03F080530193019B194B029415
:1016E0001A6842F440421A601B6803F440430293B4
:1016F0000122029B4FF48033CDE9082302254FF4E9
:1017000080030821CDE90E534FF4B473CDE91013D3
:1017100008A804231393129504F028FF04F0ECFEAC
:101720000F23CDE903354FF4A0504FF48053CDE99A
:101730000603052103A8059405F0F4F815B030BDA3
:1017400000380240007000402DE980489DB0002420
:10175000C94DDFF85C8303F0D7F9FFF7A7FF142228
:1017600000210FA822F009FE02942B6BC34843F01E
:1017700010032B632B6B03F010030293029B039463
:101780002B6B43F020032B632B6B03F0200303939D
:10179000039B04942B6B43F080032B632B6B03F0B0
:1017A00080030493049B05942B6B43F004032B6389
:1017B0002B6B03F004030593059B06942B6B43F0FE
:1017C00001032B632B6B03F001030693069B079425
:1017D0002B6B43F002032B632B6B03F00203079385
:1017E000079B08942B6B43F040032B632B6B03F098
:1017F00040030893089B09942B6B43F008032B6369
:101800002B6B03F00803224609933C21099B04F04B
:101810004DF89B480122022104F048F822469848DE
:10182000042104F043F8224696484FF4405104F056
:101830003DF801263C23CDE90F369048119403234F
:101840000FA90227129303F047FF8D480FA9CDE996
:101850000F76CDE9114403F03FFF042388480FA918
:10186000CDE90F36CDE9114703F036FF4FF4405371
:1018700084480FA9CDE90F36CDE9114703F02CFFBD
:1018800001942B6B43F480032B632B6B7E4D03F48D
:1018900080032246052101933820019B03F046FC7A
:1018A000382003F075FC7948794B036003F07EFC27
:1018B000DFF800E2774B2C62C5E900E328464FF4DD
:1018C0008043C5E90434C5E90244C5E9064404F08F
:1018D000FBF91021284604F03FFC214628466E4DB6
:1018E00004F059FC4FF48273C5E900834FF400798A
:1018F0001823C5E9069328460A23C5E90244C5E929
:101900000444C5E90844AC62EB6205F01BFB8F237D
:10191000224639465A488DF82C308DF83C4003F069
:10192000C5FF32464FF47A730BA9284605F066FBD3
:101930004FF47A7332460FA9284605F00BFD324664
:1019400039464F48554D03F0B1FF9DF83C30D32B3D
:1019500004BF534B1E70534B0126C5E900364FF0B0
:10196000100A40230024C5E904A34FF4C073C5E95D
:1019700006344FF40063C5E908344FF400534FF0C8
:10198000020904274FF00308AB620FA9072328467A
:10199000CDE90F93CDE911734FF0080BC5E902476C
:1019A000CDE91389CDF8549005F0B0F94FF6FF72E8
:1019B0000BA92846CDE90CB60A940B960E9405F0B7
:1019C000C5F9304603F0CCF84FF6FF720BA9284654
:1019D000CDE90B9BCDE90D6405F0B8F94FF6FF7228
:1019E0000BA92846CDE90B8BCDE90D7405F0AEF9B6
:1019F0004FF40C730A930A9B0E934FF6FF720BA9D8
:101A00002846CDE90B7B0D9605F0A0F940F26A510E
:101A1000284605F0B9F9342221460FA822F0ADFC82
:101A2000214D224B2C61C5E900340923C5E9053657
:101A30001D23C5E9073840F20D1240F24313C5E9F2
:101A4000092340F2171140F247132846C5E90B134A
:101A5000C5E90244AC8685F8364004F037FCFF2126
:101A6000F022CDE914144FF4806005214FF4A073E7
:101A7000CDE9160120E000BF00380240001002400E
:101A800000080240000C02409C1A0020301B00207D
:101A900000300240A08601009C1900206819002037
:101AA0005C190020400100A0F419002000680140EA
:101AB00000500140005C0040CDE910240FA9CDE9A1
:101AC0001842284622463E4D1A93CDE912390F940A
:101AD000ADF86C408DF86E4004F0C3FC394B2B60C0
:101AE0001B6898472B68384DDB689847374B28466A
:101AF000C5E90034C5E90294C5E90A49C5E90C44C1
:101B000003F0F0FC3146284603F0A2FD5246214680
:101B10000FA822F032FC2E4DDFF8DCC0AC604FF491
:101B20008033C5E900C328462A4BAB622E612E766E
:101B300085F82040EC62EC60EF6185F830606E6102
:101B400003F022F80FA92846CDE90F46119603F0BD
:101B50003DFA0FA92846CDE90F6903F037FA0D23A6
:101B60000FA92846CDE90F3803F030FA0E230FA94C
:101B70002846CDE90F3703F029FAFEF799FDFEF765
:101B800096FD15493A46284603F0A4F805F086FE6E
:101B900022460C210A2005F09CFF104B104A1860C9
:101BA0002146104805F0A6FE0F4B104A186021464A
:101BB0000F4805F09FFE0F4B186005F081FEFEE711
:101BC0004C19002014000020F01A002000B0024040
:101BD000981B00200100000F54190020501900200C
:101BE00038600208AD1D0008641900201460020866
:101BF000BF060008601900200020014070477047B0
:101C00007FB5094B8DF817201B6802930DF1170261
:101C10000123009201930A460146044804F0FCF8AF
:101C200007B05DF804FB00BF100000209C1A0020E4
:101C30007FB500238DF81730084B1B6802930A46C6
:101C400001230DF11701009101930146044804F0AE
:101C500073F99DF8170007B05DF804FB1000002031
:101C60009C1A00201FB5084C24680092CDE901346D
:101C70000A4601230146054804F05EF9003818BF02
:101C8000012004B010BD00BF100000209C1A0020ED
:101C900002F066BF10B5064C00222046042103F076
:101CA00005FE20460122BDE81040042103F0FEBDE0
:101CB0000008024038B50B4D044601220A484FF493
:101CC000005103F0F3FD00220421284603F0EEFD4D
:101CD0002046FFF7D9FC28460122BDE83840042100
:101CE00003F0E4BD00080240000C024038B50B4D83
:101CF000044600220A484FF4005103F0D7FD0022A9
:101D00000421284603F0D2FD2046FFF7BDFC2846FB
:101D10000122BDE83840042103F0C8BD000802409C
:101D2000000C0240F7B5144E144F05460C463046E1
:101D30000022042103F0BAFD00224FF4005138467E
:101D400003F0B4FD2846FFF79FFC0D4B0D481B68C0
:101D5000224601A905F0FEFA384601224FF400514F
:101D6000019C03F0A3FD30460122042103F09EFDF7
:101D7000204603B0F0BD00BF00080240000C024046
:101D80000C0000209C19002002F0EABE58B1064B5E
:101D90001A8802805A8842809A88DB88C380002390
:101DA0008280038143817047541900201FB5074C7E
:101DB00001A8FFF7EBFF002301461A46206805F053
:101DC000C3FE2A2005F0DAFDF2E700BF501900201B
:101DD0000268034B9A4201D102F0B0BE704700BFC7
:101DE000001000407047000082B00E4B00220092AD
:101DF000596C41F480415964596C01F4804100915F
:101E000000990192196C41F0805119641B6C03F028
:101E100080530193019B0F216FF0010002B003F08A
:101E200085B900BF0038024070B5064688B014225C
:101E3000002103A822F0A1FA32682C4B9A4253D118
:101E400003F58C33002500955A6C294842F48072C2
:101E50005A645A6C02F480720092009A01951A6BCF
:101E600042F004021A631A6B02F004020192019A12
:101E700002951A6B42F001021A631B6B03F0010317
:101E800002930324029B03A91823CDE9033403F032
:101E900023FC1848059503A9CDE9034403F01CFC75
:101EA000154C164B4FF48062C4E900354FF40063C3
:101EB000C4E904234FF400514FF480732046C4E971
:101EC0000255C4E90613C4E9085503F095F908B1B1
:101ED000FFF788FFB463122000220521A66303F0F8
:101EE00025F9122003F054F908B070BD002001401C
:101EF0000008024000000240381B0020106402402D
:101F00000268094B9A4282B00BD100230193074B20
:101F10001A6B42F480521A631B6B03F480530193D3
:101F2000019B02B0704700BF003002400038024001
:101F300007B50F4B02689A4216D10022A3F5F04371
:101F40000192196B41F4000119631B6B03F4000348
:101F5000019305215A20019B03F0E8F85A2003B0B1
:101F60005DF804EB03F014B903B05DF804FB00BFA7
:101F700000B002402DE9F043044689B0142200214C
:101F800003A822F0FAF92268244B9A4243D1244C48
:101F9000244800250095236B43F004032363236B3F
:101FA00003F004030093009B0195236B43F00103AE
:101FB0002363236B03F001030193019B4FF012098C
:101FC0004FF400734FF001080327042603A9CDE95D
:101FD0000339CDE90587079603F07EFB4FF4807344
:101FE0001148079603A9CDE90339CDE9058703F028
:101FF00073FB0295236C43F400032364236C03F406
:1020000000030293029B236A43F400032362236AC2
:1020100023F40003236209B0BDE8F083005C0040B4
:10202000003802400008024000000240F0B599B0BC
:1020300004461422002107A822F09FF930220DEB5C
:102040000200002122F099F922685E4B9A4240F08A
:10205000B78008230C93C0231093042312930CA879
:102060004FF40033159304F025FD08B1FFF7BAFED5
:10207000554B5648002400945A6C42F080625A64D2
:102080005A6C02F080620092009A01941A6B42F03E
:1020900020021A631A6B02F020020192019A029444
:1020A0001A6B42F001021A631A6B02F001020292EB
:1020B000029A03941A6B42F002021A631A6B02F03E
:1020C00002020392039A04941A6B42F040021A63CC
:1020D0001A6B02F040020492049A05941A6B42F0C3
:1020E00004021A631A6B02F004020592059A069420
:1020F0001A6B42F008021A631B6B03F00803069385
:1021000002250E26069B0B964FF4806307A9CDE9A6
:102110000735CDE9094503F0DFFA41F658032C48AD
:102120000B9607A9CDE907350927CDE9094503F045
:10213000D3FA032327480B9707A9CDE90735CDE943
:10214000094503F0C9FA4FF4706322480B9607A9BA
:10215000CDE90735CDE9094503F0BEFA4FF40C632C
:102160001D480B9607A9CDE90735CDE9094503F0D0
:10217000B3FAC02319480B9607A9CDE90735CDE975
:10218000094503F0A9FA082315480B9607A9CDE9DC
:102190000735CDE9094503F09FFA4FF4A0530E48E7
:1021A0000B9707A9CDE90735CDE9094503F094FA66
:1021B00058202246052102F0B9FF582002F0E8FF1E
:1021C00019B0F0BD00680140003802400014024020
:1021D00000000240000402400018024000080240D3
:1021E000000C024010B5044688B01422002103A858
:1021F00022F0C3F82268144B9A4223D103F56843B6
:10220000002101915A6C114842F480125A645A6CB0
:1022100002F480120192019A02911A6B42F020029C
:102220001A631B6B03F020030293029B4FF460724E
:1022300002230321CDE903230523CDE9061303A9D6
:1022400003F04AFA08B010BD0050014000140240EB
:102250002DE9F04186B0002303932B4B1C68002C22
:102260004FD14FF00108C3F80080284B00949A6BBF
:10227000274842EA08029A639B6B03EA080300932B
:10228000022703260C25009B01A94FF63F03CDE949
:102290000137CDE9046503F01FFA1E48059501A931
:1022A000CDE90187CDE9034603F016FA48F233136E
:1022B0001948059501A9CDE90137CDE9034603F099
:1022C0000BFA4FF683731548059501A9CDE901373F
:1022D000CDE9034603F000FA4CF20373104805956C
:1022E00001A9CDE90137CDE9034603F0F5F96023F3
:1022F0000C48059501A9CDE90137CDE9034603F066
:10230000EBF906B0BDE8F081E01B00200038024088
:102310000014024000080240001802400010024071
:10232000000C02400004024070B588B00023029304
:10233000204B1A6C42F010021A641B6C03F010035D
:102340000293054601A903A8029B04F095FB069B96
:102350004BBB04F081FB184E184B336040F2E7335F
:10236000F360174BB0FBF3F3013B7360304600237F
:102370003361B360B36105F0BDF9044680B93046FE
:1023800005F08EF8044658B9362002F001FF0F2DF3
:102390000DD822462946362002F0C8FE094B1D60A2
:1023A000204608B070BD04F057FB4000D3E701247D
:1023B000F6E700BF00380240E41B00200010004098
:1023C00040420F007C0000207047FEE7FEE7FEE77A
:1023D000FEE77047014802F02ABD00BF981B0020AD
:1023E000014805F09BB800BFE41B0020014802F043
:1023F000BBBF00BF381B0020014803F0D5BF00BFA2
:10240000F4190020014803F099B800BFF01A002029
:102410000120704708B522F053F8162303604FF0EF
:10242000FF3008BD08B522F04BF816230360FEE725
:1024300070B50D4614460E46731B9C4201DC2046C7
:1024400070BDAFF3008006F8010BF5E770B50D46DF
:1024500014460E46731B9C4201DC204670BD16F8E4
:10246000010BAFF30080F5E74FF0FF3070474FF4FA
:1024700000534B60002070470120704700207047D8
:102480000A4A116808B5034609B90949116010687C
:10249000694603448B4206D922F012F80C230360EC
:1024A0004FF0FF3008BD1360FCE700BF2C1C00207C
:1024B000B8370120704710B50421044620F0D8FD3C
:1024C000204610BD08B5032913D8DFE801F0020645
:1024D0000A0E01F041FB006808BD01F03DFB4068B9
:1024E000FAE701F039FB8068F6E701F035FBC068D8
:1024F000F2E70020F0E70000004870477060020833
:102500000720704713B5002451B1036801948DF87A
:10251000034001AA9C680DF10303A04702B010BD5F
:102520000846FBE7C0897047008A7047C08870473B
:1025300080887047807A00F07F007047807AC009F9
:1025400070470020704700009FED010A704700BFF0
:1025500000000000704710B50821044620F088FDF7
:10256000204610BD7047704700F5987308684968A9
:1025700003C37047704770474160704770477047AA
:10258000064BC0F84C310023C0F8503100F5A2735F
:10259000C0F84801C0F84031704700BF052A000864
:1025A0000123037270477047704710B4C2684168D6
:1025B0005410034601EB6200D20748BF0A599B68DA
:1025C0005DF8044B48BFD35818470346406830B104
:1025D0009A681AB9D86800F0010070470120704766
:1025E00010B50C21044620F043FD204610BD10B567
:1025F0001021044620F03CFD204610BD10B54FF4DC
:10260000AE71044620F034FD204610BD10B54021C7
:10261000044620F02DFD204610BD10B50DF08CFDB8
:102620000368BDE81040DB6B18470000054B1B78C2
:1026300001462BB1406818B103680C315B6E184736
:10264000704700BF772A0120037A70B50546BBB9F1
:1026500040680368DB69984704463CB968680368CA
:1026600005F10C011B6EBDE870401847A1886B8F07
:10267000C91A236820461B6B09B29847A469ECE786
:1026800070BD10B50446D0F8400158B10368DB684E
:10269000984738B1D4F8400103689B6898470023F5
:1026A000C4F8403110BD70B5044690F8390094F874
:1026B00038300130C0B2984284F8390005D901237E
:1026C0002372002384F8393070BDB4F93A20002118
:1026D0000FF00AFFC30706D500284FF6FF73C8BFE7
:1026E0000123184400B2238AC01AA08760680368D7
:1026F000DB69984705462DB960680368BDE87040FE
:102700005B691847A988A38F19442B6828461B6B5F
:1027100009B29847AD69EEE72DE9F14FD0E9556A66
:102720000746B06803681B6A9847B0F57E7F05D2FC
:10273000444B454AA321454821F018FC70680368C2
:102740001B6A98470F2803D8414B3F4AA421F2E760
:10275000F06803681B6A98470B2803D83D4B3A4A38
:10276000A521E8E70DF0E8FCDFF8F09004300DF06B
:1027700008FDD9F8000010B10368DB689847D9F864
:10278000000010B103681B689847DFF8D480D8F8C0
:10279000000010B103685B699847D7F83C0110B19D
:1027A00003685B689847D8F8000010B103681B689D
:1027B0009847D7F83C0110B103689B689847F068C8
:1027C000036800215B6A98474FF0000B224BC0F86A
:1027D00004B0044680F808B00360B0680368594646
:1027E0005B6A9847054601F007FB70680368594625
:1027F0005B6A98472946064601F0DCFA331DC7F8A4
:102800003C61C9F80040C8F80050CAF800302B6895
:10281000C6F808A02846DB68EE6398473368304660
:102820001B689847214628460FF058FE236820462B
:102830001B69984723685B69204601B0BDE8F04FEB
:10284000184700BFE75402087555020847560208AA
:102850008E5602083157020880610208C02A012002
:10286000BC2A01202DE9F14FD0E9556A0746B0682E
:1028700003681B6A9847B0F5947F05D2564B574AB8
:10288000A321574821F072FB706803681B6A9847C0
:102890000F2803D8534B514AA421F2E7F06803688C
:1028A0001B6A98473F2803D84F4B4C4AA521E8E7BD
:1028B0000DF042FCDFF8449104300DF062FCD9F8D1
:1028C000000010B10368DB689847D9F8000010B128
:1028D00003681B689847DFF82881D8F8000010B11A
:1028E00003685B699847D7F83C0110B103685B68DF
:1028F0009847D8F8000010B103681B689847D7F8CC
:102900003C0110B103689B689847F0680368002198
:102910005B6A984705460023344A4360037245F8D2
:102920000C2B044628460AF02FFD14222287304A39
:1029300012780023A387002A35D101232372B068BF
:10294000036800215B6A9847054601F0BDF970688D
:10295000036800215B6A98472946064601F088F91A
:10296000331DC7F83C61C9F80040C8F80050CAF8E8
:1029700000302B68C6F808A02846DB68EE6398474D
:10298000336830461B689847214628460FF0A6FD5D
:10299000236820461B69984723685B69204601B07D
:1029A000BDE8F04F18471349134AB1F900B0E16888
:1029B000236128468B6BB2F900109847E3685946AB
:1029C000DB6B2846984728460AF059FC0A4A1388C8
:1029D0005B426387B3E700BFE7540208D45702089D
:1029E000475602088E56020831570208A4610208B1
:1029F000772A01206E2A01206C2A0120C02A01209A
:102A0000BC2A01202DE9F14FD0E9556A0746B0688C
:102A100003681B6A9847B0F5947F05D2444B454A3A
:102A2000A321454821F0A2FA706803681B6A984701
:102A30000F2803D8414B3F4AA421F2E7F06803680E
:102A40001B6A98470B2803D83D4B3A4AA521E8E773
:102A50000DF072FBDFF8F09004300DF092FBD9F826
:102A6000000010B10368DB689847D9F8000010B186
:102A700003681B689847DFF8D480D8F8000010B1CD
:102A800003685B699847D7F83C0110B103685B683D
:102A90009847D8F8000010B103681B689847D7F82A
:102AA0003C0110B103689B689847F06803680021F7
:102AB0005B6A98474FF0000B224BC0F804B0044605
:102AC00080F808B00360B068036859465B6A9847AD
:102AD000054601F0F9F87068036859465B6A984743
:102AE0002946064601F0C4F8331DC7F83C61C9F811
:102AF0000040C8F80050CAF800302B68C6F808A09B
:102B00002846DB68EE639847336830461B68984771
:102B1000214628460FF0E2FC236820461B699847AF
:102B200023685B69204601B0BDE8F04F184700BF3D
:102B3000E7540208B9580208475602088E560208A0
:102B40003157020880610208C02A0120BC2A0120F6
:102B5000044B1B6893F858200AB1D86C00B99868E8
:102B6000704700BF782A0120F8B5174604460E4684
:102B70000DF0A4FB124B1C60124B2360124B00257E
:102B8000C4E95135114BC4E9535518680368294607
:102B90009B68C4E94F55C4E955769847284600F02C
:102BA0008FFFFFF7D5FF18F060F9FFF7D1FF18F09E
:102BB000D7F9FFF7CDFF18F0DFF92046F8BD00BFC9
:102BC000CC2A01202C61020814610208782A012015
:102BD000064BC0F84C310023C0F8503100F5A27309
:102BE000C0F84801C0F84031704700BF052A00080E
:102BF000064BC0F84C310023C0F8503100F5A273E9
:102C0000C0F84801C0F84031704700BF652800088F
:102C1000064BC0F84C310023C0F8503100F5A273C8
:102C2000C0F84801C0F84031704700BF19270008BC
:102C3000406A7047806A704770478A880B8810B571
:102C4000D20A4C88C1699BB251F8220043EA04437E
:102C5000184410BD10B50446BAB1107B68B1537B5F
:102C6000D27A1B0203F4E0631A43236A03EB820364
:102C70001A888A4202D193F9020010BD05D80138A2
:102C800080B204330028F3D1F7E70020F5E710B550
:102C90002C21044620F0ECF9204610BD30B58BB055
:102CA0000446BDF860500895BDF85C5007959DF846
:102CB000505006959DF84C5005959DF84850049548
:102CC0009DF8445003959DF8405002959DF83C5066
:102CD0000195BDF8385000950FF038F8064B236089
:102CE000159BE361169B2362199B63621A9BA36287
:102CF00020460BB030BD00BFC86102087047704766
:102D000070477047704730B5036885B06D460181E4
:102D1000D3F88430014604462846984795E80700D2
:102D20003C3484E8070005B030BD30B5036885B099
:102D30006D464181D3F884300146044628469847C1
:102D400095E807003C3484E8070005B030BD002258
:102D5000028042808280C280704780F836107047BF
:102D600070B5036804461B6B1546984723682946CF
:102D700020465B6EBDE870401847806C7047C06CA1
:102D800070477047704770477047704730B4C268EB
:102D900044685510034604EB6200D20748BF6259ED
:102DA0009B6830BC48BFD35818470346406830B1D1
:102DB0009A681AB9D86800F001007047012070477E
:102DC00010B55021044620F053F9204610BD10B52F
:102DD0001021044620F04CF9204610BD10B54FF4E8
:102DE0008071044620F044F9204610BD08B5FEF776
:102DF00055FB08BD036870B55E6B124B1B6804463B
:102E00008DB22BB9104B114A6C21114821F0AEF84C
:102E10001049828D0988914203D80F4B0B4A6D21CE
:102E2000F3E713F812200D4B1B6853F822000368D8
:102E30001B6B9847291A3346204609B2BDE87040FB
:102E4000184700BFD02A01208B590208CD5902082B
:102E5000085A0208D42A01204F5A0208D82A012011
:102E600000F16C038B4210B5044609D10DF064F9F2
:102E7000FFF7CEFE23682046DB6ABDE81040184706
:102E800010BD00224FF0FF31C0E900218260704781
:102E900070B5036804461B6B15469847236829469E
:102EA00020465B6BBDE87040184700000022C0E977
:102EB0000122C0E90322C0E90522C0E907224FF43C
:102EC00080728284014A0260704700BF306202084B
:102ED0002DE9F04F044689B0264600250FF052F93F
:102EE0006B4BE56346F8403B29462622304621F0ED
:102EF00044FA3046FFF7DAFF664B236404F16C08AE
:102F0000FF23294684F866302622A566404621F034
:102F100034FA4046FFF7CAFF4FF6FF795E4BE3668F
:102F200004F1A0074FF0010B29462622C4F8945063
:102F300084F89850A4F89A90A4F89C9084F89E90F5
:102F400084F890B0384621F018FA3846FFF7AEFF03
:102F50004FF47F03C4F8D430504BC4F8A0304FF086
:102F6000FF33C4E938354E4BDFF858A1A4F8CC90B4
:102F7000C4E93C344B4BC4F8D0502A46C4E93E3532
:102F80002946C4E93A55A4F8D850C4F8DC50304674
:102F9000C4F8C8A0FFF77CFF4FF4A0713046FEF7DD
:102FA000C7F9F0213046FEF7C5F904F104094FF0E6
:102FB0007F43A3663146484606F060FD40467822CE
:102FC0002821FFF765FF06AA404605A9ADF8145071
:102FD000ADF818B00AF060FB04F1F003C4F89430C7
:102FE0004146484606F04AFD3F2228213846FFF771
:102FF0004FFF2D4BC4F8D030D4F8A030A4F8D450F3
:103000006D46D3F88430DFF8C080394628469847AB
:1030100095E8070004F1DC0383E80700D8F80030E6
:103020002BB9224B224A6021224820F09FFF224EDA
:103030003388072B03D8214B1D4A6121F4E7204D2B
:103040000721286800F078FDD8F80030C4F8E800BF
:10305000002BE6D03388062BEDD90621286800F036
:103060006BFDC4F8EC0038460AF098FA082306A96C
:103070003846ADF81C30CDF818A00AF0AFFA484633
:10308000394606F0FBFC204609B0BDE8F08F00BFD2
:1030900040630208EC690208546A02089862020858
:1030A00028630208612E00080000FFFF8B59020808
:1030B0008D5A0208085A0208D42A01204F5A0208E1
:1030C000DC2A012004610208D02A0120806A7047AE
:1030D00000207047806C704770477047704770479A
:1030E000704730B4C26844685510034604EB620070
:1030F000D20748BF62599B6830BC48BFD3581847B5
:103100000346406830B19A681AB9D86800F00100E7
:1031100070470120704790F82D3080F8603070477C
:103120000146383091F82C3013B136310AF0EDBB3E
:103130003431FBE710B5642104461FF099FF2046A7
:1031400010BD10B54C2104461FF092FF204610BD63
:1031500010B5102104461FF08BFF204610BD10B59E
:103160004FF4687104461FF083FF204610BD10B570
:103170000446006B50B10368DB68984730B1206BA0
:10318000036821469B68BDE81040184710BD0B79C5
:1031900070B590F82C6004460D460BB916B170BDA1
:1031A000002EFCD0B3FA83F35B0984F82C3023683B
:1031B0002046D3F88C309847236820465B699847AF
:1031C000002EECD02B79012BE9D123682046D3F8CF
:1031D0008830BDE8704018479830884208B505D15E
:1031E0000CF0AAFFBDE80840FFF702BD08BD0B8840
:1031F0002DE9F04183861388B0F90850C386044650
:103200001046904610F096FEB4F90A30074603EBDC
:10321000D3734046C3F34F0610F0C0FE05EBD575DF
:10322000C5F34F0500EBD07007EBD777A6EB600234
:10323000A5EB670104F1380012B209B2FFF728FECE
:1032400023682046D3F88C30BDE8F041184770B5AC
:1032500004461D46BDF91060FFF71AFE2368294693
:1032600020469B6B9847236831462046DB6BBDE8C0
:103270007040184738B5262204460D46002121F03B
:103280007CF82046FFF712FE064B23602B88E38470
:10329000FF23204684F8283029460AF036FB2046D2
:1032A00038BD00BFC86A020810B5262204460021B6
:1032B00021F063F82046FFF7F9FD0A4BA3624FF6B1
:1032C000FF73A3854FF47F020023C4E90C32064A42
:1032D000226023874FF0FF32C4E91023E363A36425
:1032E000204610BD04610208786302082DE9F04F02
:1032F0002DED028B04468FB0A04600250EF042FF54
:10330000714BE56348F8403B26222946404621F0B0
:1033100034F84046FFF7CAFD6C4B236404F16C0B94
:10332000FF234FF6FF7784F866300CA95846A56650
:10333000ADF83070FFF79EFF4FF47F43A4F8C43020
:1033400040F20113A4F8BC30614BC4F8983004F18A
:10335000D0064FF0FF3304F1980AC4F8CC300CA922
:103360003046C4E92755C4E92955C4E92B55C4E9B9
:103370002D55C4F8C050C4F8C850ADF8303004F131
:10338000FC09FFF777FF3146504606F077FB4846C9
:10339000FFF78AFF04F5A47318460493FFF784FF30
:1033A00004F5CA7318460593FFF77EFF04F5F07322
:1033B0000CA918460293ADF8307009F0BFFA04F575
:1033C0001C7318460CA904F540760393ADF83070D1
:1033D00009F0B4FA0CA93046ADF8307009F0AEFA35
:1033E0003C4BC4E9E4343C4BC4E9E635F0232A46BF
:1033F0004046009329464FF4A073FFF728FF271D8E
:103400004FF07F43A3664146384606F037FB2A4615
:1034100058462946FFF73CFD4FF0020858460CA9D4
:10342000ADF830800AF071FA5946384606F026FBAE
:103430004FF0030350460CAA0BA9ADF82C30ADF8A1
:103440003030FFF7D4FE04F56473C4F8C83020238D
:103450002A465046C4F8D45029460093FFF7F7FE99
:103460005146384606F00AFB102200921B23902199
:103470004846FFF7ECFE4FF0FF33C4F82C31D4F888
:10348000FC30A4F830510DF1180AD3F88430DFF87D
:1034900060B04946504698479AE8070004F59C7387
:1034A00083E80700DBF800302BB90C4B0C4A602195
:1034B0000C4820F05BFD0C4B1B88022B1AD80B4BE1
:1034C000074A6121F4E700BFC0640208EC69020802
:1034D00008640208A8640208D93100088B59020860
:1034E0008D5A0208085A0208D42A01204F5A0208AD
:1034F000D02A0120B14B41461868DFF8D88200F08D
:103500001BFB4FF00502C4F844010CA94846ADF876
:103510003420CDF830800AF061F8494638464FF043
:10352000170906F0ABFA26220498CDF800900F2375
:10353000AB21FFF78CFED4F84831A4F87C514FF052
:10354000FF31D3F88430C4F8781150460499984775
:103550009AE8070004F5C27383E80700DBF800303F
:10356000002BA2D0964A1388002BA8D0934B294653
:10357000186800F0E1FA4FF00401C4F890010CA8BB
:10358000ADF8341001460498CDF830800AF026F8E2
:103590000499384606F072FA26220598CDF8009074
:1035A0000F238121FFF753FED4F894310599D3F806
:1035B0008430A4F8C8514FF0FF30C4F8C40150461D
:1035C00098479AE8070004F5E87383E80700DBF8FA
:1035D0000030002B3FF469AF794A1388012B7FF646
:1035E0006EAF764B9FED778A1868DFF8EC91DFF8C5
:1035F000ECA1DFF8ECB1012100F09EFA4FF00303DB
:10360000ADF834300CAB1946C4F8DC010598CDF8A0
:10361000308009F0E3FF0599DFF8C881384606F0ED
:103620002DFA029892223721FFF732FC0CAB4FF0B3
:10363000050219460298ADF8302009F021FB624BD3
:10364000C4F8E8314FF07F53C4F81032029884ED8B
:10365000838A09F0BFF9B7EE000A029809F021FB4E
:103660000298C4F8389209F0B5F90298C4F824B267
:10367000C4F828A2C4F82C9209F0ACF90298C4F856
:1036800030B2C4F834A209F0A5F9B0EE481AF0EE51
:10369000480AB0EE480A029809F0FBFA029984F849
:1036A0000952384606F0EAF9692203989921FFF792
:1036B000EFFB4FF004010398ADF830100CA909F0AE
:1036C000DFFA4FF00F13C4F87832039884EDA78A1D
:1036D00084EDA88A09F07EF9B7EE000A039809F094
:1036E000E0FA0398C4F8C89209F074F90398C4F892
:1036F000B482C4F8B882C4F8BC9209F06BF903989C
:10370000C4F8C082C4F8C48209F064F9B0EE481A63
:10371000F0EE480AB0EE480A0398DFF8CC8009F0D2
:10372000B8FA039984F89952384606F0A7F992221C
:103730003046EC21FFF7ACFB0CA906233046ADF870
:10374000303009F09DFA214BC4F80833204BC4F8FF
:103750002C33304684EDCC8A09F03CF9B7EE000AF0
:10376000304609F09EFA3046C4F8589309F032F911
:103770003046C4F84483C4F848A3C4F84C9309F015
:1037800029F93046C4F85083C4F854A309F022F94B
:10379000B0EE481AF0EE080AB0EE480A304609F0DA
:1037A00078FA384684F82953314606F067F92046FE
:1037B0000FB0BDEC028BBDE8F08F00BFDC2A01200A
:1037C000D42A012000000000280036001E00360028
:1037D0000000A0C00461020800007A440000D84143
:1037E0000000A0410000F040000070417047000060
:1037F00030B5164D2C6814F001048FB0BFF35B8F09
:1038000020D128461FF036FCE0B13F230993104B2E
:103810000893104B104911480A940122CDE9064340
:103820000423CDE903320A230093CDE90B44CDE90B
:1038300001440594FFF732FA094820F0B5FB284609
:103840001FF024FC05480FB030BD00BF301C002025
:1038500030B70208C0B70208A8AC0208341C002028
:10386000ED3700087047000030B5174D2C6814F094
:1038700001048FB0BFF35B8F22D128461FF0FAFB03
:10388000F0B13F230993114B0893114B0793012388
:10389000CDE9053304930423CDE902430C230D49FC
:1038A00000935F220F23CDE90B440B480A94019447
:1038B000FFF7F4F9094820F077FB28461FF0E6FBF4
:1038C00005480FB030BD00BF601C002034B70208AF
:1038D000C4B70208B8AC0208641C002065380008B0
:1038E0007047000030B5164D2C6814F001048FB0FD
:1038F000BFF35B8F20D128461FF0BCFBE0B13F2314
:103900000993104B0893104B104911480A94012257
:10391000CDE906430423CDE9033228230093CDE902
:103920000B44CDE901440594FFF7B8F9094820F0AC
:103930003BFB28461FF0AAFB05480FB030BD00BF77
:10394000901C0020B8B70208C8B70208ECB1020802
:10395000941C0020E13800087047000030B5174D76
:103960002C6814F001048FB0BFF35B8F23D128467D
:103970001FF080FBF8B13F230993114B0893114BC3
:1039800007930323CDE9053301220423CDE9033254
:1039900016230D4900935F221B23CDE90B44CDE98B
:1039A00001440A480A94FFF779F9094820F0FCFA23
:1039B00028461FF06BFB05480FB030BDC01C00202F
:1039C000BCB70208CCB70208FCB10208C41C002036
:1039D0005939000800207047002070470EB403B525
:1039E00003AB002153F8042B01930DF02DFC02B022
:1039F0005DF804EB03B070470CB407B504AB53F8A3
:103A0000042B01930DF020FC03B05DF804EB02B031
:103A100070470000436C10B5044673B3038F2BB995
:103A2000184B194AC521194820F0A0FAC38E00EBA3
:103A300043035B8C0BB30FF0C4FA238F012B03D825
:103A4000134B144ACB21EEE7E28E531C9BB2092B99
:103A5000194688BFA3F10A0104EB410140F63F106B
:103A6000498C814209D10A2B04EB420228BF002372
:103A700004EB4303508C588451842046BDE8104029
:103A80000FF0A2B9D85A0208E15A02088C5B02086A
:103A9000D65B0208E45B02080FF05DB910B586B092
:103AA00002AC84E806001A460AAB05930193099B11
:103AB00000932146089B0BF0C1FE06B010BD00002C
:103AC00038B518BB124B13481C681349B4B12268AF
:103AD00022440260626822440A60A26814440F4BC8
:103AE00000221A8000F038F8054600F033F80C4B3D
:103AF0001C600C4B1D600C4B188007E00B4B0360E7
:103B00000B4B0B600B4B1C68002CE8D138BD00BF81
:103B1000FC1C0020F41C0020F01C0020F81C0020DD
:103B2000D02A0120D82A0120D42A0120F4B7020883
:103B3000D0B7020810B80208044B1B6853F82100E4
:103B4000034B1B6803EB4000704700BFF01C0020D4
:103B5000F41C00200920704700487047001D002019
:103B600010B5FFF781FE064C2060FFF7BBFE6060DA
:103B7000FFF73EFEA060FFF7F1FEE06010BD00BF62
:103B8000001D002010B5002404600C6014601C604F
:103B900010BD704710B54FF4AE7104461FF068FABF
:103BA000204610BD10B50446D0F8580100F01AF8B0
:103BB0002046BDE810400CF041BB000010B50446A3
:103BC000FEF7D2FF014B2360204610BDF4640208CB
:103BD00000225A21C0E90022C0E904228160027358
:103BE00002767047037B10B5044603B343683C225A
:103BF0000133436093FBF2F102FB1133BBB98168DF
:103C000001398160006890B1002904DD0368BDE8D6
:103C100010409B6818470AD10123237603689B68EC
:103C2000984720680368BDE81040DB68184710BD5E
:103C3000012303735A210023C0E90131006810B148
:103C400003689B68184770470023037370477047E9
:103C50007047704704387047704710B5102104460C
:103C60001FF006FA204610BDA0F10400F5E70000A1
:103C700000228260024A026018324260C1607047CE
:103C8000486502087047C06B30B1836813B10022E9
:103C9000C3E90422FFF7E0BF7047000010B5034BF3
:103CA00003600446FFF770F8204610BD78650208EF
:103CB00010B50446FFF7F2FF20464FF494711FF051
:103CC000D7F9204610BD000010B50446FFF700F9F3
:103CD000014B2360204610BD78650208C36B2DE9B7
:103CE000F041044600F5807600F58A7500F1A007E2
:103CF0001BB19B680BB11A7E52B90F4A0A2130469C
:103D000010F05EF80D4A0A21284610F059F80CE030
:103D1000D3E904380A4A0A21304610F051F8094A1A
:103D200043460A21284610F04BF8C4E93A65384664
:103D3000BDE8F0410DF0B2BBB65C0208105D0208B0
:103D4000C05C0208BE5C020810B50446FFF71DF80F
:103D50002046BDE81040FFF7C1BF704704387047E8
:103D6000704710B5102104461FF082F9204610BD9F
:103D7000A0F10400F5E7806808B1FFF759BF70476C
:103D8000C06800F0E1BAA0F10400FFF7F9BF10B578
:103D90000446C06800F0EEFAA06808B1FFF754FFCF
:103DA0000CF0CAF9BDE81040FEF722BFA0F10400F4
:103DB000FFF7EDBF00228260024A026020324260BB
:103DC000C1607047B06502087047000010B5034B32
:103DD00003600446FFF783F9204610BDE86502083A
:103DE00010B50446FFF7F2FF20464FF47E711FF036
:103DF0003FF9204610BD000010B50446FFF776FAE3
:103E0000014B2360204610BDE865020890F8EC33B2
:103E100043B1054BC0F8E433002380F8EC330123B1
:103E200080F8EE33704700BF000020C190F8ED33FA
:103E300043B1054BC0F8E833002380F8ED3301238C
:103E400080F8EF33704700BF000020C11FB5D0F8E5
:103E5000F433002B04463FDC3048002300681A4648
:103E600001A903F0A2FEB8BBBDF8043040F6582209
:103E7000934233D9D4F8C4330333B3F58C7FC8BF2E
:103E80004FF48C73C4F8C433BDF8062040F20B63C2
:103E90009A4232D894F8F0335BB30122BDF808306F
:103EA00040F658218B422AD9D4F8CC330333B3F5EA
:103EB000917FC8BF4FF49173C4F8CC33BDF80A109A
:103EC00040F20B63994227D894F8F13303B30123EE
:103ED00084F8F02384F8F13304B010BDB3F5B56F66
:103EE000D2D2D4F8C433033B58BF1846C4F8C40335
:103EF000CAE72046FFF78AFFCFE70022CEE7B3F5F7
:103F0000B56FDBD2D4F8CC33033B48BF0023D3E7F3
:103F10002046FFF78BFFDAE70023D9E7501900208E
:103F200030B5DDE904540698284488420DDD194473
:103F3000A9420ADD079B2344934206DD039BD01868
:103F4000A042D4BF0020012030BD0020FCE7F2EEEB
:103F5000087AB4EEE70AF1EE10FA1BDCBAEE087A42
:103F6000B4EE470AF1EE10FA48BFB0EE470AF4EE9D
:103F7000E70AF1EE10FA80EDEF0A0EDCFAEE087AAD
:103F8000F4EE670AF1EE10FA48BFF0EE670AC0EDF2
:103F9000F00A7047B0EE670AE9E7F2EE080AF6E7C2
:103FA000F0B5D0E9ED5787B00F23D0F8C463CDE961
:103FB0000333CDE9015736230093D0F8C8232823D3
:103FC00031460446FFF7ACFF70B11436AE1B07EE66
:103FD000906AB8EEE70ADFED177AF9EE060A20EEEE
:103FE000270A2046FFF7B3FF0F23D4F8CC63CDE9AF
:103FF0000333CDE9015736230093D4F8D0231E2391
:1040000031462046FFF78CFF88B10F36AB1B00EE20
:10401000103ADFED087AB8EEC00AF9EE060A20EE93
:10402000270A204607B0BDE8F040FFF790BF07B071
:10403000F0BD00BFCDCC4C3EF0B5D0F8F433002B32
:1040400085B0044600F3B58090F8EE3313B990F8CC
:10405000EC33FBB9D4EDF97AD4F8C823B6EE007A84
:1040600077EE877AC4EDF97AFDEEE77A17EE903AAB
:104070001344912BC4F8C83340F39D809223C4F8B5
:10408000C8330023C4F8E433012384F8EC3300235D
:1040900084F8EE3394F8EF3313B994F8ED33F3B9B1
:1040A000D4EDFA7AD4F8D023B6EE007A77EE877A98
:1040B000C4EDFA7AFDEEE77A17EE903A1344912BAD
:1040C000C4F8D0337BDD9223C4F8D0330023C4F886
:1040D000E833012384F8ED33002384F8EF33D4F878
:1040E000D433D4F8C4239A426DD1D4F8C823D4F879
:1040F000D813521A18BF0122D4F8CC03D4F8DC1319
:10410000884262D1D4F8D053D4F8E0136D1A18BFA6
:1041100001252AB3D4F8D8232D4F0197261D053B3E
:10412000053A69463046ADF80030ADF802200DF092
:1041300007FAB4F9C823B4F9C41304F5F070FEF714
:10414000A7FED4F8C43303975A1FD4F8C833ADF888
:104150000820053B02A93046ADF80A300DF0F0F911
:104160003DB3D4F8DC331B4E01965A1FD4F8E0332C
:10417000ADF80020251D053B69462846ADF8023004
:104180000DF0DEF9B4F9D023B4F9CC1304F5407086
:10419000FEF77EFED4F8CC3303965A1FD4F8D03302
:1041A000ADF80820053B02A92846ADF80A300DF00D
:1041B000C7F905B0F0BD002384F8EC336AE70023AB
:1041C00084F8ED338BE7012296E70125A1E700BFD4
:1041D0003200400028004000D0F8F433002B13B523
:1041E000044678DCD0EDF07A9FED537AD0F8B43302
:1041F000D0F8B81377EE877A90EDEF7AC0EDF07AC9
:10420000FDEEC76A16EE902AFDEEE76A1A4416EE36
:10421000903A002A0B44C0F8B423C0F8B8335CDCF1
:104220000022DFED466AC4F8B42327EE667A84EDF7
:10423000EF7A002B57DC9FED417A002367EEC77AB7
:10424000C4F8B833C4EDF07AD4E9ED1314296DD86D
:10425000542B67DC5523D4EDF07A9FED387AC4F8FF
:10426000B83367EEC77AC4EDF07AD4EDEF7A9FEDFC
:10427000347AB4F9B82367EE877AF6EE006ABDEEB9
:10428000E77A09B217EE103A002BB8BF5B4207EE8F
:10429000103AB8EEC77A04F51C70B4EE667A9FED5A
:1042A000297AF1EE10FA48BFF0EE477AC4EDEF7AC2
:1042B000FEF7EEFDD4F8B4335A1FD4F8B833ADF896
:1042C0000020053BADF8023069464FF01913201D60
:1042D00001930DF035F902B010BDB2F5987FA8DD5D
:1042E00040F231129DE7B82BAEDD9FED147A67EEF8
:1042F000C77AB923BDEEE77AC4F8B83317EE103A9F
:10430000002BB8BF5B4207EE103AB8EEC77AF0EE6A
:10431000006AB4EEE67AF1EE10FA93D50023C4F801
:10432000C03391E7C82BA0DDC82394E7A1F59672AE
:10433000142A8DD999E700BFCDCCCC3E3333333F1F
:1043400048E17A3F0000000038B5044600F5687582
:104350000B46074A032128460FF032FDFC34A564C2
:1043600020460DF09BF82046BDE8384009F016B90C
:10437000C05C020838B537229223C0E9F123EC2251
:104380000025C0E9F32399216C220446C0E9ED120F
:10439000C0F8BC53C0F8C05300F51C70FEF778FDA0
:1043A00040F20113C4F8EC330023B4F9C823B4F984
:1043B000C413A4F8F033C4F8F43304F5F070C4F86F
:1043C000E453C4F8E853FEF763FD04F54070B4F914
:1043D000D023B4F9CC13FEF75BFD201DBDE83840B7
:1043E0000DF05CB838B5992100256C220446C0E96F
:1043F000ED12C0F8BC53C0F8C05300F51C70FEF7B6
:1044000047FD9222EC23C4E9F33240F20113372135
:10441000C4F8EC330023C4E9F112A4F8F03304F536
:10442000F070C4F8E453C4F8E853FEF731FD04F526
:104430004070B4F9D023B4F9CC13FEF729FD201D48
:10444000BDE838400DF02AB8C36B70B5044603B31D
:104450009B68F3B100F2A6355E690E4A1B69032121
:1044600028460FF0ADFCC4F8DC5104F5CA7004F521
:104470006B750DF013F833462846064A03210FF0FA
:104480009FFCC4F8905104F5A470BDE870400DF095
:1044900005B870BDC05C020838B50446FEF720FEC2
:1044A0005A212046FFF750FF2046FFF7CDFF002599
:1044B00099216C22C4E9ED12C4F8BC53C4F8C0536E
:1044C00004F51C70FEF7E4FC92233721EC22C4E9CA
:1044D000F113C4E9F323C4E9F513C4E9F72340F267
:1044E0000113C4F8EC330023C4F8E453C4F8E853D0
:1044F000A4F8F033C4F8F43338BDD0F8F433002B0B
:1045000010B5044603DD013BC4F8F43310BDB0F927
:104510007422B0F97632C0F8B423142AC0F8B83344
:1045200011D8553B9BB2732BF0D8C36B33B19B684A
:1045300023B15A6901325A61FFF786FF2046FFF71F
:1045400051FF7823E0E7A2F59672142ADED8553B96
:104550009BB2732BDAD8C36B002BEFD09B68002B78
:10456000ECD01A6901321A61E6E7D0F8C43310B50D
:10457000C0F8D433D0F8C833C0F8D833D0F8CC332F
:10458000C0F8DC33D0F8D033C0F8E0330446FFF78E
:104590005DFC2046FFF750FD2046FFF71DFE20463C
:1045A000FFF7FEFC2046BDE81040FFF7A6BFF02055
:1045B00070474FF4A07070472920FDF797BB282063
:1045C000FDF794BB08B5FDF765FBCA20FDF78EFB30
:1045D000C320FDF76FFB0820FDF76CFB5020FDF7B3
:1045E00069FBCF20FDF782FB0020FDF763FBC120B4
:1045F000FDF760FB3020FDF75DFBED20FDF776FB5E
:104600006420FDF757FB0320FDF754FB1220FDF754
:1046100051FB8120FDF74EFBE820FDF767FB85206D
:10462000FDF748FB0020FDF745FB7820FDF742FB36
:10463000CB20FDF75BFB3920FDF73CFB2C20FDF781
:1046400039FB0020FDF736FB3420FDF733FB022059
:10465000FDF730FBF720FDF749FB2020FDF72AFB93
:10466000EA20FDF743FB0020FDF724FB0020FDF7C7
:1046700021FBB120FDF73AFB0020FDF71BFB1B20BF
:10468000FDF718FBB620FDF731FB0A20FDF712FB02
:10469000A220FDF70FFBC020FDF728FB1020FDF73F
:1046A00009FBC120FDF722FB1020FDF703FBC5200D
:1046B000FDF71CFB4520FDF7FDFA1520FDF7FAFA82
:1046C000C720FDF713FB9020FDF7F4FA3620FDF725
:1046D0000DFBC820FDF7EEFAF220FDF707FB0020E6
:1046E000FDF7E8FAB020FDF701FBC220FDF7E2FA82
:1046F000B620FDF7FBFA0A20FDF7DCFAA720FDF74C
:10470000D9FA2720FDF7D6FA0420FDF7D3FA2A209C
:10471000FDF7ECFA0020FDF7CDFA0020FDF7CAFA0C
:104720000020FDF7C7FAEF20FDF7C4FA2B20FDF7B4
:10473000DDFA0020FDF7BEFA0020FDF7BBFA0120EC
:10474000FDF7B8FA3F20FDF7B5FAF620FDF7CEFAEF
:104750000120FDF7AFFA0020FDF7ACFA0620FDF7C7
:10476000A9FA2C20FDF7C2FAC820FDF70DFB262080
:10477000FDF7BCFA0120FDF79DFAE020FDF7B6FA3F
:104780000F20FDF797FA2920FDF794FA2420FDF772
:1047900091FA0C20FDF78EFA0E20FDF78BFA092016
:1047A000FDF788FA4E20FDF785FA7820FDF782FAAA
:1047B0003C20FDF77FFA0920FDF77CFA1320FDF776
:1047C00079FA0520FDF776FA1720FDF773FA112024
:1047D000FDF770FA0020FDF76DFAE120FDF786FA8B
:1047E0000020FDF767FA1620FDF764FA1B20FDF79D
:1047F00061FA0420FDF75EFA1120FDF75BFA07204D
:10480000FDF758FA3120FDF755FA3320FDF752FA3B
:104810004220FDF74FFA0520FDF74CFA0C20FDF77A
:1048200049FA0A20FDF746FA2820FDF743FA2F201F
:10483000FDF740FA0F20FDF73DFA1120FDF756FA7B
:10484000C820FDF7A1FA2920FDF750FABDE808407D
:104850002C20FDF74BBA08B5FDF71CFA0321D32035
:10486000FDF760FA80B208BD10B5C4B20222032180
:104870002046FDF7C5F90A20FDF70AFA2046002276
:104880000321FDF7BDF9BDE810400220FDF700BA95
:1048900038B50446E4B2FDF7B1F900212046FDF732
:1048A000C7F9012105462046FDF7C2F940EA052077
:1048B00080B238BD10B5C4B240212046FDF7B8F92A
:1048C000030607D54C212046FDF7B2F9003818BF82
:1048D000012010BD01224B212046FDF791F9204611
:1048E00000224B21FDF78CF90020F2E773B5042379
:1048F000C4B20E461546D7210DEB03022046FDF744
:10490000B1F9019B1BBA1A0DC3F30B233280204669
:104910002B8001224B21FDF773F900224B21204609
:10492000FDF76EF902B070BD10B50A4A13789842CF
:1049300004460DD0517888420AD00BB141B9012309
:10494000D454FDF75BF92046BDE81040FFF78CBF5B
:1049500010BD00BF101D002010B5C4B209212046B3
:10496000FDF766F940F00102D2B220460921BDE808
:104970001040FDF745B910B5C4B209212046FDF736
:1049800057F9092100F0FE022046BDE81040FDF76E
:1049900037B938B5C4B20D4620460A21FDF748F9AB
:1049A00040EA0502D2B220460A21BDE83840FDF7B0
:1049B00027B910B50446FDF722F920461F21FFF75D
:1049C000E8FF2046BDE81040FFF7C6BF38B5C4B2C7
:1049D0000D4620460A21FDF72BF920EA0502D2B246
:1049E00020460A21BDE83840FDF70AB910B5044653
:1049F000FFF7C1FF20461F21BDE81040FFF7E6BFCB
:104A000010B5C0B20C460B21FDF712F9204010BDC5
:104A10001F21FFF7F5BF0A46C0B20B21FDF7F0B822
:104A20001F21FFF7F8BF38B5C4B20D462046172145
:104A3000FDF7FEF820EA0502D2B220461721BDE8B4
:104A40003840FDF7DDB870B5C4B2064604212046F3
:104A5000FDF7EEF8042100F0FB0205462046FDF7C5
:104A6000CFF83046F021FFF7DEFF05F0F8022046D0
:104A70000421FDF7C5F8492220212046FDF7C0F8A2
:104A80000220FDF705F9204601222121FDF7B8F8A3
:104A900020469A224121FDF7B3F8204601224A21FF
:104AA000FDF7AEF8204601224B21FDF7A9F820467C
:104AB00000224B21FDF7A4F8204601225621FDF7E4
:104AC0009FF8204601225821FDF79AF8204601223E
:104AD0004021FDF795F82046FF220B21FDF790F8C5
:104AE000BDE870400220FDF7D3B80000054BD3F8B5
:104AF000882042F47002C3F888204FF000629A6068
:104B0000704700BF00ED00E008B50B4B1A6842F497
:104B100000721A601A6842F480621A601A6842F4DD
:104B200080721A60032000F0EFFA0020FDF7FCFB12
:104B3000FDF75AF9002008BD003C0240034A044B2F
:104B400011681B780B441360704700BF141D0020D0
:104B500078000020014B1868704700BF141D00202A
:104B600038B50446FFF7F6FF631C1CBF054B1B78E6
:104B7000054618BFE418FFF7EDFF431BA342FAD325
:104B800038BD00BF7800002038B50446002800F08A
:104B90009B80056C25B9FDF747F9656484F83C50A6
:104BA000236CDB0600F18E80236C23F4885323F002
:104BB000020343F002032364444B5A6822F4403258
:104BC0005A605A6861680A435A60236821695A68C2
:104BD00022F480725A605A6842EA01225A605A6886
:104BE000A16822F040725A605A680A435A609A6873
:104BF000E16822F400629A609A680A439A60344934
:104C0000A26A8A4252D0996821F0706199609968CD
:104C10000A439A609A68E16A22F040529A609A6860
:104C20000A439A609A6822F002029A609A68217E8A
:104C300042EA41029A6094F82020002A3ED05A6845
:104C4000616A42F400625A605A6822F460425A6013
:104C50005A68013942EA41325A60DA6AE16922F45B
:104C60007002DA62DA6A013942EA0152DA629A685B
:104C700022F400729A609A6894F8301042EA412255
:104C80009A609A68616922F480629A609A6800204A
:104C900042EA81229A606064236C23F0030343F0AC
:104CA00001032364002384F83C3038BD9A6822F065
:104CB00070629A609A6822F04052B2E75A6822F411
:104CC0000062C9E70120EDE70120EEE70023014083
:104CD0000100000F37B513460022019290F83C20E6
:104CE000012A044600F088800568012280F83C20F3
:104CF000AA68D00752D5AA68D20562D4AA68D0079C
:104D000071D5206C20F4E06020F0010040F4807048
:104D100020646A68520541BF206C20F4405040F482
:104D200080502064226CA06B12F480521CBF626C15
:104D300022F006026264002284F83C202F4AC263FB
:104D40002F4A02642F4AC2646FF022022A606A6806
:104D500042F080626A60AA6842F48072AA600A46E1
:104D600005F14C0100F0C6FA274A2849536813F0B0
:104D70001F0F236834D18B4207D001F580718B421D
:104D800024D1526812F01F0F23D19A6812F0405FAD
:104D90001FD19A6842F080429A601AE0AA6842F0F5
:104DA0000102AA601A4A10681A4AB0FBF2F000EB3E
:104DB00040000190019A002A9DD0019A013A019287
:104DC000F8E7AA6822F48072AA6097E712498B423A
:104DD00002D0002003B030BD526812F0100FD3E7AC
:104DE0008B42F6D1D1E7236C43F010032364636C4C
:104DF00043F001036364ECE70220EBE7614F000836
:104E0000214E00084B4F00080023014000200140C4
:104E10007400002040420F0000220140704770479C
:104E200008B5806BFFF7FBFF08BD7047704703684C
:104E300070B51E685D68B20704462BD5A80629D553
:104E4000226CD1065EBF226C42F4007222649A6822
:104E500012F0405F17D1227EAAB9DA6A12F4700FFD
:104E600002D09A6852050ED45A6822F020025A6085
:104E7000236C23F480732364236CD8045EBF236CFB
:104E800043F0010323642046FFF7C8FF23686FF057
:104E900012021A60710733D52A0631D5236CDB065E
:104EA0005EBF236C43F40053236423689A6812F4B2
:104EB000401F1ED19A6B12F4401F02D09A68500511
:104EC00017D45A68510514D49A6812F0405F10D173
:104ED000227E72B95A6822F080025A60236C23F451
:104EE00080532364236CDA055EBF236C43F0010317
:104EF0002364204600F006F923686FF00C021A6064
:104F0000F30710D568060ED523681B68D9070AD5A4
:104F1000236C43F4803323642046FFF786FF236825
:104F20006FF001021A60B2060ED56B010CD5636CEE
:104F300043F00203636423686FF020051D60204680
:104F4000FFF774FF23681D6070BD806B08B54023B8
:104F50000364436C43F004034364FFF767FF08BD39
:104F6000836B1A6C12F0500F10B51A6C23D142F4F7
:104F700000721A641A68916811F0405F17D1197EA7
:104F8000A9B9D16A11F4700F02D0916848050ED406
:104F9000516821F0200151601A6C22F480721A6469
:104FA0001A6CD1045EBF1A6C42F001021A641846F2
:104FB000FFF734FF10BDD20603D51846FFF736FFC2
:104FC000F8E79B6BBDE81040DB6C1847F7B5002392
:104FD000019390F83C30012B054600F086800123B8
:104FE00080F83C3008682B688E68092884B233D971
:104FF00004EB4402DF681E3A4FF0070C0CFA02FC87
:1050000027EA0C07DF60DF6806FA02F23A43DA604B
:105010004968062901EB81022DD8596B053A1F26F4
:10502000964021EA06015963596B04FA02F20A43D9
:105030005A632F4A93420AD1122837D12D4B5A680E
:1050400022F400025A605A6842F480025A6000203A
:1050500085F83C0003B0F0BD1A6900EB400C07274F
:1050600007FA0CF722EA07021A611A6906FA0CF627
:1050700016431E61CCE70C294FF01F010BD81E6BA5
:10508000233A914026EA01011963196B04FA02F2EE
:105090000A431A63CDE7DE6A413A914026EA0101EC
:1050A000D962D96A94400C43DC62C2E7124B984241
:1050B00001D01128CBD10F4B5A6822F480025A60DC
:1050C0005A6842F400025A600B4B9842BFD10B4B16
:1050D0000B4A1B68B3FBF2F30A2253430193019B73
:1050E000002BB4D0019B013BF8E70220B2E700BFE0
:1050F0000020014000230140120000107400002035
:1051000040420F00704700000749CA6822F4E0627D
:105110000302120403F4E063120C134343F0BF6371
:1051200043F40033CB60704700ED00E0164B30B520
:10513000DC68C4F30224C4F10703251D042B28BF37
:105140000423062D4FF0FF358CBF033C002405FAE5
:1051500003F321EA0303A54022EA0502A340002845
:1051600043EA0203ACBF00F16040084A4FEA031370
:10517000B8BF00F00F00DBB2AABF00F561401354C6
:1051800080F8003330BD00BF00ED00E014ED00E01A
:10519000002807DB044A4109012300F01F00834077
:1051A00042F82130704700BF00E100E010B504462E
:1051B00050B1437903F0FF0213B90271FCF7A0FE6E
:1051C00001236371002010BD0120FCE7036810B5C6
:1051D000084C0246D9B210391820B1FBF0F0205C1F
:1051E000D06523F47F7020F003005F2988BF04306E
:1051F000906510BD2C66020870B50446FFF7AAFC46
:105200000546002C60D0022384F835302268002344
:1052100084F83430136823F00103136022681368A4
:10522000D8072ED413683248A1691840D4E9013553
:105230002B43E5682B4325692B4365692B43E569BF
:105240000B432B43256A2B430343606A042802BFA8
:10525000D4E90B5635432B4313605369042823F0DC
:10526000070343EA000335D1A06AE56A03438DB31F
:1052700091B9012820D030F002012BD1E90129D5C4
:105280001DE0FFF767FC401B0528C7D9202303203A
:10529000636584F8350070BDB1F5005F16D1032851
:1052A00018D801A151F820F0BF5200087D52000823
:1052B000BF520008B9520008B5F1C07F0AD140239F
:1052C0006365012384F835300120E4E70228F6D92C
:1052D0000328D3D053612046FFF778FFE26D3F23C8
:1052E0009340836000200123606584F83530D2E765
:1052F0003F8010F070B590F83440866D012C30D0AE
:10530000012480F8344090F83540012C4FF000041F
:1053100025D1022580F8355044650468256825F4B8
:105320008025256063608368402B0EBFA260A1606A
:10533000E260C26D08BFE1603F239340B360236821
:1053400043F016032360036C1BB1236843F008038A
:105350002360236843F001032360002070BD80F8C0
:1053600034400220FAE70000F7B5002301935C4BBC
:10537000856D1F68C36D2E6808229A40324204462C
:105380000CD001680868400708D5086820F00400C0
:105390000860AA60626D42F00102626501229A40D3
:1053A000324208D021684969090641BFAA60626D8E
:1053B00042F00202626504229A40324208D021681B
:1053C0000968880741BFAA60626D42F00402626505
:1053D00010229A40324210D02368196809070CD570
:1053E000AA601A68500337D51B68190301D4236CCF
:1053F00000E0A36C0BB120469847E16D20228A4063
:1054000032423AD023681868C60636D5AA6094F8A6
:105410003520052A1A6827D122F016021A605A6927
:1054200022F080025A61226C0AB9A26C1AB11A6881
:1054300022F008021A603F238B40AB60012384F8FE
:105440003530002384F83430236D002B45D02046BE
:1054500003B0BDE8F04018471A68D2055EBF1A686D
:1054600022F008021A60C2E7500327D51B6819030F
:1054700031D4636C0BB120469847636D6BB3636D99
:10548000DA0719D522684FF41653B7FBF3F7052353
:1054900084F83530136823F001031360019B013356
:1054A000BB42019302D81368DB07F7D4012384F8C9
:1054B0003530002384F83430E36CC6E71A6812F400
:1054C000807208D1196821F010011960012384F855
:1054D000353084F83420E36BCCE703B0F0BD00BF77
:1054E0007400002010B5044620B390F8393003F062
:1054F000FF021BB980F83820FCF71AFD022384F85C
:105500003930236861681A6822F440320A431A600D
:105510005A6BA16822F007020A435A631A6CE168C9
:105520006FF30D020A431A6400200123E06384F83C
:10553000393010BD0120FCE770477047036870B533
:105540005E681D68F207044614D5E90512D51A688D
:1055500022F480721A60C26B42F00102C26301221F
:105560009A60042380F83930002380F8383043698A
:1055700003B19847B20616D5AB0414D523681A6850
:1055800022F400521A6020229A60E36B43F0020377
:10559000E363042384F83930002384F838306369E6
:1055A0000BB120469847300716D5290514D5236836
:1055B0001A6822F400621A6008229A60E36B43F0D2
:1055C0000403E363042384F83930002384F838307B
:1055D00063690BB12046984772070BD56B0509D557
:1055E00023681A6822F480621A6004229A602046B6
:1055F000FFF7A2FFB00714D5A90512D523681A68D2
:1056000022F400721A6002229A60E36BE3630123C2
:1056100084F83930002384F8383023690BB12046F0
:105620009847F20613D5EB0411D523681A6822F4C3
:1056300080521A6010229A60E36BE363012384F8BE
:105640003930002384F838302046FFF776FF70BDEC
:10565000F0B590F83820012A03464FF002002BD015
:10566000012283F8382083F8390003EB0112D2E9D4
:105670000740556A174F44EA0040093C012C9CBF83
:1056800005F07F4210434FEA01161A6888BF40EACE
:10569000056091B9516A394001435162012C996901
:1056A000916103D8596A21F07F4191620122002063
:1056B00083F8392083F83800F0BDD16939400143BF
:1056C000D1619919012C896911619CBF25F07F4531
:1056D0001562EBE7F0FFFC002DE9F74FDFF8BC9116
:1056E0006C4A00230D6801249C4004EA0506AC4383
:1056F00040F0B7804D68032705F003044FEA4308E4
:1057000007FA08FC671E012F6FEA0C0C34D8876873
:1057100007EA0C0ECF6807FA08F747EA0E0787601A
:10572000476827EA060EC5F300179F4047EA0E07B1
:105730004760C76807EA0C0E8F6807FA08F747EA60
:105740000E07022CC76019D14FEAD30A00EB8A0A70
:1057500003F0070BDAF820704FEA8B0B4FF00F0EB7
:105760000EFA0BFE27EA0E0E0F6907FA0BF747EA4F
:105770000E07CAF8207001E0032CDAD1076804FA9A
:1057800008F407EA0C073C4315F4403F046068D076
:1057900000240194D9F8444044F48044C9F84440BA
:1057A000D9F8444023F0030707F1804704F480440C
:1057B00007F59C37019403F0030C019CD7F808E02F
:1057C0004FEA8C0C0F2404FA0CF42EEA040E324C2F
:1057D000A0424DD004F58064A0424BD004F5806413
:1057E000A04249D004F58064A04247D004F580640B
:1057F000A04245D004F58064A04243D004F5806403
:10580000A04241D004F58064A0423FD004F58064FA
:10581000A0423DD004F58064A04214BF0A240924AC
:1058200004FA0CF444EA0E04BC609468F74315F4DF
:10583000801F0CBF3C4034439460D46815F4001FB3
:105840000CBF3C403443D460546815F4003F0CBF97
:105850003C40344354601468ED0354BF3C4034432F
:1058600014600133102B7FF43DAF03B0BDE8F08F1F
:105870000024D5E70124D3E70224D1E70324CFE7AE
:105880000424CDE70524CBE70624C9E70724C7E7AE
:105890000824C5E7003C01400000024000380240F7
:1058A0000369194214BF0120002070470AB18161C9
:1058B00070470904FBE7436901EA030221EA030197
:1058C00041EA02418161704701684B6913F48063CA
:1058D0004FF0000210D06FF480634B61202302630D
:1058E00080F83D3080F83E20036C80F83C2043F087
:1058F0000403036401207047184670472DE9F846F9
:1059000006460F4691461D464FEA114A3368BAF1E2
:10591000010F0CBF5C699C6927EA0404A4B2B4FAC5
:1059200084F46409A14501D0002025E06A1CEED072
:10593000FFF710F9089BC01AA84201D8002DE5D145
:105940003368BAF1010F0CBF5B699B6927EA030357
:105950009BB2B3FA83F35B099945D7D10023202288
:10596000336386F83D2086F83E30326C86F83C3052
:1059700042F0200232640120BDE8F8862DE9F041B2
:1059800004460F46164698462568686927EA0000CF
:1059900080B2C0B16B695A0517D52B6843F4007308
:1059A0002B606FF480636B6120220023236384F8F3
:1059B0003D2084F83E30236C43F00403236400232D
:1059C00084F83C300120BDE8F081731CDDD0FFF786
:1059D000C1F8A0EB0800B04201D8002ED4D1236852
:1059E0005A6927EA020292B2002ACDD0002320226F
:1059F000236384F83D2084F83E30236C1343DDE7B5
:105A000070B504460D46164623685B691B0601D532
:105A100000201EE02046FFF757FFC8B96A1CF3D0EC
:105A2000FFF798F8801BA84201D8002DECD123681D
:105A30005B6913F08003E7D12022236384F83D20C3
:105A400084F83E30226C84F83C3042F0200222641C
:105A5000012070BD2DE9F0431546026885B0DDE9EF
:105A60000C789946136843F4807313600E463B46E6
:105A7000CDF8008000224FF001110446FFF73EFFF1
:105A8000236838B11B68DB0502D54FF4007323642B
:105A9000032620E006F0FE061E611A4943463A46F8
:105AA0002046FFF76BFFA8B9236803905A69039259
:105AB0009B690393424639462046039BFFF7A0FFAC
:105AC000064660B1236C042B01BF2268136843F4BF
:105AD000007313600126304605B0BDE8F083B9F1CC
